{
  "contractName": "KittyContract",
  "abi": [
    {
      "inputs": [
        {
          "internalType": "string",
          "name": "name",
          "type": "string"
        },
        {
          "internalType": "string",
          "name": "symbol",
          "type": "string"
        }
      ],
      "payable": false,
      "stateMutability": "nonpayable",
      "type": "constructor"
    },
    {
      "anonymous": false,
      "inputs": [
        {
          "indexed": true,
          "internalType": "address",
          "name": "owner",
          "type": "address"
        },
        {
          "indexed": true,
          "internalType": "address",
          "name": "approved",
          "type": "address"
        },
        {
          "indexed": true,
          "internalType": "uint256",
          "name": "tokenId",
          "type": "uint256"
        }
      ],
      "name": "Approval",
      "type": "event"
    },
    {
      "anonymous": false,
      "inputs": [
        {
          "indexed": true,
          "internalType": "address",
          "name": "owner",
          "type": "address"
        },
        {
          "indexed": true,
          "internalType": "address",
          "name": "operator",
          "type": "address"
        },
        {
          "indexed": false,
          "internalType": "bool",
          "name": "approved",
          "type": "bool"
        }
      ],
      "name": "ApprovalForAll",
      "type": "event"
    },
    {
      "anonymous": false,
      "inputs": [
        {
          "indexed": false,
          "internalType": "address",
          "name": "owner",
          "type": "address"
        },
        {
          "indexed": false,
          "internalType": "uint256",
          "name": "kittenId",
          "type": "uint256"
        },
        {
          "indexed": false,
          "internalType": "uint256",
          "name": "mumId",
          "type": "uint256"
        },
        {
          "indexed": false,
          "internalType": "uint256",
          "name": "dadId",
          "type": "uint256"
        },
        {
          "indexed": false,
          "internalType": "uint256",
          "name": "genes",
          "type": "uint256"
        }
      ],
      "name": "Birth",
      "type": "event"
    },
    {
      "anonymous": false,
      "inputs": [
        {
          "indexed": true,
          "internalType": "address",
          "name": "from",
          "type": "address"
        },
        {
          "indexed": true,
          "internalType": "address",
          "name": "to",
          "type": "address"
        },
        {
          "indexed": true,
          "internalType": "uint256",
          "name": "tokenId",
          "type": "uint256"
        }
      ],
      "name": "Transfer",
      "type": "event"
    },
    {
      "constant": true,
      "inputs": [],
      "name": "owner",
      "outputs": [
        {
          "internalType": "address",
          "name": "",
          "type": "address"
        }
      ],
      "payable": false,
      "stateMutability": "view",
      "type": "function"
    },
    {
      "constant": false,
      "inputs": [
        {
          "internalType": "uint256",
          "name": "genes",
          "type": "uint256"
        }
      ],
      "name": "createKittyGen0",
      "outputs": [],
      "payable": false,
      "stateMutability": "nonpayable",
      "type": "function"
    },
    {
      "constant": false,
      "inputs": [
        {
          "internalType": "uint256",
          "name": "dadId",
          "type": "uint256"
        },
        {
          "internalType": "uint256",
          "name": "mumId",
          "type": "uint256"
        }
      ],
      "name": "breed",
      "outputs": [
        {
          "internalType": "uint256",
          "name": "",
          "type": "uint256"
        }
      ],
      "payable": false,
      "stateMutability": "nonpayable",
      "type": "function"
    },
    {
      "constant": true,
      "inputs": [
        {
          "internalType": "uint256",
          "name": "kittyId",
          "type": "uint256"
        }
      ],
      "name": "getKitty",
      "outputs": [
        {
          "internalType": "uint256",
          "name": "genes",
          "type": "uint256"
        },
        {
          "internalType": "uint64",
          "name": "birthTime",
          "type": "uint64"
        },
        {
          "internalType": "uint64",
          "name": "mumId",
          "type": "uint64"
        },
        {
          "internalType": "uint64",
          "name": "dadId",
          "type": "uint64"
        },
        {
          "internalType": "uint64",
          "name": "generation",
          "type": "uint64"
        }
      ],
      "payable": false,
      "stateMutability": "view",
      "type": "function"
    },
    {
      "constant": true,
      "inputs": [],
      "name": "getAllYourKittyIds",
      "outputs": [
        {
          "internalType": "uint256[]",
          "name": "",
          "type": "uint256[]"
        }
      ],
      "payable": false,
      "stateMutability": "view",
      "type": "function"
    },
    {
      "constant": true,
      "inputs": [
        {
          "internalType": "bytes4",
          "name": "interfaceId",
          "type": "bytes4"
        }
      ],
      "name": "supportsInterface",
      "outputs": [
        {
          "internalType": "bool",
          "name": "",
          "type": "bool"
        }
      ],
      "payable": false,
      "stateMutability": "pure",
      "type": "function"
    },
    {
      "constant": true,
      "inputs": [
        {
          "internalType": "address",
          "name": "owner",
          "type": "address"
        }
      ],
      "name": "balanceOf",
      "outputs": [
        {
          "internalType": "uint256",
          "name": "balance",
          "type": "uint256"
        }
      ],
      "payable": false,
      "stateMutability": "view",
      "type": "function"
    },
    {
      "constant": true,
      "inputs": [],
      "name": "totalSupply",
      "outputs": [
        {
          "internalType": "uint256",
          "name": "total",
          "type": "uint256"
        }
      ],
      "payable": false,
      "stateMutability": "view",
      "type": "function"
    },
    {
      "constant": true,
      "inputs": [],
      "name": "name",
      "outputs": [
        {
          "internalType": "string",
          "name": "tokenName",
          "type": "string"
        }
      ],
      "payable": false,
      "stateMutability": "view",
      "type": "function"
    },
    {
      "constant": true,
      "inputs": [],
      "name": "symbol",
      "outputs": [
        {
          "internalType": "string",
          "name": "tokenSymbol",
          "type": "string"
        }
      ],
      "payable": false,
      "stateMutability": "view",
      "type": "function"
    },
    {
      "constant": true,
      "inputs": [
        {
          "internalType": "uint256",
          "name": "tokenId",
          "type": "uint256"
        }
      ],
      "name": "ownerOf",
      "outputs": [
        {
          "internalType": "address",
          "name": "owner",
          "type": "address"
        }
      ],
      "payable": false,
      "stateMutability": "view",
      "type": "function"
    },
    {
      "constant": false,
      "inputs": [
        {
          "internalType": "address",
          "name": "to",
          "type": "address"
        },
        {
          "internalType": "uint256",
          "name": "tokenId",
          "type": "uint256"
        }
      ],
      "name": "transfer",
      "outputs": [],
      "payable": false,
      "stateMutability": "nonpayable",
      "type": "function"
    },
    {
      "constant": false,
      "inputs": [
        {
          "internalType": "address",
          "name": "approved",
          "type": "address"
        },
        {
          "internalType": "uint256",
          "name": "tokenId",
          "type": "uint256"
        }
      ],
      "name": "approve",
      "outputs": [],
      "payable": false,
      "stateMutability": "nonpayable",
      "type": "function"
    },
    {
      "constant": false,
      "inputs": [
        {
          "internalType": "address",
          "name": "operator",
          "type": "address"
        },
        {
          "internalType": "bool",
          "name": "approved",
          "type": "bool"
        }
      ],
      "name": "setApprovalForAll",
      "outputs": [],
      "payable": false,
      "stateMutability": "nonpayable",
      "type": "function"
    },
    {
      "constant": true,
      "inputs": [
        {
          "internalType": "uint256",
          "name": "tokenId",
          "type": "uint256"
        }
      ],
      "name": "getApproved",
      "outputs": [
        {
          "internalType": "address",
          "name": "",
          "type": "address"
        }
      ],
      "payable": false,
      "stateMutability": "view",
      "type": "function"
    },
    {
      "constant": true,
      "inputs": [
        {
          "internalType": "address",
          "name": "owner",
          "type": "address"
        },
        {
          "internalType": "address",
          "name": "operator",
          "type": "address"
        }
      ],
      "name": "isApprovedForAll",
      "outputs": [
        {
          "internalType": "bool",
          "name": "",
          "type": "bool"
        }
      ],
      "payable": false,
      "stateMutability": "view",
      "type": "function"
    },
    {
      "constant": false,
      "inputs": [
        {
          "internalType": "address",
          "name": "from",
          "type": "address"
        },
        {
          "internalType": "address",
          "name": "to",
          "type": "address"
        },
        {
          "internalType": "uint256",
          "name": "tokenId",
          "type": "uint256"
        }
      ],
      "name": "safeTransferFrom",
      "outputs": [],
      "payable": false,
      "stateMutability": "nonpayable",
      "type": "function"
    },
    {
      "constant": false,
      "inputs": [
        {
          "internalType": "address",
          "name": "from",
          "type": "address"
        },
        {
          "internalType": "address",
          "name": "to",
          "type": "address"
        },
        {
          "internalType": "uint256",
          "name": "tokenId",
          "type": "uint256"
        },
        {
          "internalType": "bytes",
          "name": "data",
          "type": "bytes"
        }
      ],
      "name": "safeTransferFrom",
      "outputs": [],
      "payable": false,
      "stateMutability": "nonpayable",
      "type": "function"
    },
    {
      "constant": false,
      "inputs": [
        {
          "internalType": "address",
          "name": "from",
          "type": "address"
        },
        {
          "internalType": "address",
          "name": "to",
          "type": "address"
        },
        {
          "internalType": "uint256",
          "name": "tokenId",
          "type": "uint256"
        }
      ],
      "name": "transferFrom",
      "outputs": [],
      "payable": false,
      "stateMutability": "nonpayable",
      "type": "function"
    }
  ],
  "bytecode": "0x60806040523480156200001157600080fd5b5060405162002b4938038062002b49833981810160405260408110156200003757600080fd5b81019080805160405193929190846401000000008211156200005857600080fd5b838201915060208201858111156200006f57600080fd5b82518660018202830111640100000000821117156200008d57600080fd5b8083526020830192505050908051906020019080838360005b83811015620000c3578082015181840152602081019050620000a6565b50505050905090810190601f168015620000f15780820380516001836020036101000a031916815260200191505b50604052602001805160405193929190846401000000008211156200011557600080fd5b838201915060208201858111156200012c57600080fd5b82518660018202830111640100000000821117156200014a57600080fd5b8083526020830192505050908051906020019080838360005b838110156200018057808201518184015260208101905062000163565b50505050905090810190601f168015620001ae5780820380516001836020036101000a031916815260200191505b50604052505050336000806101000a81548173ffffffffffffffffffffffffffffffffffffffff021916908373ffffffffffffffffffffffffffffffffffffffff16021790555081600290805190602001906200020d9291906200022f565b508060039080519060200190620002269291906200022f565b505050620002de565b828054600181600116156101000203166002900490600052602060002090601f016020900481019282601f106200027257805160ff1916838001178555620002a3565b82800160010185558215620002a3579182015b82811115620002a257825182559160200191906001019062000285565b5b509050620002b29190620002b6565b5090565b620002db91905b80821115620002d7576000816000905550600101620002bd565b5090565b90565b61285b80620002ee6000396000f3fe608060405234801561001057600080fd5b50600436106101215760003560e01c806370a08231116100ad578063b88d4fde11610071578063b88d4fde14610654578063d5a776ca14610717578063d9ecad7b14610745578063e985e9c514610791578063e98b7f4d1461080d57610121565b806370a08231146104915780638da5cb5b146104e957806395d89b4114610533578063a22cb465146105b6578063a9059cbb1461060657610121565b806318160ddd116100f457806318160ddd146102ca5780631d526e18146102e857806323b872dd1461034757806342842e0e146103b55780636352211e1461042357610121565b806301ffc9a71461012657806306fdde031461018b578063081812fc1461020e578063095ea7b31461027c575b600080fd5b6101716004803603602081101561013c57600080fd5b8101908080357bffffffffffffffffffffffffffffffffffffffffffffffffffffffff191690602001909291905050506108bb565b604051808215151515815260200191505060405180910390f35b61019361095b565b6040518080602001828103825283818151815260200191508051906020019080838360005b838110156101d35780820151818401526020810190506101b8565b50505050905090810190601f1680156102005780820380516001836020036101000a031916815260200191505b509250505060405180910390f35b61023a6004803603602081101561022457600080fd5b81019080803590602001909291905050506109fd565b604051808273ffffffffffffffffffffffffffffffffffffffff1673ffffffffffffffffffffffffffffffffffffffff16815260200191505060405180910390f35b6102c86004803603604081101561029257600080fd5b81019080803573ffffffffffffffffffffffffffffffffffffffff16906020019092919080359060200190929190505050610ab5565b005b6102d2610bff565b6040518082815260200191505060405180910390f35b6102f0610c0c565b6040518080602001828103825283818151815260200191508051906020019060200280838360005b83811015610333578082015181840152602081019050610318565b505050509050019250505060405180910390f35b6103b36004803603606081101561035d57600080fd5b81019080803573ffffffffffffffffffffffffffffffffffffffff169060200190929190803573ffffffffffffffffffffffffffffffffffffffff16906020019092919080359060200190929190505050610ca1565b005b610421600480360360608110156103cb57600080fd5b81019080803573ffffffffffffffffffffffffffffffffffffffff169060200190929190803573ffffffffffffffffffffffffffffffffffffffff16906020019092919080359060200190929190505050610d2f565b005b61044f6004803603602081101561043957600080fd5b8101908080359060200190929190505050610d50565b604051808273ffffffffffffffffffffffffffffffffffffffff1673ffffffffffffffffffffffffffffffffffffffff16815260200191505060405180910390f35b6104d3600480360360208110156104a757600080fd5b81019080803573ffffffffffffffffffffffffffffffffffffffff169060200190929190505050610e08565b6040518082815260200191505060405180910390f35b6104f1610e51565b604051808273ffffffffffffffffffffffffffffffffffffffff1673ffffffffffffffffffffffffffffffffffffffff16815260200191505060405180910390f35b61053b610e76565b6040518080602001828103825283818151815260200191508051906020019080838360005b8381101561057b578082015181840152602081019050610560565b50505050905090810190601f1680156105a85780820380516001836020036101000a031916815260200191505b509250505060405180910390f35b610604600480360360408110156105cc57600080fd5b81019080803573ffffffffffffffffffffffffffffffffffffffff169060200190929190803515159060200190929190505050610f18565b005b6106526004803603604081101561061c57600080fd5b81019080803573ffffffffffffffffffffffffffffffffffffffff16906020019092919080359060200190929190505050610f60565b005b6107156004803603608081101561066a57600080fd5b81019080803573ffffffffffffffffffffffffffffffffffffffff169060200190929190803573ffffffffffffffffffffffffffffffffffffffff16906020019092919080359060200190929190803590602001906401000000008111156106d157600080fd5b8201836020820111156106e357600080fd5b8035906020019184600183028401116401000000008311171561070557600080fd5b9091929391929390505050611108565b005b6107436004803603602081101561072d57600080fd5b8101908080359060200190929190505050611160565b005b61077b6004803603604081101561075b57600080fd5b810190808035906020019092919080359060200190929190505050611269565b6040518082815260200191505060405180910390f35b6107f3600480360360408110156107a757600080fd5b81019080803573ffffffffffffffffffffffffffffffffffffffff169060200190929190803573ffffffffffffffffffffffffffffffffffffffff169060200190929190505050611510565b604051808215151515815260200191505060405180910390f35b6108396004803603602081101561082357600080fd5b8101908080359060200190929190505050611524565b604051808681526020018567ffffffffffffffff1667ffffffffffffffff1681526020018467ffffffffffffffff1667ffffffffffffffff1681526020018367ffffffffffffffff1667ffffffffffffffff1681526020018267ffffffffffffffff1667ffffffffffffffff1681526020019550505050505060405180910390f35b60006380ac58cd60e01b7bffffffffffffffffffffffffffffffffffffffffffffffffffffffff1916827bffffffffffffffffffffffffffffffffffffffffffffffffffffffff1916148061095457506301ffc9a760e01b7bffffffffffffffffffffffffffffffffffffffffffffffffffffffff1916827bffffffffffffffffffffffffffffffffffffffffffffffffffffffff1916145b9050919050565b606060028054600181600116156101000203166002900480601f0160208091040260200160405190810160405280929190818152602001828054600181600116156101000203166002900480156109f35780601f106109c8576101008083540402835291602001916109f3565b820191906000526020600020905b8154815290600101906020018083116109d657829003601f168201915b5050505050905090565b6000610a08826116a5565b610a7a576040517f08c379a00000000000000000000000000000000000000000000000000000000081526004018080602001828103825260158152602001807f546f6b656e20646f6573206e6f7420657869737421000000000000000000000081525060200191505060405180910390fd5b6008600083815260200190815260200160002060009054906101000a900473ffffffffffffffffffffffffffffffffffffffff169050919050565b610abf33826116b6565b80610b035750610b026005600083815260200190815260200160002060009054906101000a900473ffffffffffffffffffffffffffffffffffffffff1633611722565b5b610b75576040517f08c379a000000000000000000000000000000000000000000000000000000000815260040180806020018281038252601e8152602001807f4e6f7420746f6b656e206f776e65722c206e6f72206f70657261746f7221000081525060200191505060405180910390fd5b610b7e826117b6565b610bf0576040517f08c379a000000000000000000000000000000000000000000000000000000000815260040180806020018281038252601f8152602001807f3020616464726573732063616e277420626520616e20617070726f766572210081525060200191505060405180910390fd5b610bfb3383836117ef565b5050565b6000600480549050905090565b6060600760003373ffffffffffffffffffffffffffffffffffffffff1673ffffffffffffffffffffffffffffffffffffffff168152602001908152602001600020805480602002602001604051908101604052809291908181526020018280548015610c9757602002820191906000526020600020905b815481526020019060010190808311610c83575b5050505050905090565b610cad338484846118a1565b610d1f576040517f08c379a000000000000000000000000000000000000000000000000000000000815260040180806020018281038252601f8152602001807f4e6f20617574686f7269747920746f207472616e7366657220746f6b656e210081525060200191505060405180910390fd5b610d2a838383611a7e565b505050565b610d4b3384848460405180602001604052806000815250611db9565b505050565b6000610d5b826116a5565b610dcd576040517f08c379a00000000000000000000000000000000000000000000000000000000081526004018080602001828103825260158152602001807f546f6b656e20646f6573206e6f7420657869737421000000000000000000000081525060200191505060405180910390fd5b6005600083815260200190815260200160002060009054906101000a900473ffffffffffffffffffffffffffffffffffffffff169050919050565b6000600660008373ffffffffffffffffffffffffffffffffffffffff1673ffffffffffffffffffffffffffffffffffffffff168152602001908152602001600020549050919050565b6000809054906101000a900473ffffffffffffffffffffffffffffffffffffffff1681565b606060038054600181600116156101000203166002900480601f016020809104026020016040519081016040528092919081815260200182805460018160011615610100020316600290048015610f0e5780601f10610ee357610100808354040283529160200191610f0e565b820191906000526020600020905b815481529060010190602001808311610ef157829003601f168201915b5050505050905090565b3373ffffffffffffffffffffffffffffffffffffffff168273ffffffffffffffffffffffffffffffffffffffff161415610f5157600080fd5b610f5c338383611e4a565b5050565b610f69826117b6565b610fdb576040517f08c379a000000000000000000000000000000000000000000000000000000000815260040180806020018281038252601c8152602001807f526563697069656e7427732061646472657373206973207a65726f210000000081525060200191505060405180910390fd5b3073ffffffffffffffffffffffffffffffffffffffff168273ffffffffffffffffffffffffffffffffffffffff16141561107d576040517f08c379a000000000000000000000000000000000000000000000000000000000815260040180806020018281038252601e8152602001807f526563697069656e7420697320636f6e7472616374206164647265737321000081525060200191505060405180910390fd5b61108733826116b6565b6110f9576040517f08c379a000000000000000000000000000000000000000000000000000000000815260040180806020018281038252601a8152602001807f53656e646572206973206e6f7420746f6b656e206f776e65722100000000000081525060200191505060405180910390fd5b611104338383611a7e565b5050565b6111593386868686868080601f016020809104026020016040519081016040528093929190818152602001838380828437600081840152601f19601f82011690508083019250505050505050611db9565b5050505050565b6000809054906101000a900473ffffffffffffffffffffffffffffffffffffffff1673ffffffffffffffffffffffffffffffffffffffff163373ffffffffffffffffffffffffffffffffffffffff16146111b957600080fd5b600a67ffffffffffffffff166001541061123b576040517f08c379a00000000000000000000000000000000000000000000000000000000081526004018080602001828103825260188152602001807f4869742047656e30206372656174696f6e206c696d697421000000000000000081525060200191505060405180910390fd5b61125060018054611f4c90919063ffffffff16565b60018190555061126560008060008433611fd4565b5050565b60006112aa336005600086815260200190815260200160002060009054906101000a900473ffffffffffffffffffffffffffffffffffffffff1633866118a1565b61131c576040517f08c379a000000000000000000000000000000000000000000000000000000000815260040180806020018281038252601f8152602001807f4d75737420686176652061636365737320746f2066617468657220636174210081525060200191505060405180910390fd5b61135b336005600085815260200190815260200160002060009054906101000a900473ffffffffffffffffffffffffffffffffffffffff1633856118a1565b6113cd576040517f08c379a000000000000000000000000000000000000000000000000000000000815260040180806020018281038252601f8152602001807f4d75737420686176652061636365737320746f206d6f7468657220636174210081525060200191505060405180910390fd5b6000611415600485815481106113df57fe5b906000526020600020906002020160000154600485815481106113fe57fe5b9060005260206000209060020201600001546121e9565b905060006004858154811061142657fe5b906000526020600020906002020160010160189054906101000a900467ffffffffffffffff1667ffffffffffffffff16905060006004858154811061146757fe5b906000526020600020906002020160010160189054906101000a900467ffffffffffffffff1667ffffffffffffffff1690506000818311156114be576114b7600184611f4c90919063ffffffff16565b90506114d5565b6114d2600183611f4c90919063ffffffff16565b90505b60006114e48789848833611fd4565b90506115026000338360405180602001604052806000815250612250565b809550505050505092915050565b600061151c8383611722565b905092915050565b6000806000806000611535866116a5565b6115a7576040517f08c379a00000000000000000000000000000000000000000000000000000000081526004018080602001828103825260118152602001807f4e6f2073756368206b697474792069642100000000000000000000000000000081525060200191505060405180910390fd5b600486815481106115b457fe5b906000526020600020906002020160000154600487815481106115d357fe5b906000526020600020906002020160010160009054906101000a900467ffffffffffffffff166004888154811061160657fe5b906000526020600020906002020160010160089054906101000a900467ffffffffffffffff166004898154811061163957fe5b906000526020600020906002020160010160109054906101000a900467ffffffffffffffff1660048a8154811061166c57fe5b906000526020600020906002020160010160189054906101000a900467ffffffffffffffff169450945094509450945091939590929450565b600060048054905082109050919050565b60008273ffffffffffffffffffffffffffffffffffffffff166005600084815260200190815260200160002060009054906101000a900473ffffffffffffffffffffffffffffffffffffffff1673ffffffffffffffffffffffffffffffffffffffff1614905092915050565b6000600960008473ffffffffffffffffffffffffffffffffffffffff1673ffffffffffffffffffffffffffffffffffffffff16815260200190815260200160002060008373ffffffffffffffffffffffffffffffffffffffff1673ffffffffffffffffffffffffffffffffffffffff16815260200190815260200160002060009054906101000a900460ff16905092915050565b60008073ffffffffffffffffffffffffffffffffffffffff168273ffffffffffffffffffffffffffffffffffffffff1614159050919050565b816008600083815260200190815260200160002060006101000a81548173ffffffffffffffffffffffffffffffffffffffff021916908373ffffffffffffffffffffffffffffffffffffffff160217905550808273ffffffffffffffffffffffffffffffffffffffff168473ffffffffffffffffffffffffffffffffffffffff167f8c5be1e5ebec7d5bd14f71427d1e84f3dd0314c0f7b2291e5b200ac8c7c3b92560405160405180910390a4505050565b60006118ac826116a5565b61191e576040517f08c379a00000000000000000000000000000000000000000000000000000000081526004018080602001828103825260148152602001807f546f6b656e20646f65736e27742065786973742100000000000000000000000081525060200191505060405180910390fd5b61192884836116b6565b61199a576040517f08c379a00000000000000000000000000000000000000000000000000000000081526004018080602001828103825260198152602001807f2766726f6d2720646f65736e2774206f776e20746f6b656e210000000000000081525060200191505060405180910390fd5b6119a3836117b6565b611a15576040517f08c379a000000000000000000000000000000000000000000000000000000000815260040180806020018281038252601c8152602001807f526563697069656e7427732061646472657373206973207a65726f210000000081525060200191505060405180910390fd5b611a1f85836116b6565b80611a635750611a626005600084815260200190815260200160002060009054906101000a900473ffffffffffffffffffffffffffffffffffffffff1686611722565b5b80611a745750611a738583612276565b5b9050949350505050565b611a87836117b6565b15611c08576008600082815260200190815260200160002060006101000a81549073ffffffffffffffffffffffffffffffffffffffff0219169055600760008473ffffffffffffffffffffffffffffffffffffffff1673ffffffffffffffffffffffffffffffffffffffff16815260200190815260200160002073__ArrayUtils____________________________6359b4521f9091836040518363ffffffff1660e01b8152600401808381526020018281526020019250505060006040518083038186803b158015611b5957600080fd5b505af4158015611b6d573d6000803e3d6000fd5b50505050611bc46001600660008673ffffffffffffffffffffffffffffffffffffffff1673ffffffffffffffffffffffffffffffffffffffff168152602001908152602001600020546122e290919063ffffffff16565b600660008573ffffffffffffffffffffffffffffffffffffffff1673ffffffffffffffffffffffffffffffffffffffff168152602001908152602001600020819055505b600760008373ffffffffffffffffffffffffffffffffffffffff1673ffffffffffffffffffffffffffffffffffffffff168152602001908152602001600020819080600181540180825580915050906001820390600052602060002001600090919290919091505550611cc46001600660008573ffffffffffffffffffffffffffffffffffffffff1673ffffffffffffffffffffffffffffffffffffffff16815260200190815260200160002054611f4c90919063ffffffff16565b600660008473ffffffffffffffffffffffffffffffffffffffff1673ffffffffffffffffffffffffffffffffffffffff16815260200190815260200160002081905550816005600083815260200190815260200160002060006101000a81548173ffffffffffffffffffffffffffffffffffffffff021916908373ffffffffffffffffffffffffffffffffffffffff160217905550808273ffffffffffffffffffffffffffffffffffffffff168473ffffffffffffffffffffffffffffffffffffffff167fddf252ad1be2c89b69c2b068fc378daa952ba7f163c4a11628f55a4df523b3ef60405160405180910390a4505050565b611dc5858585856118a1565b611e37576040517f08c379a000000000000000000000000000000000000000000000000000000000815260040180806020018281038252601f8152602001807f4e6f20617574686f7269747920746f207472616e7366657220746f6b656e210081525060200191505060405180910390fd5b611e4384848484612250565b5050505050565b80600960008573ffffffffffffffffffffffffffffffffffffffff1673ffffffffffffffffffffffffffffffffffffffff16815260200190815260200160002060008473ffffffffffffffffffffffffffffffffffffffff1673ffffffffffffffffffffffffffffffffffffffff16815260200190815260200160002060006101000a81548160ff0219169083151502179055508173ffffffffffffffffffffffffffffffffffffffff168373ffffffffffffffffffffffffffffffffffffffff167f17307eab39ab6107e8899845ad3d59bd9653f200f220920489ca2b5937696c3183604051808215151515815260200191505060405180910390a3505050565b600080828401905083811015611fca576040517f08c379a000000000000000000000000000000000000000000000000000000000815260040180806020018281038252601b8152602001807f536166654d6174683a206164646974696f6e206f766572666c6f77000000000081525060200191505060405180910390fd5b8091505092915050565b6000611fde61277f565b6040518060a001604052808581526020014267ffffffffffffffff1681526020018867ffffffffffffffff1681526020018767ffffffffffffffff1681526020018667ffffffffffffffff168152509050600061213a6001600484908060018154018082558091505090600182039060005260206000209060020201600090919290919091506000820151816000015560208201518160010160006101000a81548167ffffffffffffffff021916908367ffffffffffffffff16021790555060408201518160010160086101000a81548167ffffffffffffffff021916908367ffffffffffffffff16021790555060608201518160010160106101000a81548167ffffffffffffffff021916908367ffffffffffffffff16021790555060808201518160010160186101000a81548167ffffffffffffffff021916908367ffffffffffffffff16021790555050506122e290919063ffffffff16565b90507f0a5311bd2a6608f08a180df2ee7c5946819a649b204b554bb8e39825b2c50ad584828a8a89604051808673ffffffffffffffffffffffffffffffffffffffff1673ffffffffffffffffffffffffffffffffffffffff1681526020018581526020018481526020018381526020018281526020019550505050505060405180910390a16121db6000858360405180602001604052806000815250612250565b809250505095945050505050565b6000806122036305f5e1008561232c90919063ffffffff16565b905060006305f5e100848161221457fe5b0690506000612242826122346305f5e1008661237690919063ffffffff16565b611f4c90919063ffffffff16565b905080935050505092915050565b61225b848484611a7e565b612267848484846123fc565b61227057600080fd5b50505050565b60006008600083815260200190815260200160002060009054906101000a900473ffffffffffffffffffffffffffffffffffffffff1673ffffffffffffffffffffffffffffffffffffffff168373ffffffffffffffffffffffffffffffffffffffff1614905092915050565b600061232483836040518060400160405280601e81526020017f536166654d6174683a207375627472616374696f6e206f766572666c6f7700008152506125e0565b905092915050565b600061236e83836040518060400160405280601a81526020017f536166654d6174683a206469766973696f6e206279207a65726f0000000000008152506126a0565b905092915050565b60008083141561238957600090506123f6565b600082840290508284828161239a57fe5b04146123f1576040517f08c379a00000000000000000000000000000000000000000000000000000000081526004018080602001828103825260218152602001806128066021913960400191505060405180910390fd5b809150505b92915050565b600061240784612766565b61241457600190506125d8565b60008473ffffffffffffffffffffffffffffffffffffffff1663150b7a02338887876040518563ffffffff1660e01b8152600401808573ffffffffffffffffffffffffffffffffffffffff1673ffffffffffffffffffffffffffffffffffffffff1681526020018473ffffffffffffffffffffffffffffffffffffffff1673ffffffffffffffffffffffffffffffffffffffff16815260200183815260200180602001828103825283818151815260200191508051906020019080838360005b838110156124ef5780820151818401526020810190506124d4565b50505050905090810190601f16801561251c5780820380516001836020036101000a031916815260200191505b5095505050505050602060405180830381600087803b15801561253e57600080fd5b505af1158015612552573d6000803e3d6000fd5b505050506040513d602081101561256857600080fd5b8101908080519060200190929190505050905060405180806127d7602f9139602f01905060405180910390207bffffffffffffffffffffffffffffffffffffffffffffffffffffffff1916817bffffffffffffffffffffffffffffffffffffffffffffffffffffffff1916149150505b949350505050565b600083831115829061268d576040517f08c379a00000000000000000000000000000000000000000000000000000000081526004018080602001828103825283818151815260200191508051906020019080838360005b83811015612652578082015181840152602081019050612637565b50505050905090810190601f16801561267f5780820380516001836020036101000a031916815260200191505b509250505060405180910390fd5b5060008385039050809150509392505050565b6000808311829061274c576040517f08c379a00000000000000000000000000000000000000000000000000000000081526004018080602001828103825283818151815260200191508051906020019080838360005b838110156127115780820151818401526020810190506126f6565b50505050905090810190601f16801561273e5780820380516001836020036101000a031916815260200191505b509250505060405180910390fd5b50600083858161275857fe5b049050809150509392505050565b600080823b905060008163ffffffff1611915050919050565b6040518060a0016040528060008152602001600067ffffffffffffffff168152602001600067ffffffffffffffff168152602001600067ffffffffffffffff168152602001600067ffffffffffffffff168152509056fe6f6e455243373231526563656976656428616464726573732c616464726573732c75696e743235362c627974657329536166654d6174683a206d756c7469706c69636174696f6e206f766572666c6f77a265627a7a7231582051c048dd263c06ca7d83b0c0750ec7dc34514ddd8dd1f2ee1f2d47d5fc15edc364736f6c634300050c0032",
  "source": "pragma solidity 0.5.12;\n\nimport \"./IERC721.sol\";\nimport \"./IERC721Receiver.sol\";\nimport \"./Safemath.sol\";\nimport \"./Ownable.sol\";\nimport \"./ArrayUtils.sol\";\n\ncontract KittyContract is IERC721, Ownable {\n\n    using SafeMath for uint256;\n    using ArrayUtils for uint256[];\n\n    struct Kitty {\n        uint256 genes;\n        uint64 birthTime;\n        uint64 mumId;\n        uint64 dadId;\n        uint64 generation;\n    }\n\n    bytes4 internal constant _ERC721_RECEIVED =\n        bytes4(keccak256(\"onERC721Received(address,address,uint256,bytes)\"));\n    bytes4 private constant _INTERFACE_ID_ERC721 = 0x80ac58cd;\n    bytes4 private constant _INTERFACE_ID_ERC165 = 0x01ffc9a7;\n    // Note: bytes4(keccak256('supportsInterface(bytes4) == 0x01ffc9a7'));\n\n    uint64 private constant _GEN0_LIMIT = 10;\n    uint256 private _gen0KittiesCount;\n    string private _name;\n    string private _symbol;\n\n    Kitty[] private _kitties;  \n    mapping(uint256 => address) private _kittiesOwner;\n    mapping(address => uint256) private _ownersKittyCount;\n    mapping(address => uint256[]) private _ownersKittyIds;\n\n    mapping(uint256 => address) private _kittiesApprovedOperator;\n    mapping(address => mapping(address => bool)) private _ownersApprovedOperators;\n\n    event Birth(\n        address owner,\n        uint256 kittenId,\n        uint256 mumId,\n        uint256 dadId,\n        uint256 genes\n    );\n\n\n// Public & external functions\n\n    constructor(string memory name, string memory symbol) public {\n        _name = name;\n        _symbol = symbol;\n    }\n\n\n    function createKittyGen0(uint256 genes) public onlyOwner {\n        require(_gen0KittiesCount < _GEN0_LIMIT, \"Hit Gen0 creation limit!\");\n        _gen0KittiesCount = _gen0KittiesCount.add(1);\n        _createKitty( 0, 0, 0, genes, msg.sender);\n    }\n\n\n    function breed(uint256 dadId, uint256 mumId) public returns (uint256)\n    {\n        // Ensure that the breeder is owner or guardian of parent cats \n        require(\n            _isOwnerOrApproved(\n                msg.sender,\n                _kittiesOwner[dadId],\n                msg.sender,\n                dadId\n            ),\n            \"Must have access to father cat!\"\n        );\n        require(\n            _isOwnerOrApproved(\n                msg.sender,\n                _kittiesOwner[mumId],\n                msg.sender,\n                mumId\n            ),\n            \"Must have access to mother cat!\"\n        );\n        // require(_isOwner(msg.sender, dadId), \"Must be owner of father kitty!\")\n        // require(_isOwner(msg.sender, mumId), \"Must be owner of mother kitty!\")\n\n        // Bread the new kitty\n        uint256 newDna = _mixDna(_kitties[dadId].genes, _kitties[mumId].genes);\n        uint256 dadGen = _kitties[dadId].generation;\n        uint256 mumGen = _kitties[mumId].generation;\n        uint256 newGen;\n        if (dadGen > mumGen)\n            newGen = dadGen.add(1);\n        else newGen = mumGen.add(1);\n        uint256 newKittyId = _createKitty(\n            mumId,\n            dadId,\n            newGen,\n            newDna,\n            msg.sender\n        );\n\n        // The breeder becomes the owner of the new kitty\n        _safeTransfer(address(0), msg.sender, newKittyId, \"\");\n\n        return newKittyId;\n    }\n\n\n    function getKitty(uint256 kittyId) external view returns (\n        uint256 genes,\n        uint64 birthTime, \n        uint64 mumId,\n        uint64 dadId,\n        uint64 generation\n    )\n    {\n        require(_isInExistance(kittyId), \"No such kitty id!\");\n        \n        return (\n            _kitties[kittyId].genes, \n            _kitties[kittyId].birthTime,\n            _kitties[kittyId].mumId, \n            _kitties[kittyId].dadId, \n            _kitties[kittyId].generation\n        );\n    }\n\n\n    function getAllYourKittyIds() external view returns(uint256[] memory) {\n        // Set pointer to owners array of kitty Ids\n        return _ownersKittyIds[msg.sender];\n    }\n\n\n    // IERC165 function implementations\n    function supportsInterface(bytes4 interfaceId) public pure returns (bool) {\n        return (\n            interfaceId == _INTERFACE_ID_ERC721 ||\n            interfaceId == _INTERFACE_ID_ERC165\n        );\n    }\n\n\n    // IERC721 function implementations\n\n    function balanceOf(address owner) external view returns (uint256 balance) {\n        return _ownersKittyCount[owner];\n    }\n\n\n    function totalSupply() external view returns (uint256 total) {\n        return _kitties.length;\n    }\n\n\n    function name() external view returns (string memory tokenName) {\n        return _name;\n    }\n\n\n    function symbol() external view returns (string memory tokenSymbol) {\n        return _symbol;\n    }\n\n\n    function ownerOf(uint256 tokenId) external view returns (address owner) {\n        require(_isInExistance(tokenId), \"Token does not exist!\");\n\n        return _kittiesOwner[tokenId];\n    }\n\n\n    function transfer(address to, uint256 tokenId) external {\n        // Checks\n        require(_isNotZero(to), \"Recipient's address is zero!\");\n        require(to != address(this), \"Recipient is contract address!\");\n        require(_isOwner(msg.sender, tokenId), \"Sender is not token owner!\");\n\n        // Effects: Transfer token\n        _transfer(msg.sender, to, tokenId);\n    }\n\n\n    function approve(address approved, uint256 tokenId) external {\n        require(\n            _isOwner(msg.sender, tokenId) ||\n            _isOperator(_kittiesOwner[tokenId], msg.sender),\n            \"Not token owner, nor operator!\"\n        );\n        require(_isNotZero(approved), \"0 address can't be an approver!\");   // Additional check\n\n        _approve(msg.sender, approved, tokenId);\n    }\n\n\n    function setApprovalForAll(address operator, bool approved) external {\n        require(operator != msg.sender);\n        _setApprovalForAll(msg.sender, operator, approved);\n    }\n\n\n    function getApproved(uint256 tokenId) external view returns (address) {\n        require(_isInExistance(tokenId), \"Token does not exist!\");\n\n        return _kittiesApprovedOperator[tokenId];\n    }\n\n\n    function isApprovedForAll(address owner, address operator)\n        external\n        view\n        returns (bool)\n    {\n        return _isOperator(owner, operator);\n    }\n\n\n    function safeTransferFrom(\n        address from, \n        address to, \n        uint256 tokenId, \n        bytes calldata data\n    )\n        external\n    {  \n        _safeTransferFrom(msg.sender, from, to, tokenId, data);\n    }\n\n\n    function safeTransferFrom(\n        address from,\n        address to,\n        uint256 tokenId\n    )\n        external\n    {\n        _safeTransferFrom(msg.sender, from, to, tokenId, \"\");\n    }\n\n\n    function transferFrom(address from, address to, uint256 tokenId) external {\n        require(\n            _isOwnerOrApproved(msg.sender, from, to, tokenId),\n            \"No authority to transfer token!\"\n        );\n        _transfer(from, to, tokenId);\n    }\n\n\n// Internal & private functions\n\n    function _isOwnerOrApproved(\n        address sender,\n        address from,\n        address to,\n        uint256 tokenId\n    )\n        internal\n        view\n        returns (bool)\n    {\n        require(_isInExistance(tokenId), \"Token doesn't exist!\");\n        require(_isOwner(from, tokenId), \"'from' doesn't own token!\");\n        require(_isNotZero(to), \"Recipient's address is zero!\");\n\n        return (\n            _isOwner(sender, tokenId) ||\n            _isOperator(_kittiesOwner[tokenId], sender) ||\n            _isApproved(sender, tokenId)\n        );\n    }\n\n\n    function _isNotZero(address candidate)\n        internal\n        pure\n        returns (bool notZero)\n    {\n        return (candidate != address(0));\n        // notZero = (candidate != address(0));     // Q. Consider my prefered 'return' method!?\n    }\n\n\n    function _isOwner(address claimer, uint256 tokenId)\n        internal\n        view\n        returns (bool owner)\n    {\n        return (_kittiesOwner[tokenId] == claimer);\n        // owner = (_kittiesOwner[tokenId] == claimer);     // Q. Consider my prefered 'return' method!?\n    }\n\n\n    function _isOperator(address owner, address candidate)\n        internal\n        view\n        returns (bool operator)\n    {\n        return _ownersApprovedOperators[owner][candidate];\n    }\n\n\n    function _isApproved(address candidate, uint256 tokenId)\n        internal\n        view\n        returns (bool approved)\n    {\n        // approved = (candidate == _kittiesApprovedOperator[tokenId]);  // Q. Consider my prefered 'return' method!?\n        return (candidate == _kittiesApprovedOperator[tokenId]);\n    }\n\n\n    function _isInExistance(uint256 tokenId)\n        internal\n        view\n        returns (bool exists)\n    {\n        return (tokenId < _kitties.length);\n    }\n\n\n    function _transfer(address from, address to, uint256 tokenId) internal {\n\n        if (_isNotZero(from)){\n            // Take kittie token from the sender\n            delete _kittiesApprovedOperator[tokenId];\n            _ownersKittyIds[from].removeFrom(tokenId);\n            _ownersKittyCount[from] = _ownersKittyCount[from].sub(1);\n        }\n\n        // Give token to the receiver\n        _ownersKittyIds[to].push(tokenId);\n        _ownersKittyCount[to] = _ownersKittyCount[to].add(1);\n        _kittiesOwner[tokenId] = to;\n\n        emit Transfer(from, to, tokenId);\n    }\n\n\n    function _safeTransferFrom(\n        address sender, \n        address from, \n        address to, \n        uint256 tokenId, \n        bytes memory data\n    )\n        internal\n    {\n        require(\n            _isOwnerOrApproved(sender, from, to, tokenId),\n            \"No authority to transfer token!\"\n        );\n        \n        _safeTransfer(from, to, tokenId, data);\n    }\n\n\n    function _safeTransfer(\n        address from, \n        address to, \n        uint256 tokenId, \n        bytes memory data\n    )\n        internal \n    {\n        _transfer(from, to, tokenId);\n        require(_checkERC721Support(from, to, tokenId, data));\n    }\n\n\n    function _approve(\n        address grantor,\n        address approved,\n        uint256 tokenId\n    )\n        internal\n    {\n        _kittiesApprovedOperator[tokenId] = approved;\n        emit Approval(grantor, approved, tokenId);\n    }\n\n\n    function _setApprovalForAll(\n        address owner,\n        address operator,\n        bool approved\n    )\n        internal\n    {\n        _ownersApprovedOperators[owner][operator] = approved;\n        emit ApprovalForAll(owner, operator, approved);\n    }\n\n\n    function _checkERC721Support(\n        address from,\n        address to,\n        uint256 tokenId,\n        bytes memory data\n    )\n        internal\n// Q.       view // Not view because it could potentailly modify state BUT HOW? (eg. if called external contract called back???)\n        returns (bool)\n    {\n        if (!_isContract(to)) return true;\n\n        // Call onERC721Received in the _to contract\n        bytes4 response = IERC721Receiver(to).onERC721Received(\n            msg.sender,\n            from,\n            tokenId,\n            data\n        );\n        return (response == _ERC721_RECEIVED);\n    }\n\n\n    function _isContract(address to) internal view returns (bool) {\n        uint32 codeSize;\n        assembly{\n            codeSize := extcodesize(to)\n        }\n        return (codeSize > 0);\n    }\n\n\n    function _createKitty(\n        uint256 mumId,\n        uint256 dadId,\n        uint256 generation,\n        uint256 genes,\n        address owner\n    ) \n        private\n        returns (uint256)\n    {\n        Kitty memory newKitty = Kitty(\n            {\n                genes: genes,\n                birthTime: uint64(now),\n                mumId: uint64(mumId),\n                dadId: uint64(dadId),\n                generation: uint64(generation)\n            }\n        );\n        uint256 newKittenId = (_kitties.push(newKitty)).sub(1);\n        emit Birth(owner, newKittenId, mumId, dadId, genes);\n        _safeTransfer(address(0), owner, newKittenId, \"\");\n        // _transfer(address(0), owner, newKittenId);\n        return newKittenId;\n    }\n\n\n    function _mixDna(uint256 dadDna, uint256 mumDna) internal pure returns (uint256) {\n        // Dad: 1122334455667788\n        // Mum: 8877665544332211\n        \n        uint256 firstEightDigits = dadDna.div(100000000);  // 11223344\n        uint256 lastEightDigits = mumDna % 100000000;   // 44332211\n\n        uint256 newDna = (firstEightDigits.mul(100000000)).add(lastEightDigits); // 1122334444332211\n\n        return newDna;\n    }\n\n}",
  "sourcePath": "/Users/Mark/Documents/BlockChain/IvanOnTechAcademy/Bootcamp/CryptoKitties-Clone/contracts/KittyContract.sol",
  "compiler": {
    "name": "solc",
    "version": "0.5.12+commit.7709ece9.Emscripten.clang"
  },
  "schemaVersion": "3.2.0",
  "updatedAt": "2021-03-25T16:30:07.564Z",
  "devdoc": {
    "methods": {}
  },
  "userdoc": {
    "methods": {}
  }
}