{
  "contractName": "Kittycontract",
  "abi": [
    {
      "inputs": [
        {
          "internalType": "string",
          "name": "name",
          "type": "string"
        },
        {
          "internalType": "string",
          "name": "symbol",
          "type": "string"
        },
        {
          "internalType": "uint256",
          "name": "supply",
          "type": "uint256"
        }
      ],
      "payable": false,
      "stateMutability": "nonpayable",
      "type": "constructor"
    },
    {
      "anonymous": false,
      "inputs": [
        {
          "indexed": true,
          "internalType": "address",
          "name": "owner",
          "type": "address"
        },
        {
          "indexed": true,
          "internalType": "address",
          "name": "approved",
          "type": "address"
        },
        {
          "indexed": true,
          "internalType": "uint256",
          "name": "tokenId",
          "type": "uint256"
        }
      ],
      "name": "Approval",
      "type": "event"
    },
    {
      "anonymous": false,
      "inputs": [
        {
          "indexed": true,
          "internalType": "address",
          "name": "from",
          "type": "address"
        },
        {
          "indexed": true,
          "internalType": "address",
          "name": "to",
          "type": "address"
        },
        {
          "indexed": true,
          "internalType": "uint256",
          "name": "tokenId",
          "type": "uint256"
        }
      ],
      "name": "Transfer",
      "type": "event"
    },
    {
      "constant": true,
      "inputs": [
        {
          "internalType": "address",
          "name": "owner",
          "type": "address"
        }
      ],
      "name": "balanceOf",
      "outputs": [
        {
          "internalType": "uint256",
          "name": "balance",
          "type": "uint256"
        }
      ],
      "payable": false,
      "stateMutability": "view",
      "type": "function"
    },
    {
      "constant": true,
      "inputs": [],
      "name": "totalSupply",
      "outputs": [
        {
          "internalType": "uint256",
          "name": "total",
          "type": "uint256"
        }
      ],
      "payable": false,
      "stateMutability": "view",
      "type": "function"
    },
    {
      "constant": true,
      "inputs": [],
      "name": "name",
      "outputs": [
        {
          "internalType": "string",
          "name": "tokenName",
          "type": "string"
        }
      ],
      "payable": false,
      "stateMutability": "view",
      "type": "function"
    },
    {
      "constant": true,
      "inputs": [],
      "name": "symbol",
      "outputs": [
        {
          "internalType": "string",
          "name": "tokenSymbol",
          "type": "string"
        }
      ],
      "payable": false,
      "stateMutability": "view",
      "type": "function"
    },
    {
      "constant": true,
      "inputs": [
        {
          "internalType": "uint256",
          "name": "tokenId",
          "type": "uint256"
        }
      ],
      "name": "ownerOf",
      "outputs": [
        {
          "internalType": "address",
          "name": "owner",
          "type": "address"
        }
      ],
      "payable": false,
      "stateMutability": "view",
      "type": "function"
    },
    {
      "constant": false,
      "inputs": [
        {
          "internalType": "address",
          "name": "to",
          "type": "address"
        },
        {
          "internalType": "uint256",
          "name": "tokenId",
          "type": "uint256"
        }
      ],
      "name": "transfer",
      "outputs": [],
      "payable": false,
      "stateMutability": "nonpayable",
      "type": "function"
    }
  ],
  "bytecode": "0x60806040523480156200001157600080fd5b506040516200104238038062001042833981810160405260608110156200003757600080fd5b81019080805160405193929190846401000000008211156200005857600080fd5b838201915060208201858111156200006f57600080fd5b82518660018202830111640100000000821117156200008d57600080fd5b8083526020830192505050908051906020019080838360005b83811015620000c3578082015181840152602081019050620000a6565b50505050905090810190601f168015620000f15780820380516001836020036101000a031916815260200191505b50604052602001805160405193929190846401000000008211156200011557600080fd5b838201915060208201858111156200012c57600080fd5b82518660018202830111640100000000821117156200014a57600080fd5b8083526020830192505050908051906020019080838360005b838110156200018057808201518184015260208101905062000163565b50505050905090810190601f168015620001ae5780820380516001836020036101000a031916815260200191505b50604052602001805190602001909291905050508260019080519060200190620001da92919062000204565b508160029080519060200190620001f392919062000204565b5080600081905550505050620002b3565b828054600181600116156101000203166002900490600052602060002090601f016020900481019282601f106200024757805160ff191683800117855562000278565b8280016001018555821562000278579182015b82811115620002775782518255916020019190600101906200025a565b5b5090506200028791906200028b565b5090565b620002b091905b80821115620002ac57600081600090555060010162000292565b5090565b90565b610d7f80620002c36000396000f3fe608060405234801561001057600080fd5b50600436106100625760003560e01c806306fdde031461006757806318160ddd146100ea5780636352211e1461010857806370a082311461017657806395d89b41146101ce578063a9059cbb14610251575b600080fd5b61006f61029f565b6040518080602001828103825283818151815260200191508051906020019080838360005b838110156100af578082015181840152602081019050610094565b50505050905090810190601f1680156100dc5780820380516001836020036101000a031916815260200191505b509250505060405180910390f35b6100f2610341565b6040518082815260200191505060405180910390f35b6101346004803603602081101561011e57600080fd5b810190808035906020019092919050505061034a565b604051808273ffffffffffffffffffffffffffffffffffffffff1673ffffffffffffffffffffffffffffffffffffffff16815260200191505060405180910390f35b6101b86004803603602081101561018c57600080fd5b81019080803573ffffffffffffffffffffffffffffffffffffffff169060200190929190505050610401565b6040518082815260200191505060405180910390f35b6101d661044a565b6040518080602001828103825283818151815260200191508051906020019080838360005b838110156102165780820151818401526020810190506101fb565b50505050905090810190601f1680156102435780820380516001836020036101000a031916815260200191505b509250505060405180910390f35b61029d6004803603604081101561026757600080fd5b81019080803573ffffffffffffffffffffffffffffffffffffffff169060200190929190803590602001909291905050506104ec565b005b606060018054600181600116156101000203166002900480601f0160208091040260200160405190810160405280929190818152602001828054600181600116156101000203166002900480156103375780601f1061030c57610100808354040283529160200191610337565b820191906000526020600020905b81548152906001019060200180831161031a57829003601f168201915b5050505050905090565b60008054905090565b600060048054905082106103c6576040517f08c379a00000000000000000000000000000000000000000000000000000000081526004018080602001828103825260178152602001807f746f6b656e496420646f6573206e6f742065786973742100000000000000000081525060200191505060405180910390fd5b6005600083815260200190815260200160002060009054906101000a900473ffffffffffffffffffffffffffffffffffffffff169050919050565b6000600360008373ffffffffffffffffffffffffffffffffffffffff1673ffffffffffffffffffffffffffffffffffffffff168152602001908152602001600020549050919050565b606060028054600181600116156101000203166002900480601f0160208091040260200160405190810160405280929190818152602001828054600181600116156101000203166002900480156104e25780601f106104b7576101008083540402835291602001916104e2565b820191906000526020600020905b8154815290600101906020018083116104c557829003601f168201915b5050505050905090565b600073ffffffffffffffffffffffffffffffffffffffff168273ffffffffffffffffffffffffffffffffffffffff16141561058f576040517f08c379a000000000000000000000000000000000000000000000000000000000815260040180806020018281038252601b8152602001807f526563697069656e7427732061646472657373206973207a65726f000000000081525060200191505060405180910390fd5b3073ffffffffffffffffffffffffffffffffffffffff168273ffffffffffffffffffffffffffffffffffffffff161415610614576040517f08c379a000000000000000000000000000000000000000000000000000000000815260040180806020018281038252602b815260200180610cfb602b913960400191505060405180910390fd5b3373ffffffffffffffffffffffffffffffffffffffff166005600083815260200190815260200160002060009054906101000a900473ffffffffffffffffffffffffffffffffffffffff1673ffffffffffffffffffffffffffffffffffffffff16146106cb576040517f08c379a0000000000000000000000000000000000000000000000000000000008152600401808060200182810382526025815260200180610d266025913960400191505060405180910390fd5b6000600360003373ffffffffffffffffffffffffffffffffffffffff1673ffffffffffffffffffffffffffffffffffffffff1681526020019081526020016000205490506000600360008573ffffffffffffffffffffffffffffffffffffffff1673ffffffffffffffffffffffffffffffffffffffff168152602001908152602001600020549050600082116107ac576040517f08c379a0000000000000000000000000000000000000000000000000000000008152600401808060200182810382526046815260200180610cb56046913960600191505060405180910390fd5b6000811015610806576040517f08c379a0000000000000000000000000000000000000000000000000000000008152600401808060200182810382526044815260200180610c716044913960600191505060405180910390fd5b6108596001600360003373ffffffffffffffffffffffffffffffffffffffff1673ffffffffffffffffffffffffffffffffffffffff16815260200190815260200160002054610ade90919063ffffffff16565b600360003373ffffffffffffffffffffffffffffffffffffffff1673ffffffffffffffffffffffffffffffffffffffff168152602001908152602001600020819055506108ef6001600360008773ffffffffffffffffffffffffffffffffffffffff1673ffffffffffffffffffffffffffffffffffffffff16815260200190815260200160002054610b2890919063ffffffff16565b600360008673ffffffffffffffffffffffffffffffffffffffff1673ffffffffffffffffffffffffffffffffffffffff16815260200190815260200160002081905550836005600085815260200190815260200160002060006101000a81548173ffffffffffffffffffffffffffffffffffffffff021916908373ffffffffffffffffffffffffffffffffffffffff1602179055503373ffffffffffffffffffffffffffffffffffffffff166005600085815260200190815260200160002060009054906101000a900473ffffffffffffffffffffffffffffffffffffffff1673ffffffffffffffffffffffffffffffffffffffff1614156109ed57fe5b600360003373ffffffffffffffffffffffffffffffffffffffff1673ffffffffffffffffffffffffffffffffffffffff168152602001908152602001600020548211610a3557fe5b600360008573ffffffffffffffffffffffffffffffffffffffff1673ffffffffffffffffffffffffffffffffffffffff168152602001908152602001600020548110610a7d57fe5b828473ffffffffffffffffffffffffffffffffffffffff163373ffffffffffffffffffffffffffffffffffffffff167fddf252ad1be2c89b69c2b068fc378daa952ba7f163c4a11628f55a4df523b3ef60405160405180910390a450505050565b6000610b2083836040518060400160405280601e81526020017f536166654d6174683a207375627472616374696f6e206f766572666c6f770000815250610bb0565b905092915050565b600080828401905083811015610ba6576040517f08c379a000000000000000000000000000000000000000000000000000000000815260040180806020018281038252601b8152602001807f536166654d6174683a206164646974696f6e206f766572666c6f77000000000081525060200191505060405180910390fd5b8091505092915050565b6000838311158290610c5d576040517f08c379a00000000000000000000000000000000000000000000000000000000081526004018080602001828103825283818151815260200191508051906020019080838360005b83811015610c22578082015181840152602081019050610c07565b50505050905090810190601f168015610c4f5780820380516001836020036101000a031916815260200191505b509250505060405180910390fd5b506000838503905080915050939250505056fe496e7465726e616c206572726f72202d205265636569766572277320746f6b656e20636f756e74206265666f7265207472616e73666572206973206e6567617469766521496e7465726e616c206572726f72202d2053656e646572277320746f6b656e20636f756e74206265666f7265207472616e73666572206973207a65726f206f72206c65737321526563697069656e74277320616464726573732069732074686520636f6e7472616374206164647265737353656e646572206973206e6f7420746865206f776e6572206f66207468697320746f6b656ea265627a7a72315820db1283da7d100f2ed1bded255c5a1c5ab542687684ba979a1045c2e4d3e4063264736f6c634300050c0032",
  "source": "pragma solidity 0.5.12;\n\nimport \"./IERC721.sol\";\nimport \"./Safemath.sol\";\n\ncontract Kittycontract is IERC721 {\n\n    using SafeMath for uint256;\n\n    uint256 private _totalSupply;\n    string private _tokenName;\n    string private _tokenSymbol;\n\n    mapping (address => uint256) private _ownersTokenCount;\n\n    //Strut below is not used yet but should struct (and array) be private? If so, how?\n    struct KittyToken {\n         // Add unique token attributes here\n         uint256 dna;\n    }\n    KittyToken[] kitties;  \n\n    mapping (uint256 => address) private _kittyOwners;\n\n\n    constructor (string memory name, string memory symbol, uint256 supply) public {\n        _tokenName = name;\n        _tokenSymbol = symbol;\n        _totalSupply = supply;\n    }\n\n    function balanceOf(address owner) external view returns (uint256 balance){\n        return _ownersTokenCount[owner];\n    }\n\n    function totalSupply() external view returns (uint256 total){\n        return _totalSupply;\n    }\n\n    function name() external view returns (string memory tokenName){\n        return _tokenName;\n    }\n\n    function symbol() external view returns (string memory tokenSymbol){\n        return _tokenSymbol;\n    }\n\n    function ownerOf(uint256 tokenId) external view returns (address owner){\n        require(tokenId < kitties.length, \"tokenId does not exist!\");\n        return _kittyOwners[tokenId];\n    }\n\n    function transfer(address to, uint256 tokenId) external{\n        // Checks\n        require(to != address(0), \"Recipient's address is zero\");\n        require(to != address(this), \"Recipient's address is the contract address\");\n        require(_kittyOwners[tokenId] == msg.sender, \"Sender is not the owner of this token\");\n\n        uint256 sendersInitialTokens = _ownersTokenCount[msg.sender];\n        uint256 receiversInitialTokens = _ownersTokenCount[to];\n        require(sendersInitialTokens > 0, \"Internal error - Sender's token count before transfer is zero or less!\");\n        require(receiversInitialTokens >= 0, \"Internal error - Receiver's token count before transfer is negative!\");\n\n        // Effects - Transfer token\n        _ownersTokenCount[msg.sender] = _ownersTokenCount[msg.sender].sub(1);\n        _ownersTokenCount[to] = _ownersTokenCount[to].add(1);\n        _kittyOwners[tokenId] = to;\n\n        assert(_kittyOwners[tokenId] != msg.sender);\n        assert(sendersInitialTokens > _ownersTokenCount[msg.sender]);\n        assert(receiversInitialTokens < _ownersTokenCount[to]);\n\n        emit Transfer(msg.sender, to, tokenId);\n    }\n\n}",
  "sourcePath": "/Users/Mark/Documents/BlockChain/IvanOnTechAcademy/Bootcamp/CryptoKitties-Clone/contracts/Kittycontract.sol",
  "compiler": {
    "name": "solc",
    "version": "0.5.12+commit.7709ece9.Emscripten.clang"
  },
  "schemaVersion": "3.2.0",
  "updatedAt": "2021-02-24T12:53:42.985Z",
  "devdoc": {
    "methods": {}
  },
  "userdoc": {
    "methods": {}
  }
}