{
  "contractName": "KittyMarketPlace",
  "abi": [
    {
      "inputs": [
        {
          "internalType": "address",
          "name": "kittyContractAddress",
          "type": "address"
        }
      ],
      "payable": false,
      "stateMutability": "nonpayable",
      "type": "constructor"
    },
    {
      "anonymous": false,
      "inputs": [
        {
          "indexed": false,
          "internalType": "string",
          "name": "TxType",
          "type": "string"
        },
        {
          "indexed": false,
          "internalType": "address",
          "name": "owner",
          "type": "address"
        },
        {
          "indexed": false,
          "internalType": "uint256",
          "name": "tokenId",
          "type": "uint256"
        }
      ],
      "name": "MarketTransaction",
      "type": "event"
    },
    {
      "constant": true,
      "inputs": [],
      "name": "owner",
      "outputs": [
        {
          "internalType": "address",
          "name": "",
          "type": "address"
        }
      ],
      "payable": false,
      "stateMutability": "view",
      "type": "function"
    },
    {
      "constant": false,
      "inputs": [
        {
          "internalType": "address",
          "name": "kittyContractAddress",
          "type": "address"
        }
      ],
      "name": "setKittyContract",
      "outputs": [],
      "payable": false,
      "stateMutability": "nonpayable",
      "type": "function"
    },
    {
      "constant": true,
      "inputs": [
        {
          "internalType": "uint256",
          "name": "tokenId",
          "type": "uint256"
        }
      ],
      "name": "getOffer",
      "outputs": [
        {
          "internalType": "address",
          "name": "",
          "type": "address"
        },
        {
          "internalType": "uint256",
          "name": "",
          "type": "uint256"
        },
        {
          "internalType": "uint256",
          "name": "",
          "type": "uint256"
        },
        {
          "internalType": "uint256",
          "name": "",
          "type": "uint256"
        },
        {
          "internalType": "bool",
          "name": "",
          "type": "bool"
        }
      ],
      "payable": false,
      "stateMutability": "view",
      "type": "function"
    },
    {
      "constant": true,
      "inputs": [],
      "name": "getAllTokenOnSale",
      "outputs": [
        {
          "internalType": "uint256[]",
          "name": "",
          "type": "uint256[]"
        }
      ],
      "payable": false,
      "stateMutability": "view",
      "type": "function"
    },
    {
      "constant": false,
      "inputs": [
        {
          "internalType": "uint256",
          "name": "price",
          "type": "uint256"
        },
        {
          "internalType": "uint256",
          "name": "tokenId",
          "type": "uint256"
        }
      ],
      "name": "setOffer",
      "outputs": [],
      "payable": false,
      "stateMutability": "nonpayable",
      "type": "function"
    },
    {
      "constant": false,
      "inputs": [
        {
          "internalType": "uint256",
          "name": "tokenId",
          "type": "uint256"
        }
      ],
      "name": "removeOffer",
      "outputs": [],
      "payable": false,
      "stateMutability": "nonpayable",
      "type": "function"
    },
    {
      "constant": false,
      "inputs": [
        {
          "internalType": "uint256",
          "name": "tokenId",
          "type": "uint256"
        }
      ],
      "name": "buyKitty",
      "outputs": [],
      "payable": true,
      "stateMutability": "payable",
      "type": "function"
    }
  ],
  "bytecode": "0x608060405234801561001057600080fd5b506040516119263803806119268339818101604052602081101561003357600080fd5b8101908080519060200190929190505050336000806101000a81548173ffffffffffffffffffffffffffffffffffffffff021916908373ffffffffffffffffffffffffffffffffffffffff1602179055506100938161009960201b60201c565b50610136565b6000809054906101000a900473ffffffffffffffffffffffffffffffffffffffff1673ffffffffffffffffffffffffffffffffffffffff163373ffffffffffffffffffffffffffffffffffffffff16146100f257600080fd5b80600160006101000a81548173ffffffffffffffffffffffffffffffffffffffff021916908373ffffffffffffffffffffffffffffffffffffffff16021790555050565b6117e1806101456000396000f3fe6080604052600436106100705760003560e01c80638da5cb5b1161004e5780638da5cb5b146101cd578063941b055b1461022457806395a0f9c714610269578063ae5310f6146102a457610070565b80634579268a1461007557806349b3709f1461011057806362b7f94e1461017c575b600080fd5b34801561008157600080fd5b506100ae6004803603602081101561009857600080fd5b81019080803590602001909291905050506102d2565b604051808673ffffffffffffffffffffffffffffffffffffffff1673ffffffffffffffffffffffffffffffffffffffff168152602001858152602001848152602001838152602001821515151581526020019550505050505060405180910390f35b34801561011c57600080fd5b50610125610390565b6040518080602001828103825283818151815260200191508051906020019060200280838360005b8381101561016857808201518184015260208101905061014d565b505050509050019250505060405180910390f35b34801561018857600080fd5b506101cb6004803603602081101561019f57600080fd5b81019080803573ffffffffffffffffffffffffffffffffffffffff169060200190929190505050610511565b005b3480156101d957600080fd5b506101e26105ae565b604051808273ffffffffffffffffffffffffffffffffffffffff1673ffffffffffffffffffffffffffffffffffffffff16815260200191505060405180910390f35b34801561023057600080fd5b506102676004803603604081101561024757600080fd5b8101908080359060200190929190803590602001909291905050506105d3565b005b34801561027557600080fd5b506102a26004803603602081101561028c57600080fd5b8101908080359060200190929190505050610b69565b005b6102d0600480360360208110156102ba57600080fd5b8101908080359060200190929190505050610d78565b005b60008060008060006003600087815260200190815260200160002060000160009054906101000a900473ffffffffffffffffffffffffffffffffffffffff1660036000888152602001908152602001600020600101546003600089815260200190815260200160002060020154600360008a815260200190815260200160002060030154600360008b815260200190815260200160002060040160009054906101000a900460ff168494509450945094509450945091939590929450565b6060600060028054905090506060816040519080825280602002602001820160405280156103cd5781602001602082028038833980820191505090505b50905060008060009050600091505b838210156104775760011515600283815481106103f557fe5b906000526020600020906005020160040160009054906101000a900460ff161515141561046a576002828154811061042957fe5b90600052602060002090600502016003015483828151811061044757fe5b6020026020010181815250506104676001826110d990919063ffffffff16565b90505b81806001019250506103dc565b8381141561048b578294505050505061050e565b6060816040519080825280602002602001820160405280156104bc5781602001602082028038833980820191505090505b509050600092505b81831015610505578383815181106104d857fe5b60200260200101518184815181106104ec57fe5b60200260200101818152505082806001019350506104c4565b80955050505050505b90565b6000809054906101000a900473ffffffffffffffffffffffffffffffffffffffff1673ffffffffffffffffffffffffffffffffffffffff163373ffffffffffffffffffffffffffffffffffffffff161461056a57600080fd5b80600160006101000a81548173ffffffffffffffffffffffffffffffffffffffff021916908373ffffffffffffffffffffffffffffffffffffffff16021790555050565b6000809054906101000a900473ffffffffffffffffffffffffffffffffffffffff1681565b6105dd3382611161565b61064f576040517f08c379a000000000000000000000000000000000000000000000000000000000815260040180806020018281038252601b8152602001807f4f6e6c79206f776e65722063616e206f6666657220746f6b656e21000000000081525060200191505060405180910390fd5b6000151561065c82611247565b1515146106d1576040517f08c379a00000000000000000000000000000000000000000000000000000000081526004018080602001828103825260188152602001807f416e206f6666657220616c72656164792065786973747321000000000000000081525060200191505060405180910390fd5b600160009054906101000a900473ffffffffffffffffffffffffffffffffffffffff1673ffffffffffffffffffffffffffffffffffffffff1663e985e9c5600160009054906101000a900473ffffffffffffffffffffffffffffffffffffffff1673ffffffffffffffffffffffffffffffffffffffff16636352211e846040518263ffffffff1660e01b81526004018082815260200191505060206040518083038186803b15801561078257600080fd5b505afa158015610796573d6000803e3d6000fd5b505050506040513d60208110156107ac57600080fd5b8101908080519060200190929190505050336040518363ffffffff1660e01b8152600401808373ffffffffffffffffffffffffffffffffffffffff1673ffffffffffffffffffffffffffffffffffffffff1681526020018273ffffffffffffffffffffffffffffffffffffffff1673ffffffffffffffffffffffffffffffffffffffff1681526020019250505060206040518083038186803b15801561085157600080fd5b505afa158015610865573d6000803e3d6000fd5b505050506040513d602081101561087b57600080fd5b81019080805190602001909291905050506108fe576040517f08c379a00000000000000000000000000000000000000000000000000000000081526004018080602001828103825260208152602001807f4d61726b6574706c616365206d75737420626520616e206f70657261746f722181525060200191505060405180910390fd5b610906611765565b6040518060a001604052803373ffffffffffffffffffffffffffffffffffffffff16815260200184815260200160028054905081526020018381526020016001151581525090506002819080600181540180825580915050906001820390600052602060002090600502016000909192909190915060008201518160000160006101000a81548173ffffffffffffffffffffffffffffffffffffffff021916908373ffffffffffffffffffffffffffffffffffffffff16021790555060208201518160010155604082015181600201556060820151816003015560808201518160040160006101000a81548160ff021916908315150217905550505050806003600084815260200190815260200160002060008201518160000160006101000a81548173ffffffffffffffffffffffffffffffffffffffff021916908373ffffffffffffffffffffffffffffffffffffffff16021790555060208201518160010155604082015181600201556060820151816003015560808201518160040160006101000a81548160ff0219169083151502179055509050507fd99e4fad9ad6313b1feb588fa8e605e3a9873172f2024330c35dd2b4041a43866000809054906101000a900473ffffffffffffffffffffffffffffffffffffffff168360405180806020018473ffffffffffffffffffffffffffffffffffffffff1673ffffffffffffffffffffffffffffffffffffffff1681526020018381526020018281038252600c8152602001807f437265617465206f666665720000000000000000000000000000000000000000815250602001935050505060405180910390a1505050565b60011515610b7682611247565b151514610beb576040517f08c379a000000000000000000000000000000000000000000000000000000000815260040180806020018281038252601b8152602001807f416374697665206f6666657220646f65736e277420657869737421000000000081525060200191505060405180910390fd5b60006003600083815260200190815260200160002060000160009054906101000a900473ffffffffffffffffffffffffffffffffffffffff1690508073ffffffffffffffffffffffffffffffffffffffff163373ffffffffffffffffffffffffffffffffffffffff1614610cc7576040517f08c379a000000000000000000000000000000000000000000000000000000000815260040180806020018281038252601d8152602001807f4f6e6c792073656c6c65722063616e2072656d6f7665206f666665722100000081525060200191505060405180910390fd5b610cd08261127b565b7fd99e4fad9ad6313b1feb588fa8e605e3a9873172f2024330c35dd2b4041a4386818360405180806020018473ffffffffffffffffffffffffffffffffffffffff1673ffffffffffffffffffffffffffffffffffffffff1681526020018381526020018281038252600c8152602001807f52656d6f7665206f666665720000000000000000000000000000000000000000815250602001935050505060405180910390a15050565b610d80611765565b600360008381526020019081526020016000206040518060a00160405290816000820160009054906101000a900473ffffffffffffffffffffffffffffffffffffffff1673ffffffffffffffffffffffffffffffffffffffff1673ffffffffffffffffffffffffffffffffffffffff1681526020016001820154815260200160028201548152602001600382015481526020016004820160009054906101000a900460ff161515151581525050905060011515610e3c83611247565b151514610eb1576040517f08c379a000000000000000000000000000000000000000000000000000000000815260040180806020018281038252601b8152602001807f416374697665206f6666657220646f65736e277420657869737421000000000081525060200191505060405180910390fd5b8060200151341015610f2b576040517f08c379a000000000000000000000000000000000000000000000000000000000815260040180806020018281038252601e8152602001807f546f6b656e207075726368617365207072696365206e6f742073656e7421000081525060200191505060405180910390fd5b610f348261127b565b600160009054906101000a900473ffffffffffffffffffffffffffffffffffffffff1673ffffffffffffffffffffffffffffffffffffffff166342842e0e826000015133856040518463ffffffff1660e01b8152600401808473ffffffffffffffffffffffffffffffffffffffff1673ffffffffffffffffffffffffffffffffffffffff1681526020018373ffffffffffffffffffffffffffffffffffffffff1673ffffffffffffffffffffffffffffffffffffffff1681526020018281526020019350505050600060405180830381600087803b15801561101557600080fd5b505af1158015611029573d6000803e3d6000fd5b505050507fd99e4fad9ad6313b1feb588fa8e605e3a9873172f2024330c35dd2b4041a438681600001518360405180806020018473ffffffffffffffffffffffffffffffffffffffff1673ffffffffffffffffffffffffffffffffffffffff168152602001838152602001828103825260038152602001807f4275790000000000000000000000000000000000000000000000000000000000815250602001935050505060405180910390a15050565b600080828401905083811015611157576040517f08c379a000000000000000000000000000000000000000000000000000000000815260040180806020018281038252601b8152602001807f536166654d6174683a206164646974696f6e206f766572666c6f77000000000081525060200191505060405180910390fd5b8091505092915050565b60008273ffffffffffffffffffffffffffffffffffffffff16600160009054906101000a900473ffffffffffffffffffffffffffffffffffffffff1673ffffffffffffffffffffffffffffffffffffffff16636352211e846040518263ffffffff1660e01b81526004018082815260200191505060206040518083038186803b1580156111ed57600080fd5b505afa158015611201573d6000803e3d6000fd5b505050506040513d602081101561121757600080fd5b810190808051906020019092919050505073ffffffffffffffffffffffffffffffffffffffff1614905092915050565b6000600115156003600084815260200190815260200160002060040160009054906101000a900460ff161515149050919050565b611283611765565b600360008381526020019081526020016000206040518060a00160405290816000820160009054906101000a900473ffffffffffffffffffffffffffffffffffffffff1673ffffffffffffffffffffffffffffffffffffffff1673ffffffffffffffffffffffffffffffffffffffff1681526020016001820154815260200160028201548152602001600382015481526020016004820160009054906101000a900460ff1615151515815250509050600061134d600160028054905061165b90919063ffffffff16565b9050808260400151101561157257611363611765565b6002828154811061137057fe5b90600052602060002090600502016040518060a00160405290816000820160009054906101000a900473ffffffffffffffffffffffffffffffffffffffff1673ffffffffffffffffffffffffffffffffffffffff1673ffffffffffffffffffffffffffffffffffffffff1681526020016001820154815260200160028201548152602001600382015481526020016004820160009054906101000a900460ff1615151515815250509050826040015181604001818152505080600284604001518154811061143a57fe5b906000526020600020906005020160008201518160000160006101000a81548173ffffffffffffffffffffffffffffffffffffffff021916908373ffffffffffffffffffffffffffffffffffffffff16021790555060208201518160010155604082015181600201556060820151816003015560808201518160040160006101000a81548160ff02191690831515021790555090505080600360008360600151815260200190815260200160002060008201518160000160006101000a81548173ffffffffffffffffffffffffffffffffffffffff021916908373ffffffffffffffffffffffffffffffffffffffff16021790555060208201518160010155604082015181600201556060820151816003015560808201518160040160006101000a81548160ff021916908315150217905550905050505b600280548061157d57fe5b6001900381819060005260206000209060050201600080820160006101000a81549073ffffffffffffffffffffffffffffffffffffffff02191690556001820160009055600282016000905560038201600090556004820160006101000a81549060ff0219169055505090556003600083606001518152602001908152602001600020600080820160006101000a81549073ffffffffffffffffffffffffffffffffffffffff02191690556001820160009055600282016000905560038201600090556004820160006101000a81549060ff02191690555050505050565b600061169d83836040518060400160405280601e81526020017f536166654d6174683a207375627472616374696f6e206f766572666c6f7700008152506116a5565b905092915050565b6000838311158290611752576040517f08c379a00000000000000000000000000000000000000000000000000000000081526004018080602001828103825283818151815260200191508051906020019080838360005b838110156117175780820151818401526020810190506116fc565b50505050905090810190601f1680156117445780820380516001836020036101000a031916815260200191505b509250505060405180910390fd5b5060008385039050809150509392505050565b6040518060a00160405280600073ffffffffffffffffffffffffffffffffffffffff168152602001600081526020016000815260200160008152602001600015158152509056fea265627a7a7231582057fa6c241e722a0ed1ea64b4373bd7b8057f29154fc3b96cca32729ca731bdd464736f6c634300050c0032",
  "source": "pragma solidity 0.5.12;\n\nimport \"./IKittyMarketplace.sol\";\nimport \"./KittyContract.sol\";\nimport \"./Ownable.sol\";\n\nimport \"./Safemath.sol\";\n// import \"./ArrayUtils.sol\";\n\ncontract KittyMarketPlace is Ownable, IKittyMarketPlace {\n    using SafeMath for uint256;\n    // using ArrayUtils for uint256[];\n\n    KittyContract private _kittyContract;\n\n    struct Offer {\n        address payable seller;\n        uint256 price;\n        uint256 index;\n        uint256 tokenId;\n        bool active;\n    }\n\n    Offer[] private _offers;\n    mapping(uint256 => Offer) private _tokenIdToOffer;\n\n\n// Public & external functions\n\n    constructor(address kittyContractAddress) public {\n        setKittyContract(kittyContractAddress);\n    }\n\n    /**\n    * Set the current KittyContract address and initialize the instance of Kittycontract.\n    * Requirement: Only the contract owner can call.\n     */\n    function setKittyContract(address kittyContractAddress)\n        public\n        onlyOwner\n    {\n        _kittyContract = KittyContract(kittyContractAddress);\n    }\n\n    /**\n    * Get the details about a offer for _tokenId. Throws an error if there is no active offer for _tokenId.\n     */\n    function getOffer(uint256 tokenId)\n        external\n        view\n        returns(address, uint256, uint256, uint256, bool)\n    {\n        //Offer storage theOffer = _tokenIdToOffer[tokenId];\n        //require(theOffer != Offer(0), \"Token is not on offer for sale!\");\n        // require(_tokenIdToOffer[tokenId] != Offer(0), \"Token is not on offer for sale!\");\n\n        // If attempt to access non existance offer will throw an error !?\n        return (\n            _tokenIdToOffer[tokenId].seller,\n            _tokenIdToOffer[tokenId].price,\n            _tokenIdToOffer[tokenId].index,\n            _tokenIdToOffer[tokenId].tokenId,\n            _tokenIdToOffer[tokenId].active\n        );\n    }\n\n    /**\n    * Get all tokenId's that are currently for sale. Returns an empty arror if none exist.\n     */\n    function getAllTokenOnSale() external view  returns(uint256[] memory) {\n\n        // uint256[] storage listOfOffers = new uint256[];\n        uint256 totalOffers = _offers.length;\n        uint256[] memory maxListOfferIds = new uint256[](totalOffers);\n\n        uint256 i;\n        uint256 activeOffers = 0;\n        for (i = 0; i < totalOffers; i++){\n            if (_offers[i].active == true) {\n                // listOfOffers.push(_offers[i].tokenId);\n                maxListOfferIds[activeOffers] = _offers[i].tokenId;\n                activeOffers = activeOffers.add(1);\n            }\n        }\n\n        if (activeOffers == totalOffers) return maxListOfferIds;\n\n        // Create array of correct size\n        uint256[] memory activeOfferIds = new uint256[](activeOffers);\n        for (i = 0; i < activeOffers; i++) {\n            activeOfferIds[i] = maxListOfferIds[i];\n        }\n        return activeOfferIds;\n    }\n\n    /**\n    * Creates a new offer for _tokenId for the price _price.\n    * Emits the MarketTransaction event with txType \"Create offer\"\n    * Requirement: Only the owner of _tokenId can create an offer.\n    * Requirement: There can only be one active offer for a token at a time.\n    * Requirement: Marketplace contract (this) needs to be an approved operator when the offer is created.\n     */\n    function setOffer(uint256 price, uint256 tokenId) external {\n\n        // address owner = _kittyContract.ownerOf(tokenId);\n        // require(msg.sender == owner, \"Only owner can offer token!\");\n        require(_isKittyOwner(msg.sender, tokenId), \"Only owner can offer token!\");\n        require(_isOnOffer(tokenId) == false, \"An offer already exists!\");\n        require(\n            _kittyContract.isApprovedForAll(\n                _kittyContract.ownerOf(tokenId),\n                msg.sender\n            ),\n            \"Marketplace must be an operator!\"\n        );\n\n        // address payable seller = address(uint160(msg.sender));\n\n        Offer memory newOffer = Offer(\n            {\n                seller: address(uint160(msg.sender)),\n                price: price,\n                index: _offers.length,\n                tokenId: tokenId,\n                active: true\n            }\n        );\n        _offers.push(newOffer);\n        _tokenIdToOffer[tokenId] = newOffer;\n\n        emit MarketTransaction(\"Create offer\", owner, tokenId);\n    }\n\n    /**\n    * Removes an existing offer.\n    * Emits the MarketTransaction event with txType \"Remove offer\"\n    * Requirement: Only the seller of _tokenId can remove an offer.\n     */\n    function removeOffer(uint256 tokenId) external {\n\n        require(_isOnOffer(tokenId) == true, \"Active offer doesn't exist!\");\n        address seller = _tokenIdToOffer[tokenId].seller;\n        require(msg.sender == seller, \"Only seller can remove offer!\");\n\n        _removeOffer(tokenId);\n\n        emit MarketTransaction(\"Remove offer\", seller, tokenId);\n    }\n\n    /**\n    * Executes the purchase of _tokenId.\n    * Sends the funds to the seller and transfers the token using transferFrom in Kittycontract.\n    * Emits the MarketTransaction event with txType \"Buy\".\n    * Requirement: The msg.value needs to equal the price of _tokenId\n    * Requirement: There must be an active offer for _tokenId\n     */\n    function buyKitty(uint256 tokenId) external payable {\n        Offer memory tokenOffer = _tokenIdToOffer[tokenId];\n        require(_isOnOffer(tokenId) == true, \"Active offer doesn't exist!\");\n        require(msg.value >= tokenOffer.price, \"Token purchase price not sent!\");\n\n        _removeOffer(tokenId);\n\n        _kittyContract.safeTransferFrom(tokenOffer.seller, msg.sender, tokenId);\n\n        emit MarketTransaction(\"Buy\", tokenOffer.seller, tokenId);\n    }\n\n\n// Internal & private functions\n\n    function _isKittyOwner(address claimant,uint256 tokenId)\n        internal\n        view\n        returns (bool)\n    {\n        return(_kittyContract.ownerOf(tokenId) == claimant);\n    }\n\n\n    function _isOnOffer(uint256 tokenId)\n        internal\n        view\n        returns (bool)\n    {\n        return(_tokenIdToOffer[tokenId].active == true);\n    }\n\n\n    function _removeOffer(uint256 tokenId) internal {\n        Offer memory toBeRemoved = _tokenIdToOffer[tokenId];\n\n        //delete _tokenIdToOffer[tokenId];\n        // delete _offers[toBeRemoved.index];  // This leaves an empty element in the array ...\n\n        // Alternative overwrite the deleted offer with the last offer in the array (so that array doesn't contain empty offer element)\n        // Note: This requires the last offer in the array (that is moved) to have it's offer index updated to new array position,\n        // and likewise the mapping's same offer record will need its index field updated.\n\n        uint256 lastIndex = _offers.length.sub(1);\n        if (toBeRemoved.index < lastIndex) { // not the last offer in the array\n            // Move last offer (in array) to overwrite the offer to be removed\n            Offer memory lastOffer = _offers[lastIndex];\n            lastOffer.index = toBeRemoved.index;       // poisition to which last offer record will be moved\n            _offers[toBeRemoved.index] = lastOffer;    // overwrite offer to be removed (with last offer record) \n            _tokenIdToOffer[lastOffer.tokenId] = lastOffer; // Update record in the token mapping \n        }\n        _offers.pop();   // remove last offer record (now redundant as moved, or is the offer to be removed)\n        delete _tokenIdToOffer[toBeRemoved.tokenId];   \n    }\n\n}\n\n",
  "sourcePath": "/Users/Mark/Documents/BlockChain/IvanOnTechAcademy/Bootcamp/CryptoKitties-Clone/contracts/KittyMarketPlace.sol",
  "compiler": {
    "name": "solc",
    "version": "0.5.12+commit.7709ece9.Emscripten.clang"
  },
  "schemaVersion": "3.2.0",
  "updatedAt": "2021-04-05T14:29:28.293Z",
  "devdoc": {
    "methods": {}
  },
  "userdoc": {
    "methods": {
      "buyKitty(uint256)": {
        "notice": "Executes the purchase of _tokenId. Sends the funds to the seller and transfers the token using transferFrom in Kittycontract. Emits the MarketTransaction event with txType \"Buy\". Requirement: The msg.value needs to equal the price of _tokenId Requirement: There must be an active offer for _tokenId"
      },
      "getAllTokenOnSale()": {
        "notice": "Get all tokenId's that are currently for sale. Returns an empty arror if none exist."
      },
      "getOffer(uint256)": {
        "notice": "Get the details about a offer for _tokenId. Throws an error if there is no active offer for _tokenId."
      },
      "removeOffer(uint256)": {
        "notice": "Removes an existing offer. Emits the MarketTransaction event with txType \"Remove offer\" Requirement: Only the seller of _tokenId can remove an offer."
      },
      "setKittyContract(address)": {
        "notice": "Set the current KittyContract address and initialize the instance of Kittycontract. Requirement: Only the contract owner can call."
      },
      "setOffer(uint256,uint256)": {
        "notice": "Creates a new offer for _tokenId for the price _price. Emits the MarketTransaction event with txType \"Create offer\" Requirement: Only the owner of _tokenId can create an offer. Requirement: There can only be one active offer for a token at a time. Requirement: Marketplace contract (this) needs to be an approved operator when the offer is created."
      }
    }
  }
}