{
  "contractName": "KittyMarketplace",
  "abi": [
    {
      "inputs": [
        {
          "internalType": "address",
          "name": "kittyContractAddress",
          "type": "address"
        }
      ],
      "payable": false,
      "stateMutability": "nonpayable",
      "type": "constructor"
    },
    {
      "anonymous": false,
      "inputs": [
        {
          "indexed": false,
          "internalType": "string",
          "name": "TxType",
          "type": "string"
        },
        {
          "indexed": false,
          "internalType": "address",
          "name": "owner",
          "type": "address"
        },
        {
          "indexed": false,
          "internalType": "uint256",
          "name": "tokenId",
          "type": "uint256"
        }
      ],
      "name": "MarketTransaction",
      "type": "event"
    },
    {
      "constant": true,
      "inputs": [],
      "name": "getContractOwner",
      "outputs": [
        {
          "internalType": "address",
          "name": "",
          "type": "address"
        }
      ],
      "payable": false,
      "stateMutability": "view",
      "type": "function"
    },
    {
      "constant": false,
      "inputs": [
        {
          "internalType": "address",
          "name": "kittyContractAddress",
          "type": "address"
        }
      ],
      "name": "setKittyContract",
      "outputs": [],
      "payable": false,
      "stateMutability": "nonpayable",
      "type": "function"
    },
    {
      "constant": true,
      "inputs": [
        {
          "internalType": "uint256",
          "name": "idOfToken",
          "type": "uint256"
        }
      ],
      "name": "getOffer",
      "outputs": [
        {
          "internalType": "address",
          "name": "seller",
          "type": "address"
        },
        {
          "internalType": "uint256",
          "name": "price",
          "type": "uint256"
        },
        {
          "internalType": "uint256",
          "name": "index",
          "type": "uint256"
        },
        {
          "internalType": "uint256",
          "name": "tokenId",
          "type": "uint256"
        },
        {
          "internalType": "bool",
          "name": "active",
          "type": "bool"
        }
      ],
      "payable": false,
      "stateMutability": "view",
      "type": "function"
    },
    {
      "constant": true,
      "inputs": [],
      "name": "getAllTokenOnSale",
      "outputs": [
        {
          "internalType": "uint256[]",
          "name": "",
          "type": "uint256[]"
        }
      ],
      "payable": false,
      "stateMutability": "view",
      "type": "function"
    },
    {
      "constant": false,
      "inputs": [
        {
          "internalType": "uint256",
          "name": "price",
          "type": "uint256"
        },
        {
          "internalType": "uint256",
          "name": "tokenId",
          "type": "uint256"
        }
      ],
      "name": "setOffer",
      "outputs": [],
      "payable": false,
      "stateMutability": "nonpayable",
      "type": "function"
    },
    {
      "constant": false,
      "inputs": [
        {
          "internalType": "uint256",
          "name": "tokenId",
          "type": "uint256"
        }
      ],
      "name": "removeOffer",
      "outputs": [],
      "payable": false,
      "stateMutability": "nonpayable",
      "type": "function"
    },
    {
      "constant": false,
      "inputs": [
        {
          "internalType": "uint256",
          "name": "tokenId",
          "type": "uint256"
        }
      ],
      "name": "buyKitty",
      "outputs": [],
      "payable": true,
      "stateMutability": "payable",
      "type": "function"
    },
    {
      "constant": true,
      "inputs": [
        {
          "internalType": "uint256",
          "name": "tokenId",
          "type": "uint256"
        }
      ],
      "name": "isTokenOnSale",
      "outputs": [
        {
          "internalType": "bool",
          "name": "",
          "type": "bool"
        }
      ],
      "payable": false,
      "stateMutability": "view",
      "type": "function"
    }
  ],
  "bytecode": "0x608060405234801561001057600080fd5b50604051611a86380380611a868339818101604052602081101561003357600080fd5b8101908080519060200190929190505050336000806101000a81548173ffffffffffffffffffffffffffffffffffffffff021916908373ffffffffffffffffffffffffffffffffffffffff1602179055506100938161009960201b60201c565b50610136565b6000809054906101000a900473ffffffffffffffffffffffffffffffffffffffff1673ffffffffffffffffffffffffffffffffffffffff163373ffffffffffffffffffffffffffffffffffffffff16146100f257600080fd5b80600160006101000a81548173ffffffffffffffffffffffffffffffffffffffff021916908373ffffffffffffffffffffffffffffffffffffffff16021790555050565b611941806101456000396000f3fe60806040526004361061007b5760003560e01c8063941b055b1161004e578063941b055b1461022f578063951fbdf01461027457806395a0f9c7146102c7578063ae5310f6146103025761007b565b8063442890d5146100805780634579268a146100d757806349b3709f1461017257806362b7f94e146101de575b600080fd5b34801561008c57600080fd5b50610095610330565b604051808273ffffffffffffffffffffffffffffffffffffffff1673ffffffffffffffffffffffffffffffffffffffff16815260200191505060405180910390f35b3480156100e357600080fd5b50610110600480360360208110156100fa57600080fd5b8101908080359060200190929190505050610359565b604051808673ffffffffffffffffffffffffffffffffffffffff1673ffffffffffffffffffffffffffffffffffffffff168152602001858152602001848152602001838152602001821515151581526020019550505050505060405180910390f35b34801561017e57600080fd5b506101876104ec565b6040518080602001828103825283818151815260200191508051906020019060200280838360005b838110156101ca5780820151818401526020810190506101af565b505050509050019250505060405180910390f35b3480156101ea57600080fd5b5061022d6004803603602081101561020157600080fd5b81019080803573ffffffffffffffffffffffffffffffffffffffff16906020019092919050505061066d565b005b34801561023b57600080fd5b506102726004803603604081101561025257600080fd5b81019080803590602001909291908035906020019092919050505061070a565b005b34801561028057600080fd5b506102ad6004803603602081101561029757600080fd5b8101908080359060200190929190505050610bd2565b604051808215151515815260200191505060405180910390f35b3480156102d357600080fd5b50610300600480360360208110156102ea57600080fd5b8101908080359060200190929190505050610be4565b005b61032e6004803603602081101561031857600080fd5b8101908080359060200190929190505050610ded565b005b60008060009054906101000a900473ffffffffffffffffffffffffffffffffffffffff16905090565b60008060008060008073ffffffffffffffffffffffffffffffffffffffff166003600088815260200190815260200160002060000160009054906101000a900473ffffffffffffffffffffffffffffffffffffffff1673ffffffffffffffffffffffffffffffffffffffff161415610439576040517f08c379a00000000000000000000000000000000000000000000000000000000081526004018080602001828103825260138152602001807f546f6b656e206e6f74206f6e206f66666572210000000000000000000000000081525060200191505060405180910390fd5b6003600087815260200190815260200160002060000160009054906101000a900473ffffffffffffffffffffffffffffffffffffffff1694506003600087815260200190815260200160002060010154935060036000878152602001908152602001600020600201549250600360008781526020019081526020016000206003015491506003600087815260200190815260200160002060040160009054906101000a900460ff16905091939590929450565b6060600060028054905090506060816040519080825280602002602001820160405280156105295781602001602082028038833980820191505090505b50905060008060009050600091505b838210156105d357600115156002838154811061055157fe5b906000526020600020906005020160040160009054906101000a900460ff16151514156105c6576002828154811061058557fe5b9060005260206000209060050201600301548382815181106105a357fe5b6020026020010181815250506105c360018261123990919063ffffffff16565b90505b8180600101925050610538565b838114156105e7578294505050505061066a565b6060816040519080825280602002602001820160405280156106185781602001602082028038833980820191505090505b509050600092505b818310156106615783838151811061063457fe5b602002602001015181848151811061064857fe5b6020026020010181815250508280600101935050610620565b80955050505050505b90565b6000809054906101000a900473ffffffffffffffffffffffffffffffffffffffff1673ffffffffffffffffffffffffffffffffffffffff163373ffffffffffffffffffffffffffffffffffffffff16146106c657600080fd5b80600160006101000a81548173ffffffffffffffffffffffffffffffffffffffff021916908373ffffffffffffffffffffffffffffffffffffffff16021790555050565b61071433826112c1565b610786576040517f08c379a000000000000000000000000000000000000000000000000000000000815260040180806020018281038252601e8152602001807f4f6e6c79206f776e65722063616e206f6666657220666f722073616c6521000081525060200191505060405180910390fd5b60001515610793826113a7565b151514610808576040517f08c379a000000000000000000000000000000000000000000000000000000000815260040180806020018281038252601a8152602001807f416c7265616479206f6e206f6666657220666f722073616c652100000000000081525060200191505060405180910390fd5b600160009054906101000a900473ffffffffffffffffffffffffffffffffffffffff1673ffffffffffffffffffffffffffffffffffffffff1663e985e9c533306040518363ffffffff1660e01b8152600401808373ffffffffffffffffffffffffffffffffffffffff1673ffffffffffffffffffffffffffffffffffffffff1681526020018273ffffffffffffffffffffffffffffffffffffffff1673ffffffffffffffffffffffffffffffffffffffff1681526020019250505060206040518083038186803b1580156108db57600080fd5b505afa1580156108ef573d6000803e3d6000fd5b505050506040513d602081101561090557600080fd5b8101908080519060200190929190505050610988576040517f08c379a00000000000000000000000000000000000000000000000000000000081526004018080602001828103825260208152602001807f436f6e7472616374206d7573742062652073616c6573206f70657261746f722181525060200191505060405180910390fd5b6109906118c5565b6040518060a001604052803373ffffffffffffffffffffffffffffffffffffffff16815260200184815260200160028054905081526020018381526020016001151581525090506002819080600181540180825580915050906001820390600052602060002090600502016000909192909190915060008201518160000160006101000a81548173ffffffffffffffffffffffffffffffffffffffff021916908373ffffffffffffffffffffffffffffffffffffffff16021790555060208201518160010155604082015181600201556060820151816003015560808201518160040160006101000a81548160ff021916908315150217905550505050806003600084815260200190815260200160002060008201518160000160006101000a81548173ffffffffffffffffffffffffffffffffffffffff021916908373ffffffffffffffffffffffffffffffffffffffff16021790555060208201518160010155604082015181600201556060820151816003015560808201518160040160006101000a81548160ff0219169083151502179055509050507fd99e4fad9ad6313b1feb588fa8e605e3a9873172f2024330c35dd2b4041a4386338360405180806020018473ffffffffffffffffffffffffffffffffffffffff1673ffffffffffffffffffffffffffffffffffffffff1681526020018381526020018281038252600c8152602001807f437265617465206f666665720000000000000000000000000000000000000000815250602001935050505060405180910390a1505050565b6000610bdd826113a7565b9050919050565b60011515610bf1826113a7565b151514610c66576040517f08c379a000000000000000000000000000000000000000000000000000000000815260040180806020018281038252601b8152602001807f416374697665206f6666657220646f65736e277420657869737421000000000081525060200191505060405180910390fd5b6003600082815260200190815260200160002060000160009054906101000a900473ffffffffffffffffffffffffffffffffffffffff1673ffffffffffffffffffffffffffffffffffffffff163373ffffffffffffffffffffffffffffffffffffffff1614610d3d576040517f08c379a000000000000000000000000000000000000000000000000000000000815260040180806020018281038252601d8152602001807f4f6e6c792073656c6c65722063616e2072656d6f7665206f666665722100000081525060200191505060405180910390fd5b610d46816113db565b7fd99e4fad9ad6313b1feb588fa8e605e3a9873172f2024330c35dd2b4041a4386338260405180806020018473ffffffffffffffffffffffffffffffffffffffff1673ffffffffffffffffffffffffffffffffffffffff1681526020018381526020018281038252600c8152602001807f52656d6f7665206f666665720000000000000000000000000000000000000000815250602001935050505060405180910390a150565b610df56118c5565b600360008381526020019081526020016000206040518060a00160405290816000820160009054906101000a900473ffffffffffffffffffffffffffffffffffffffff1673ffffffffffffffffffffffffffffffffffffffff1673ffffffffffffffffffffffffffffffffffffffff1681526020016001820154815260200160028201548152602001600382015481526020016004820160009054906101000a900460ff161515151581525050905060011515610eb1836113a7565b151514610f26576040517f08c379a000000000000000000000000000000000000000000000000000000000815260040180806020018281038252601b8152602001807f416374697665206f6666657220646f65736e277420657869737421000000000081525060200191505060405180910390fd5b8060200151341015610fa0576040517f08c379a000000000000000000000000000000000000000000000000000000000815260040180806020018281038252601e8152602001807f546f6b656e207075726368617365207072696365206e6f742073656e7421000081525060200191505060405180910390fd5b610fa9826113db565b6000341115611094576000816000015173ffffffffffffffffffffffffffffffffffffffff163460405180600001905060006040518083038185875af1925050503d8060008114611016576040519150601f19603f3d011682016040523d82523d6000602084013e61101b565b606091505b5050905080611092576040517f08c379a00000000000000000000000000000000000000000000000000000000081526004018080602001828103825260198152602001807f5061796d656e7420746f2073656c6c6572206661696c6564210000000000000081525060200191505060405180910390fd5b505b600160009054906101000a900473ffffffffffffffffffffffffffffffffffffffff1673ffffffffffffffffffffffffffffffffffffffff166342842e0e826000015133856040518463ffffffff1660e01b8152600401808473ffffffffffffffffffffffffffffffffffffffff1673ffffffffffffffffffffffffffffffffffffffff1681526020018373ffffffffffffffffffffffffffffffffffffffff1673ffffffffffffffffffffffffffffffffffffffff1681526020018281526020019350505050600060405180830381600087803b15801561117557600080fd5b505af1158015611189573d6000803e3d6000fd5b505050507fd99e4fad9ad6313b1feb588fa8e605e3a9873172f2024330c35dd2b4041a438681600001518360405180806020018473ffffffffffffffffffffffffffffffffffffffff1673ffffffffffffffffffffffffffffffffffffffff168152602001838152602001828103825260038152602001807f4275790000000000000000000000000000000000000000000000000000000000815250602001935050505060405180910390a15050565b6000808284019050838110156112b7576040517f08c379a000000000000000000000000000000000000000000000000000000000815260040180806020018281038252601b8152602001807f536166654d6174683a206164646974696f6e206f766572666c6f77000000000081525060200191505060405180910390fd5b8091505092915050565b60008273ffffffffffffffffffffffffffffffffffffffff16600160009054906101000a900473ffffffffffffffffffffffffffffffffffffffff1673ffffffffffffffffffffffffffffffffffffffff16636352211e846040518263ffffffff1660e01b81526004018082815260200191505060206040518083038186803b15801561134d57600080fd5b505afa158015611361573d6000803e3d6000fd5b505050506040513d602081101561137757600080fd5b810190808051906020019092919050505073ffffffffffffffffffffffffffffffffffffffff1614905092915050565b6000600115156003600084815260200190815260200160002060040160009054906101000a900460ff161515149050919050565b6113e36118c5565b600360008381526020019081526020016000206040518060a00160405290816000820160009054906101000a900473ffffffffffffffffffffffffffffffffffffffff1673ffffffffffffffffffffffffffffffffffffffff1673ffffffffffffffffffffffffffffffffffffffff1681526020016001820154815260200160028201548152602001600382015481526020016004820160009054906101000a900460ff161515151581525050905060006114ad60016002805490506117bb90919063ffffffff16565b905080826040015110156116d2576114c36118c5565b600282815481106114d057fe5b90600052602060002090600502016040518060a00160405290816000820160009054906101000a900473ffffffffffffffffffffffffffffffffffffffff1673ffffffffffffffffffffffffffffffffffffffff1673ffffffffffffffffffffffffffffffffffffffff1681526020016001820154815260200160028201548152602001600382015481526020016004820160009054906101000a900460ff1615151515815250509050826040015181604001818152505080600284604001518154811061159a57fe5b906000526020600020906005020160008201518160000160006101000a81548173ffffffffffffffffffffffffffffffffffffffff021916908373ffffffffffffffffffffffffffffffffffffffff16021790555060208201518160010155604082015181600201556060820151816003015560808201518160040160006101000a81548160ff02191690831515021790555090505080600360008360600151815260200190815260200160002060008201518160000160006101000a81548173ffffffffffffffffffffffffffffffffffffffff021916908373ffffffffffffffffffffffffffffffffffffffff16021790555060208201518160010155604082015181600201556060820151816003015560808201518160040160006101000a81548160ff021916908315150217905550905050505b60028054806116dd57fe5b6001900381819060005260206000209060050201600080820160006101000a81549073ffffffffffffffffffffffffffffffffffffffff02191690556001820160009055600282016000905560038201600090556004820160006101000a81549060ff0219169055505090556003600083606001518152602001908152602001600020600080820160006101000a81549073ffffffffffffffffffffffffffffffffffffffff02191690556001820160009055600282016000905560038201600090556004820160006101000a81549060ff02191690555050505050565b60006117fd83836040518060400160405280601e81526020017f536166654d6174683a207375627472616374696f6e206f766572666c6f770000815250611805565b905092915050565b60008383111582906118b2576040517f08c379a00000000000000000000000000000000000000000000000000000000081526004018080602001828103825283818151815260200191508051906020019080838360005b8381101561187757808201518184015260208101905061185c565b50505050905090810190601f1680156118a45780820380516001836020036101000a031916815260200191505b509250505060405180910390fd5b5060008385039050809150509392505050565b6040518060a00160405280600073ffffffffffffffffffffffffffffffffffffffff168152602001600081526020016000815260200160008152602001600015158152509056fea265627a7a72315820c3df6b9330de86ec3b498f111895fb5170022a52e6ea09de57af5be39baa089864736f6c634300050c0032",
  "source": "pragma solidity 0.5.12;\n\nimport \"./IKittyMarketplace.sol\";\nimport \"./KittyContract.sol\";\nimport \"./Ownable.sol\";\n\nimport \"./Safemath.sol\";\n\ncontract KittyMarketplace is Ownable, IKittyMarketplace {\n    using SafeMath for uint256;\n\n    KittyContract private _kittyContract;\n\n    struct Offer {\n        address payable seller;\n        uint256 price;\n        uint256 index;\n        uint256 tokenId;\n        bool active;\n    }\n\n    Offer[] private _offers;\n    mapping(uint256 => Offer) private _tokenIdToOffer;\n\n\n// Public & external functions\n\n    constructor(address kittyContractAddress) public {\n        setKittyContract(kittyContractAddress);\n    }\n\n\n    function setKittyContract(address kittyContractAddress)\n        public\n        onlyOwner\n    {\n        _kittyContract = KittyContract(kittyContractAddress);\n    }\n\n    /**\n    * Get the details about a offer for _tokenId. Throws an error if there is no active offer for _tokenId.\n     */\n    function getOffer(uint256 idOfToken)\n        external\n        view\n        returns(address seller, uint256 price, uint256 index, uint256 tokenId, bool active)\n    {\n        require(_tokenIdToOffer[idOfToken].seller != address(0), \"Token not on offer!\");\n\n        seller = _tokenIdToOffer[idOfToken].seller;\n        price = _tokenIdToOffer[idOfToken].price;\n        index = _tokenIdToOffer[idOfToken].index;\n        tokenId = _tokenIdToOffer[idOfToken].tokenId;\n        active = _tokenIdToOffer[idOfToken].active;\n    }\n\n    /**\n    * Get all tokenId's that are currently for sale. Returns an empty arror if none exist.\n     */\n    function getAllTokenOnSale() external view  returns(uint256[] memory) {\n\n        uint256 totalOffers = _offers.length;\n        uint256[] memory allOfferIds = new uint256[](totalOffers);\n\n        uint256 i;\n        uint256 activeOffers = 0;\n        for (i = 0; i < totalOffers; i++){\n            if (_offers[i].active == true) {\n                allOfferIds[activeOffers] = _offers[i].tokenId;\n                activeOffers = activeOffers.add(1);\n            }\n        }\n\n        if (activeOffers == totalOffers) return allOfferIds;\n\n        // Create correctly sized smaller array (as some offers weren't active)\n        uint256[] memory activeOfferIds = new uint256[](activeOffers);\n        for (i = 0; i < activeOffers; i++) {\n            activeOfferIds[i] = allOfferIds[i];\n        }\n        return activeOfferIds;\n    }\n\n    /**\n    * Creates a new offer for _tokenId for the price _price.\n    * Emits the MarketTransaction event with txType \"Create offer\"\n    * Requirement: Only the owner of _tokenId can create an offer.\n    * Requirement: There can only be one active offer for a token at a time.\n    * Requirement: Marketplace contract (this) needs to be an approved operator when the offer is created.\n     */\n    function setOffer(uint256 price, uint256 tokenId) external {\n\n        require(_isKittyOwner(msg.sender, tokenId), \"Only owner can offer for sale!\");\n        require(_isOnOffer(tokenId) == false, \"Already on offer for sale!\");\n        require(\n            _kittyContract.isApprovedForAll(msg.sender, address(this)),\n            \"Contract must be sales operator!\"\n        );\n\n        Offer memory newOffer = Offer(\n            {\n                seller: msg.sender,  // address(uint160(msg.sender)),\n                price: price,\n                index: _offers.length,\n                tokenId: tokenId,\n                active: true\n            }\n        );\n        _offers.push(newOffer);\n        _tokenIdToOffer[tokenId] = newOffer;\n\n        emit MarketTransaction(\"Create offer\", msg.sender, tokenId);\n    }\n\n    /**\n    * Removes an existing offer.\n    * Emits the MarketTransaction event with txType \"Remove offer\"\n    * Requirement: Only the seller of _tokenId can remove an offer.\n     */\n    function removeOffer(uint256 tokenId) external {\n\n        require(_isOnOffer(tokenId) == true, \"Active offer doesn't exist!\");\n        require(\n            msg.sender == _tokenIdToOffer[tokenId].seller,\n            \"Only seller can remove offer!\"\n        );\n\n        _removeOffer(tokenId);\n        emit MarketTransaction(\"Remove offer\", msg.sender, tokenId);\n    }\n\n    /**\n    * Executes the purchase of _tokenId.\n    * Sends the funds to the seller and transfers the token using transferFrom in Kittycontract.\n    * Emits the MarketTransaction event with txType \"Buy\".\n    * Requirement: The msg.value needs to equal the price of _tokenId\n    * Requirement: There must be an active offer for _tokenId\n     */\n    function buyKitty(uint256 tokenId) external payable {\n        Offer memory tokenOffer = _tokenIdToOffer[tokenId];\n        require(_isOnOffer(tokenId) == true, \"Active offer doesn't exist!\");\n        require(msg.value >= tokenOffer.price, \"Token purchase price not sent!\");\n\n        _removeOffer(tokenId);\n\n    // *** Make this logic pull instead of push (see consensus best practice guide for smart contract security)\n    // *** Ie. Replace transfer() and instead use call()\n        if (msg.value > 0) {\n            // tokenOffer.seller.transfer(tokenOffer.price);\n\n            // *** Q. Kenneth - Is this correct?? Review / test\n            // This forwards all available gas. Be sure to check the return value!\n            (bool success, ) = tokenOffer.seller.call.value(msg.value)(\"\");\n            require(success, \"Payment to seller failed!\");\n        }\n        _kittyContract.safeTransferFrom(tokenOffer.seller, msg.sender, tokenId);\n\n        emit MarketTransaction(\"Buy\", tokenOffer.seller, tokenId);\n    }\n\n\n    /*\n    ** Checks if given tokenId is on sale or not; returning true if it is, false if not.\n    */\n    function isTokenOnSale(uint256 tokenId) external view returns (bool) {\n        return (_isOnOffer(tokenId));\n    }\n\n\n// Internal & private functions\n\n    function _isKittyOwner(address claimant,uint256 tokenId)\n        internal\n        view\n        returns (bool)\n    {\n        return(_kittyContract.ownerOf(tokenId) == claimant);\n    }\n\n\n    function _isOnOffer(uint256 tokenId)\n        internal\n        view\n        returns (bool)\n    {\n        return(_tokenIdToOffer[tokenId].active == true);\n    }\n\n\n    function _removeOffer(uint256 tokenId) internal {\n        Offer memory toBeRemoved = _tokenIdToOffer[tokenId];\n\n        uint256 lastIndex = _offers.length.sub(1);\n        if (toBeRemoved.index < lastIndex) { // not the last offer in the array\n            // Move last offer record (in array) to overwrite the offer to be removed\n            Offer memory lastOffer = _offers[lastIndex];\n            lastOffer.index = toBeRemoved.index;       // poisition to which last offer record will be moved\n            _offers[toBeRemoved.index] = lastOffer;    // overwrite offer to be removed (with last offer record) \n            _tokenIdToOffer[lastOffer.tokenId] = lastOffer; // Update record in the token mapping \n        }\n        _offers.pop();   // remove last offer record (now redundant as moved, or is the offer to be removed)\n        delete _tokenIdToOffer[toBeRemoved.tokenId];   \n    }\n\n}\n",
  "sourcePath": "/Users/Mark/Documents/BlockChain/IvanOnTechAcademy/Bootcamp/CryptoKitties-Clone/contracts/KittyMarketplace.sol",
  "compiler": {
    "name": "solc",
    "version": "0.5.12+commit.7709ece9.Emscripten.clang"
  },
  "schemaVersion": "3.2.0",
  "updatedAt": "2021-04-19T18:04:57.497Z",
  "networkType": "ethereum",
  "devdoc": {
    "methods": {}
  },
  "userdoc": {
    "methods": {
      "buyKitty(uint256)": {
        "notice": "Executes the purchase of _tokenId. Sends the funds to the seller and transfers the token using transferFrom in Kittycontract. Emits the MarketTransaction event with txType \"Buy\". Requirement: The msg.value needs to equal the price of _tokenId Requirement: There must be an active offer for _tokenId"
      },
      "getAllTokenOnSale()": {
        "notice": "Get all tokenId's that are currently for sale. Returns an empty arror if none exist."
      },
      "getOffer(uint256)": {
        "notice": "Get the details about a offer for _tokenId. Throws an error if there is no active offer for _tokenId."
      },
      "removeOffer(uint256)": {
        "notice": "Removes an existing offer. Emits the MarketTransaction event with txType \"Remove offer\" Requirement: Only the seller of _tokenId can remove an offer."
      },
      "setOffer(uint256,uint256)": {
        "notice": "Creates a new offer for _tokenId for the price _price. Emits the MarketTransaction event with txType \"Create offer\" Requirement: Only the owner of _tokenId can create an offer. Requirement: There can only be one active offer for a token at a time. Requirement: Marketplace contract (this) needs to be an approved operator when the offer is created."
      }
    }
  }
}