{
  "contractName": "KittyContract",
  "abi": [
    {
      "inputs": [
        {
          "internalType": "string",
          "name": "name",
          "type": "string"
        },
        {
          "internalType": "string",
          "name": "symbol",
          "type": "string"
        }
      ],
      "payable": false,
      "stateMutability": "nonpayable",
      "type": "constructor"
    },
    {
      "anonymous": false,
      "inputs": [
        {
          "indexed": true,
          "internalType": "address",
          "name": "owner",
          "type": "address"
        },
        {
          "indexed": true,
          "internalType": "address",
          "name": "approved",
          "type": "address"
        },
        {
          "indexed": true,
          "internalType": "uint256",
          "name": "tokenId",
          "type": "uint256"
        }
      ],
      "name": "Approval",
      "type": "event"
    },
    {
      "anonymous": false,
      "inputs": [
        {
          "indexed": false,
          "internalType": "address",
          "name": "owner",
          "type": "address"
        },
        {
          "indexed": false,
          "internalType": "uint256",
          "name": "kittenId",
          "type": "uint256"
        },
        {
          "indexed": false,
          "internalType": "uint256",
          "name": "mumId",
          "type": "uint256"
        },
        {
          "indexed": false,
          "internalType": "uint256",
          "name": "dadId",
          "type": "uint256"
        },
        {
          "indexed": false,
          "internalType": "uint256",
          "name": "genes",
          "type": "uint256"
        }
      ],
      "name": "Birth",
      "type": "event"
    },
    {
      "anonymous": false,
      "inputs": [
        {
          "indexed": true,
          "internalType": "address",
          "name": "from",
          "type": "address"
        },
        {
          "indexed": true,
          "internalType": "address",
          "name": "to",
          "type": "address"
        },
        {
          "indexed": true,
          "internalType": "uint256",
          "name": "tokenId",
          "type": "uint256"
        }
      ],
      "name": "Transfer",
      "type": "event"
    },
    {
      "constant": true,
      "inputs": [],
      "name": "owner",
      "outputs": [
        {
          "internalType": "address",
          "name": "",
          "type": "address"
        }
      ],
      "payable": false,
      "stateMutability": "view",
      "type": "function"
    },
    {
      "constant": false,
      "inputs": [
        {
          "internalType": "uint256",
          "name": "genes",
          "type": "uint256"
        }
      ],
      "name": "createKittyGen0",
      "outputs": [],
      "payable": false,
      "stateMutability": "nonpayable",
      "type": "function"
    },
    {
      "constant": true,
      "inputs": [
        {
          "internalType": "uint256",
          "name": "kittyId",
          "type": "uint256"
        }
      ],
      "name": "getKitty",
      "outputs": [
        {
          "internalType": "uint256",
          "name": "genes",
          "type": "uint256"
        },
        {
          "internalType": "uint64",
          "name": "birthTime",
          "type": "uint64"
        },
        {
          "internalType": "uint64",
          "name": "mumId",
          "type": "uint64"
        },
        {
          "internalType": "uint64",
          "name": "dadId",
          "type": "uint64"
        },
        {
          "internalType": "uint64",
          "name": "generation",
          "type": "uint64"
        }
      ],
      "payable": false,
      "stateMutability": "view",
      "type": "function"
    },
    {
      "constant": true,
      "inputs": [],
      "name": "getAllYourKittyIds",
      "outputs": [
        {
          "internalType": "uint256[]",
          "name": "",
          "type": "uint256[]"
        }
      ],
      "payable": false,
      "stateMutability": "view",
      "type": "function"
    },
    {
      "constant": true,
      "inputs": [
        {
          "internalType": "address",
          "name": "owner",
          "type": "address"
        }
      ],
      "name": "balanceOf",
      "outputs": [
        {
          "internalType": "uint256",
          "name": "balance",
          "type": "uint256"
        }
      ],
      "payable": false,
      "stateMutability": "view",
      "type": "function"
    },
    {
      "constant": true,
      "inputs": [],
      "name": "totalSupply",
      "outputs": [
        {
          "internalType": "uint256",
          "name": "total",
          "type": "uint256"
        }
      ],
      "payable": false,
      "stateMutability": "view",
      "type": "function"
    },
    {
      "constant": true,
      "inputs": [],
      "name": "name",
      "outputs": [
        {
          "internalType": "string",
          "name": "tokenName",
          "type": "string"
        }
      ],
      "payable": false,
      "stateMutability": "view",
      "type": "function"
    },
    {
      "constant": true,
      "inputs": [],
      "name": "symbol",
      "outputs": [
        {
          "internalType": "string",
          "name": "tokenSymbol",
          "type": "string"
        }
      ],
      "payable": false,
      "stateMutability": "view",
      "type": "function"
    },
    {
      "constant": true,
      "inputs": [
        {
          "internalType": "uint256",
          "name": "tokenId",
          "type": "uint256"
        }
      ],
      "name": "ownerOf",
      "outputs": [
        {
          "internalType": "address",
          "name": "owner",
          "type": "address"
        }
      ],
      "payable": false,
      "stateMutability": "view",
      "type": "function"
    },
    {
      "constant": false,
      "inputs": [
        {
          "internalType": "address",
          "name": "to",
          "type": "address"
        },
        {
          "internalType": "uint256",
          "name": "tokenId",
          "type": "uint256"
        }
      ],
      "name": "transfer",
      "outputs": [],
      "payable": false,
      "stateMutability": "nonpayable",
      "type": "function"
    }
  ],
  "bytecode": "0x60806040523480156200001157600080fd5b506040516200160138038062001601833981810160405260408110156200003757600080fd5b81019080805160405193929190846401000000008211156200005857600080fd5b838201915060208201858111156200006f57600080fd5b82518660018202830111640100000000821117156200008d57600080fd5b8083526020830192505050908051906020019080838360005b83811015620000c3578082015181840152602081019050620000a6565b50505050905090810190601f168015620000f15780820380516001836020036101000a031916815260200191505b50604052602001805160405193929190846401000000008211156200011557600080fd5b838201915060208201858111156200012c57600080fd5b82518660018202830111640100000000821117156200014a57600080fd5b8083526020830192505050908051906020019080838360005b838110156200018057808201518184015260208101905062000163565b50505050905090810190601f168015620001ae5780820380516001836020036101000a031916815260200191505b50604052505050336000806101000a81548173ffffffffffffffffffffffffffffffffffffffff021916908373ffffffffffffffffffffffffffffffffffffffff16021790555081600290805190602001906200020d9291906200022f565b508060039080519060200190620002269291906200022f565b505050620002de565b828054600181600116156101000203166002900490600052602060002090601f016020900481019282601f106200027257805160ff1916838001178555620002a3565b82800160010185558215620002a3579182015b82811115620002a257825182559160200191906001019062000285565b5b509050620002b29190620002b6565b5090565b620002db91905b80821115620002d7576000816000905550600101620002bd565b5090565b90565b61131380620002ee6000396000f3fe608060405234801561001057600080fd5b506004361061009e5760003560e01c80638da5cb5b116100665780638da5cb5b1461026957806395d89b41146102b3578063a9059cbb14610336578063d5a776ca14610384578063e98b7f4d146103b25761009e565b806306fdde03146100a357806318160ddd146101265780631d526e18146101445780636352211e146101a357806370a0823114610211575b600080fd5b6100ab610460565b6040518080602001828103825283818151815260200191508051906020019080838360005b838110156100eb5780820151818401526020810190506100d0565b50505050905090810190601f1680156101185780820380516001836020036101000a031916815260200191505b509250505060405180910390f35b61012e610502565b6040518082815260200191505060405180910390f35b61014c61050f565b6040518080602001828103825283818151815260200191508051906020019060200280838360005b8381101561018f578082015181840152602081019050610174565b505050509050019250505060405180910390f35b6101cf600480360360208110156101b957600080fd5b81019080803590602001909291905050506105a4565b604051808273ffffffffffffffffffffffffffffffffffffffff1673ffffffffffffffffffffffffffffffffffffffff16815260200191505060405180910390f35b6102536004803603602081101561022757600080fd5b81019080803573ffffffffffffffffffffffffffffffffffffffff16906020019092919050505061065b565b6040518082815260200191505060405180910390f35b6102716106a4565b604051808273ffffffffffffffffffffffffffffffffffffffff1673ffffffffffffffffffffffffffffffffffffffff16815260200191505060405180910390f35b6102bb6106c9565b6040518080602001828103825283818151815260200191508051906020019080838360005b838110156102fb5780820151818401526020810190506102e0565b50505050905090810190601f1680156103285780820380516001836020036101000a031916815260200191505b509250505060405180910390f35b6103826004803603604081101561034c57600080fd5b81019080803573ffffffffffffffffffffffffffffffffffffffff1690602001909291908035906020019092919050505061076b565b005b6103b06004803603602081101561039a57600080fd5b810190808035906020019092919050505061093b565b005b6103de600480360360208110156103c857600080fd5b8101908080359060200190929190505050610a44565b604051808681526020018567ffffffffffffffff1667ffffffffffffffff1681526020018467ffffffffffffffff1667ffffffffffffffff1681526020018367ffffffffffffffff1667ffffffffffffffff1681526020018267ffffffffffffffff1667ffffffffffffffff1681526020019550505050505060405180910390f35b606060028054600181600116156101000203166002900480601f0160208091040260200160405190810160405280929190818152602001828054600181600116156101000203166002900480156104f85780601f106104cd576101008083540402835291602001916104f8565b820191906000526020600020905b8154815290600101906020018083116104db57829003601f168201915b5050505050905090565b6000600480549050905090565b6060600760003373ffffffffffffffffffffffffffffffffffffffff1673ffffffffffffffffffffffffffffffffffffffff16815260200190815260200160002080548060200260200160405190810160405280929190818152602001828054801561059a57602002820191906000526020600020905b815481526020019060010190808311610586575b5050505050905090565b60006004805490508210610620576040517f08c379a00000000000000000000000000000000000000000000000000000000081526004018080602001828103825260178152602001807f746f6b656e496420646f6573206e6f742065786973742100000000000000000081525060200191505060405180910390fd5b6005600083815260200190815260200160002060009054906101000a900473ffffffffffffffffffffffffffffffffffffffff169050919050565b6000600660008373ffffffffffffffffffffffffffffffffffffffff1673ffffffffffffffffffffffffffffffffffffffff168152602001908152602001600020549050919050565b6000809054906101000a900473ffffffffffffffffffffffffffffffffffffffff1681565b606060038054600181600116156101000203166002900480601f0160208091040260200160405190810160405280929190818152602001828054600181600116156101000203166002900480156107615780601f1061073657610100808354040283529160200191610761565b820191906000526020600020905b81548152906001019060200180831161074457829003601f168201915b5050505050905090565b600073ffffffffffffffffffffffffffffffffffffffff168273ffffffffffffffffffffffffffffffffffffffff16141561080e576040517f08c379a000000000000000000000000000000000000000000000000000000000815260040180806020018281038252601b8152602001807f526563697069656e7427732061646472657373206973207a65726f000000000081525060200191505060405180910390fd5b3073ffffffffffffffffffffffffffffffffffffffff168273ffffffffffffffffffffffffffffffffffffffff1614156108b0576040517f08c379a000000000000000000000000000000000000000000000000000000000815260040180806020018281038252601d8152602001807f526563697069656e7420697320636f6e7472616374206164647265737300000081525060200191505060405180910390fd5b6108ba3382610bc4565b61092c576040517f08c379a00000000000000000000000000000000000000000000000000000000081526004018080602001828103825260198152602001807f53656e646572206973206e6f7420746f6b656e206f776e65720000000000000081525060200191505060405180910390fd5b610937338383610c30565b5050565b6000809054906101000a900473ffffffffffffffffffffffffffffffffffffffff1673ffffffffffffffffffffffffffffffffffffffff163373ffffffffffffffffffffffffffffffffffffffff161461099457600080fd5b600a67ffffffffffffffff1660015410610a16576040517f08c379a00000000000000000000000000000000000000000000000000000000081526004018080602001828103825260188152602001807f4869742047656e30206372656174696f6e206c696d697421000000000000000081525060200191505060405180910390fd5b610a2b60018054610ef090919063ffffffff16565b600181905550610a4060008060008433610f78565b5050565b60008060008060006004805490508610610ac6576040517f08c379a00000000000000000000000000000000000000000000000000000000081526004018080602001828103825260108152602001807f4e6f2073756368206b697474792069640000000000000000000000000000000081525060200191505060405180910390fd5b60048681548110610ad357fe5b90600052602060002090600202016000015460048781548110610af257fe5b906000526020600020906002020160010160009054906101000a900467ffffffffffffffff1660048881548110610b2557fe5b906000526020600020906002020160010160089054906101000a900467ffffffffffffffff1660048981548110610b5857fe5b906000526020600020906002020160010160109054906101000a900467ffffffffffffffff1660048a81548110610b8b57fe5b906000526020600020906002020160010160189054906101000a900467ffffffffffffffff169450945094509450945091939590929450565b60008273ffffffffffffffffffffffffffffffffffffffff166005600084815260200190815260200160002060009054906101000a900473ffffffffffffffffffffffffffffffffffffffff1673ffffffffffffffffffffffffffffffffffffffff1614905092915050565b600073ffffffffffffffffffffffffffffffffffffffff168373ffffffffffffffffffffffffffffffffffffffff1614610d3f576000600760008573ffffffffffffffffffffffffffffffffffffffff1673ffffffffffffffffffffffffffffffffffffffff1681526020019081526020016000209050610cfa6001600660008773ffffffffffffffffffffffffffffffffffffffff1673ffffffffffffffffffffffffffffffffffffffff1681526020019081526020016000205461117d90919063ffffffff16565b600660008673ffffffffffffffffffffffffffffffffffffffff1673ffffffffffffffffffffffffffffffffffffffff16815260200190815260200160002081905550505b600760008373ffffffffffffffffffffffffffffffffffffffff1673ffffffffffffffffffffffffffffffffffffffff168152602001908152602001600020819080600181540180825580915050906001820390600052602060002001600090919290919091505550610dfb6001600660008573ffffffffffffffffffffffffffffffffffffffff1673ffffffffffffffffffffffffffffffffffffffff16815260200190815260200160002054610ef090919063ffffffff16565b600660008473ffffffffffffffffffffffffffffffffffffffff1673ffffffffffffffffffffffffffffffffffffffff16815260200190815260200160002081905550816005600083815260200190815260200160002060006101000a81548173ffffffffffffffffffffffffffffffffffffffff021916908373ffffffffffffffffffffffffffffffffffffffff160217905550808273ffffffffffffffffffffffffffffffffffffffff168473ffffffffffffffffffffffffffffffffffffffff167fddf252ad1be2c89b69c2b068fc378daa952ba7f163c4a11628f55a4df523b3ef60405160405180910390a4505050565b600080828401905083811015610f6e576040517f08c379a000000000000000000000000000000000000000000000000000000000815260040180806020018281038252601b8152602001807f536166654d6174683a206164646974696f6e206f766572666c6f77000000000081525060200191505060405180910390fd5b8091505092915050565b6000610f82611287565b6040518060a001604052808581526020014267ffffffffffffffff1681526020018867ffffffffffffffff1681526020018767ffffffffffffffff1681526020018667ffffffffffffffff16815250905060006110de6001600484908060018154018082558091505090600182039060005260206000209060020201600090919290919091506000820151816000015560208201518160010160006101000a81548167ffffffffffffffff021916908367ffffffffffffffff16021790555060408201518160010160086101000a81548167ffffffffffffffff021916908367ffffffffffffffff16021790555060608201518160010160106101000a81548167ffffffffffffffff021916908367ffffffffffffffff16021790555060808201518160010160186101000a81548167ffffffffffffffff021916908367ffffffffffffffff160217905550505061117d90919063ffffffff16565b90507f0a5311bd2a6608f08a180df2ee7c5946819a649b204b554bb8e39825b2c50ad584828a8a89604051808673ffffffffffffffffffffffffffffffffffffffff1673ffffffffffffffffffffffffffffffffffffffff1681526020018581526020018481526020018381526020018281526020019550505050505060405180910390a161116f60008583610c30565b809250505095945050505050565b60006111bf83836040518060400160405280601e81526020017f536166654d6174683a207375627472616374696f6e206f766572666c6f7700008152506111c7565b905092915050565b6000838311158290611274576040517f08c379a00000000000000000000000000000000000000000000000000000000081526004018080602001828103825283818151815260200191508051906020019080838360005b8381101561123957808201518184015260208101905061121e565b50505050905090810190601f1680156112665780820380516001836020036101000a031916815260200191505b509250505060405180910390fd5b5060008385039050809150509392505050565b6040518060a0016040528060008152602001600067ffffffffffffffff168152602001600067ffffffffffffffff168152602001600067ffffffffffffffff168152602001600067ffffffffffffffff168152509056fea265627a7a723158200236ed64b7d911a636aa78cde58e8137d9c0108dedd10aacccff95ee4cb6a75464736f6c634300050c0032",
  "source": "pragma solidity 0.5.12;\n\nimport \"./IERC721.sol\";\nimport \"./Safemath.sol\";\nimport \"./Ownable.sol\";\nimport \"./UtilsLibrary.sol\";\n\n\ncontract KittyContract is IERC721, Ownable{\n\n    using SafeMath for uint256;\n//    using ArrayUtilsLibrary for uint256[];\n\n    uint64 private constant _GEN0_CREATION_LIMIT = 10;\n\n    uint256 private _gen0KittiesCount;\n    string private _name;\n    string private _symbol;\n\n    event Birth(address owner, uint256 kittenId, uint256 mumId, uint256 dadId, uint256 genes);\n\n    struct Kitty {\n        uint256 genes;\n        uint64 birthTime;\n        uint64 mumId;\n        uint64 dadId;\n        uint64 generation;\n    }\n    Kitty[] private _kitties;  \n\n    mapping (uint256 => address) private _kittyOwners;\n    mapping (address => uint256) private _ownersKittyCount;\n    mapping (address => uint256[]) private _ownersKittyIds;\n\n    constructor (string memory name, string memory symbol) public {\n        _name = name;\n        _symbol = symbol;\n    }\n\n    function createKittyGen0(uint256 genes) public onlyOwner {\n        require(_gen0KittiesCount<_GEN0_CREATION_LIMIT, \"Hit Gen0 creation limit!\");\n        _gen0KittiesCount = _gen0KittiesCount.add(1);\n        _createKitty( 0, 0, 0, genes, msg.sender);\n    }\n\n    function _createKitty(uint256 mumId, uint256 dadId, uint256 generation,\n                          uint256 genes, address owner) private returns (uint256){\n        Kitty memory newKitty = Kitty({\n                                    genes: genes,\n                                    birthTime: uint64(now),\n                                    mumId: uint64(mumId),\n                                    dadId: uint64(dadId),\n                                    generation: uint64(generation)\n                                });\n\n        uint256 newKittenId = (_kitties.push(newKitty)).sub(1);\n\n        emit Birth(owner, newKittenId, mumId, dadId, genes);\n\n        _transfer(address(0), owner, newKittenId);\n\n        return newKittenId;\n    }\n\n    function getKitty(uint256 kittyId) external view returns(uint256 genes, uint64 birthTime, \n                                                        uint64 mumId, uint64 dadId, uint64 generation){\n        require(kittyId < _kitties.length, \"No such kitty id\");\n        \n        return (_kitties[kittyId].genes, _kitties[kittyId].birthTime,\n                  _kitties[kittyId].mumId, _kitties[kittyId].dadId, _kitties[kittyId].generation);\n    }\n\n    function getAllYourKittyIds() external view returns(uint256[] memory){\n        // Set pointer to owners array of kitty Ids\n        // uint256 storage kittyIds = _ownersKittyIds[msg.sender]\n        return _ownersKittyIds[msg.sender];\n    }\n\n\n\n    // IERC721 function implementations\n\n    function balanceOf(address owner) external view returns (uint256 balance){\n        return _ownersKittyCount[owner];\n    }\n\n    function totalSupply() external view returns (uint256 total){\n        return _kitties.length;\n    }\n\n    function name() external view returns (string memory tokenName){\n        return _name;\n    }\n\n    function symbol() external view returns (string memory tokenSymbol){\n        return _symbol;\n    }\n\n    function ownerOf(uint256 tokenId) external view returns (address owner){\n        require(tokenId < _kitties.length, \"tokenId does not exist!\");\n        return _kittyOwners[tokenId];\n    }\n\n    function transfer(address to, uint256 tokenId) external{\n        // Checks\n        require(to != address(0), \"Recipient's address is zero\");\n        require(to != address(this), \"Recipient is contract address\");\n        require(_isOwner(msg.sender, tokenId), \"Sender is not token owner\");\n\n        // Effects - Transfer token\n        _transfer(msg.sender, to, tokenId);\n\n    }\n\n    function _transfer(address from, address to, uint256 tokenId) internal{\n\n        if (from != address(0)){\n            // Take kittie token from the sender\n            // _ownersKittyIds[from].removeFrom(tokenId);\n\n            uint256[] storage sendersKittyIds = _ownersKittyIds[from];\n            // for (uint256 i=0; i<_ownersKittyCount[from]; i++){\n            //     if (sendersKittyIds[i] == tokenId){\n            //         sendersKittyIds[i] = sendersKittyIds[sendersKittyIds.length-1];\n            //         sendersKittyIds.pop();\n            //         break;\n            //     }\n            // }\n            _ownersKittyCount[from] = _ownersKittyCount[from].sub(1);\n        }\n\n        // Give token to the receiver\n        _ownersKittyIds[to].push(tokenId);\n        _ownersKittyCount[to] = _ownersKittyCount[to].add(1);\n        _kittyOwners[tokenId] = to;\n\n        emit Transfer(from, to, tokenId);\n    }\n\n    function _isOwner(address claimer, uint256 tokenId) internal view returns (bool owner){\n        return (_kittyOwners[tokenId] == claimer);\n    }\n\n}",
  "sourcePath": "/Users/Mark/Documents/BlockChain/IvanOnTechAcademy/Bootcamp/CryptoKitties-Clone/contracts/KittyContract.sol",
  "compiler": {
    "name": "solc",
    "version": "0.5.12+commit.7709ece9.Emscripten.clang"
  },
  "schemaVersion": "3.2.0",
  "updatedAt": "2021-03-19T13:56:58.972Z",
  "networkType": "ethereum",
  "devdoc": {
    "methods": {}
  },
  "userdoc": {
    "methods": {}
  }
}