{
  "contractName": "KittyContract",
  "abi": [
    {
      "inputs": [
        {
          "internalType": "string",
          "name": "name",
          "type": "string"
        },
        {
          "internalType": "string",
          "name": "symbol",
          "type": "string"
        }
      ],
      "payable": false,
      "stateMutability": "nonpayable",
      "type": "constructor"
    },
    {
      "anonymous": false,
      "inputs": [
        {
          "indexed": true,
          "internalType": "address",
          "name": "owner",
          "type": "address"
        },
        {
          "indexed": true,
          "internalType": "address",
          "name": "approved",
          "type": "address"
        },
        {
          "indexed": true,
          "internalType": "uint256",
          "name": "tokenId",
          "type": "uint256"
        }
      ],
      "name": "Approval",
      "type": "event"
    },
    {
      "anonymous": false,
      "inputs": [
        {
          "indexed": true,
          "internalType": "address",
          "name": "owner",
          "type": "address"
        },
        {
          "indexed": true,
          "internalType": "address",
          "name": "operator",
          "type": "address"
        },
        {
          "indexed": false,
          "internalType": "bool",
          "name": "approved",
          "type": "bool"
        }
      ],
      "name": "ApprovalForAll",
      "type": "event"
    },
    {
      "anonymous": false,
      "inputs": [
        {
          "indexed": false,
          "internalType": "address",
          "name": "owner",
          "type": "address"
        },
        {
          "indexed": false,
          "internalType": "uint256",
          "name": "kittenId",
          "type": "uint256"
        },
        {
          "indexed": false,
          "internalType": "uint256",
          "name": "mumId",
          "type": "uint256"
        },
        {
          "indexed": false,
          "internalType": "uint256",
          "name": "dadId",
          "type": "uint256"
        },
        {
          "indexed": false,
          "internalType": "uint256",
          "name": "genes",
          "type": "uint256"
        },
        {
          "indexed": false,
          "internalType": "uint256",
          "name": "generation",
          "type": "uint256"
        }
      ],
      "name": "Birth",
      "type": "event"
    },
    {
      "anonymous": false,
      "inputs": [
        {
          "indexed": true,
          "internalType": "address",
          "name": "from",
          "type": "address"
        },
        {
          "indexed": true,
          "internalType": "address",
          "name": "to",
          "type": "address"
        },
        {
          "indexed": true,
          "internalType": "uint256",
          "name": "tokenId",
          "type": "uint256"
        }
      ],
      "name": "Transfer",
      "type": "event"
    },
    {
      "constant": true,
      "inputs": [],
      "name": "owner",
      "outputs": [
        {
          "internalType": "address",
          "name": "",
          "type": "address"
        }
      ],
      "payable": false,
      "stateMutability": "view",
      "type": "function"
    },
    {
      "constant": false,
      "inputs": [
        {
          "internalType": "uint256",
          "name": "genes",
          "type": "uint256"
        }
      ],
      "name": "createKittyGen0",
      "outputs": [],
      "payable": false,
      "stateMutability": "nonpayable",
      "type": "function"
    },
    {
      "constant": false,
      "inputs": [
        {
          "internalType": "uint256",
          "name": "mumId",
          "type": "uint256"
        },
        {
          "internalType": "uint256",
          "name": "dadId",
          "type": "uint256"
        }
      ],
      "name": "breed",
      "outputs": [
        {
          "internalType": "uint256",
          "name": "",
          "type": "uint256"
        }
      ],
      "payable": false,
      "stateMutability": "nonpayable",
      "type": "function"
    },
    {
      "constant": true,
      "inputs": [
        {
          "internalType": "uint256",
          "name": "kittyId",
          "type": "uint256"
        }
      ],
      "name": "getKitty",
      "outputs": [
        {
          "internalType": "uint256",
          "name": "genes",
          "type": "uint256"
        },
        {
          "internalType": "uint64",
          "name": "birthTime",
          "type": "uint64"
        },
        {
          "internalType": "uint64",
          "name": "mumId",
          "type": "uint64"
        },
        {
          "internalType": "uint64",
          "name": "dadId",
          "type": "uint64"
        },
        {
          "internalType": "uint64",
          "name": "generation",
          "type": "uint64"
        }
      ],
      "payable": false,
      "stateMutability": "view",
      "type": "function"
    },
    {
      "constant": true,
      "inputs": [],
      "name": "getAllYourKittyIds",
      "outputs": [
        {
          "internalType": "uint256[]",
          "name": "",
          "type": "uint256[]"
        }
      ],
      "payable": false,
      "stateMutability": "view",
      "type": "function"
    },
    {
      "constant": true,
      "inputs": [
        {
          "internalType": "bytes4",
          "name": "interfaceId",
          "type": "bytes4"
        }
      ],
      "name": "supportsInterface",
      "outputs": [
        {
          "internalType": "bool",
          "name": "",
          "type": "bool"
        }
      ],
      "payable": false,
      "stateMutability": "pure",
      "type": "function"
    },
    {
      "constant": true,
      "inputs": [
        {
          "internalType": "address",
          "name": "owner",
          "type": "address"
        }
      ],
      "name": "balanceOf",
      "outputs": [
        {
          "internalType": "uint256",
          "name": "balance",
          "type": "uint256"
        }
      ],
      "payable": false,
      "stateMutability": "view",
      "type": "function"
    },
    {
      "constant": true,
      "inputs": [],
      "name": "totalSupply",
      "outputs": [
        {
          "internalType": "uint256",
          "name": "total",
          "type": "uint256"
        }
      ],
      "payable": false,
      "stateMutability": "view",
      "type": "function"
    },
    {
      "constant": true,
      "inputs": [],
      "name": "name",
      "outputs": [
        {
          "internalType": "string",
          "name": "tokenName",
          "type": "string"
        }
      ],
      "payable": false,
      "stateMutability": "view",
      "type": "function"
    },
    {
      "constant": true,
      "inputs": [],
      "name": "symbol",
      "outputs": [
        {
          "internalType": "string",
          "name": "tokenSymbol",
          "type": "string"
        }
      ],
      "payable": false,
      "stateMutability": "view",
      "type": "function"
    },
    {
      "constant": true,
      "inputs": [
        {
          "internalType": "uint256",
          "name": "tokenId",
          "type": "uint256"
        }
      ],
      "name": "ownerOf",
      "outputs": [
        {
          "internalType": "address",
          "name": "owner",
          "type": "address"
        }
      ],
      "payable": false,
      "stateMutability": "view",
      "type": "function"
    },
    {
      "constant": false,
      "inputs": [
        {
          "internalType": "address",
          "name": "to",
          "type": "address"
        },
        {
          "internalType": "uint256",
          "name": "tokenId",
          "type": "uint256"
        }
      ],
      "name": "transfer",
      "outputs": [],
      "payable": false,
      "stateMutability": "nonpayable",
      "type": "function"
    },
    {
      "constant": false,
      "inputs": [
        {
          "internalType": "address",
          "name": "approved",
          "type": "address"
        },
        {
          "internalType": "uint256",
          "name": "tokenId",
          "type": "uint256"
        }
      ],
      "name": "approve",
      "outputs": [],
      "payable": false,
      "stateMutability": "nonpayable",
      "type": "function"
    },
    {
      "constant": false,
      "inputs": [
        {
          "internalType": "address",
          "name": "operator",
          "type": "address"
        },
        {
          "internalType": "bool",
          "name": "approved",
          "type": "bool"
        }
      ],
      "name": "setApprovalForAll",
      "outputs": [],
      "payable": false,
      "stateMutability": "nonpayable",
      "type": "function"
    },
    {
      "constant": true,
      "inputs": [
        {
          "internalType": "uint256",
          "name": "tokenId",
          "type": "uint256"
        }
      ],
      "name": "getApproved",
      "outputs": [
        {
          "internalType": "address",
          "name": "",
          "type": "address"
        }
      ],
      "payable": false,
      "stateMutability": "view",
      "type": "function"
    },
    {
      "constant": true,
      "inputs": [
        {
          "internalType": "address",
          "name": "owner",
          "type": "address"
        },
        {
          "internalType": "address",
          "name": "operator",
          "type": "address"
        }
      ],
      "name": "isApprovedForAll",
      "outputs": [
        {
          "internalType": "bool",
          "name": "",
          "type": "bool"
        }
      ],
      "payable": false,
      "stateMutability": "view",
      "type": "function"
    },
    {
      "constant": false,
      "inputs": [
        {
          "internalType": "address",
          "name": "from",
          "type": "address"
        },
        {
          "internalType": "address",
          "name": "to",
          "type": "address"
        },
        {
          "internalType": "uint256",
          "name": "tokenId",
          "type": "uint256"
        }
      ],
      "name": "safeTransferFrom",
      "outputs": [],
      "payable": false,
      "stateMutability": "nonpayable",
      "type": "function"
    },
    {
      "constant": false,
      "inputs": [
        {
          "internalType": "address",
          "name": "from",
          "type": "address"
        },
        {
          "internalType": "address",
          "name": "to",
          "type": "address"
        },
        {
          "internalType": "uint256",
          "name": "tokenId",
          "type": "uint256"
        },
        {
          "internalType": "bytes",
          "name": "data",
          "type": "bytes"
        }
      ],
      "name": "safeTransferFrom",
      "outputs": [],
      "payable": false,
      "stateMutability": "nonpayable",
      "type": "function"
    },
    {
      "constant": false,
      "inputs": [
        {
          "internalType": "address",
          "name": "from",
          "type": "address"
        },
        {
          "internalType": "address",
          "name": "to",
          "type": "address"
        },
        {
          "internalType": "uint256",
          "name": "tokenId",
          "type": "uint256"
        }
      ],
      "name": "transferFrom",
      "outputs": [],
      "payable": false,
      "stateMutability": "nonpayable",
      "type": "function"
    }
  ],
  "bytecode": "0x6080604052604051806101400160405280600260ff168152602001600260ff168152602001600260ff168152602001600260ff168152602001600160ff168152602001600160ff168152602001600260ff168152602001600260ff168152602001600160ff168152602001600160ff16815250600a90600a62000084929190620002b0565b503480156200009257600080fd5b5060405162002d4838038062002d4883398181016040526040811015620000b857600080fd5b8101908080516040519392919084640100000000821115620000d957600080fd5b83820191506020820185811115620000f057600080fd5b82518660018202830111640100000000821117156200010e57600080fd5b8083526020830192505050908051906020019080838360005b838110156200014457808201518184015260208101905062000127565b50505050905090810190601f168015620001725780820380516001836020036101000a031916815260200191505b50604052602001805160405193929190846401000000008211156200019657600080fd5b83820191506020820185811115620001ad57600080fd5b8251866001820283011164010000000082111715620001cb57600080fd5b8083526020830192505050908051906020019080838360005b8381101562000201578082015181840152602081019050620001e4565b50505050905090810190601f1680156200022f5780820380516001836020036101000a031916815260200191505b50604052505050336000806101000a81548173ffffffffffffffffffffffffffffffffffffffff021916908373ffffffffffffffffffffffffffffffffffffffff16021790555081600290805190602001906200028e92919062000307565b508060039080519060200190620002a792919062000307565b505050620003b6565b828054828255906000526020600020908101928215620002f4579160200282015b82811115620002f3578251829060ff16905591602001919060010190620002d1565b5b5090506200030391906200038e565b5090565b828054600181600116156101000203166002900490600052602060002090601f016020900481019282601f106200034a57805160ff19168380011785556200037b565b828001600101855582156200037b579182015b828111156200037a5782518255916020019190600101906200035d565b5b5090506200038a91906200038e565b5090565b620003b391905b80821115620003af57600081600090555060010162000395565b5090565b90565b61298280620003c66000396000f3fe608060405234801561001057600080fd5b50600436106101215760003560e01c806370a08231116100ad578063b88d4fde11610071578063b88d4fde14610654578063d5a776ca14610717578063d9ecad7b14610745578063e985e9c514610791578063e98b7f4d1461080d57610121565b806370a08231146104915780638da5cb5b146104e957806395d89b4114610533578063a22cb465146105b6578063a9059cbb1461060657610121565b806318160ddd116100f457806318160ddd146102ca5780631d526e18146102e857806323b872dd1461034757806342842e0e146103b55780636352211e1461042357610121565b806301ffc9a71461012657806306fdde031461018b578063081812fc1461020e578063095ea7b31461027c575b600080fd5b6101716004803603602081101561013c57600080fd5b8101908080357bffffffffffffffffffffffffffffffffffffffffffffffffffffffff191690602001909291905050506108bb565b604051808215151515815260200191505060405180910390f35b61019361095b565b6040518080602001828103825283818151815260200191508051906020019080838360005b838110156101d35780820151818401526020810190506101b8565b50505050905090810190601f1680156102005780820380516001836020036101000a031916815260200191505b509250505060405180910390f35b61023a6004803603602081101561022457600080fd5b81019080803590602001909291905050506109fd565b604051808273ffffffffffffffffffffffffffffffffffffffff1673ffffffffffffffffffffffffffffffffffffffff16815260200191505060405180910390f35b6102c86004803603604081101561029257600080fd5b81019080803573ffffffffffffffffffffffffffffffffffffffff16906020019092919080359060200190929190505050610ab5565b005b6102d2610bff565b6040518082815260200191505060405180910390f35b6102f0610c0c565b6040518080602001828103825283818151815260200191508051906020019060200280838360005b83811015610333578082015181840152602081019050610318565b505050509050019250505060405180910390f35b6103b36004803603606081101561035d57600080fd5b81019080803573ffffffffffffffffffffffffffffffffffffffff169060200190929190803573ffffffffffffffffffffffffffffffffffffffff16906020019092919080359060200190929190505050610ca1565b005b610421600480360360608110156103cb57600080fd5b81019080803573ffffffffffffffffffffffffffffffffffffffff169060200190929190803573ffffffffffffffffffffffffffffffffffffffff16906020019092919080359060200190929190505050610d2f565b005b61044f6004803603602081101561043957600080fd5b8101908080359060200190929190505050610d50565b604051808273ffffffffffffffffffffffffffffffffffffffff1673ffffffffffffffffffffffffffffffffffffffff16815260200191505060405180910390f35b6104d3600480360360208110156104a757600080fd5b81019080803573ffffffffffffffffffffffffffffffffffffffff169060200190929190505050610e08565b6040518082815260200191505060405180910390f35b6104f1610e51565b604051808273ffffffffffffffffffffffffffffffffffffffff1673ffffffffffffffffffffffffffffffffffffffff16815260200191505060405180910390f35b61053b610e76565b6040518080602001828103825283818151815260200191508051906020019080838360005b8381101561057b578082015181840152602081019050610560565b50505050905090810190601f1680156105a85780820380516001836020036101000a031916815260200191505b509250505060405180910390f35b610604600480360360408110156105cc57600080fd5b81019080803573ffffffffffffffffffffffffffffffffffffffff169060200190929190803515159060200190929190505050610f18565b005b6106526004803603604081101561061c57600080fd5b81019080803573ffffffffffffffffffffffffffffffffffffffff16906020019092919080359060200190929190505050610f60565b005b6107156004803603608081101561066a57600080fd5b81019080803573ffffffffffffffffffffffffffffffffffffffff169060200190929190803573ffffffffffffffffffffffffffffffffffffffff16906020019092919080359060200190929190803590602001906401000000008111156106d157600080fd5b8201836020820111156106e357600080fd5b8035906020019184600183028401116401000000008311171561070557600080fd5b9091929391929390505050611108565b005b6107436004803603602081101561072d57600080fd5b8101908080359060200190929190505050611160565b005b61077b6004803603604081101561075b57600080fd5b810190808035906020019092919080359060200190929190505050611269565b6040518082815260200191505060405180910390f35b6107f3600480360360408110156107a757600080fd5b81019080803573ffffffffffffffffffffffffffffffffffffffff169060200190929190803573ffffffffffffffffffffffffffffffffffffffff1690602001909291905050506114f4565b604051808215151515815260200191505060405180910390f35b6108396004803603602081101561082357600080fd5b8101908080359060200190929190505050611508565b604051808681526020018567ffffffffffffffff1667ffffffffffffffff1681526020018467ffffffffffffffff1667ffffffffffffffff1681526020018367ffffffffffffffff1667ffffffffffffffff1681526020018267ffffffffffffffff1667ffffffffffffffff1681526020019550505050505060405180910390f35b60006380ac58cd60e01b7bffffffffffffffffffffffffffffffffffffffffffffffffffffffff1916827bffffffffffffffffffffffffffffffffffffffffffffffffffffffff1916148061095457506301ffc9a760e01b7bffffffffffffffffffffffffffffffffffffffffffffffffffffffff1916827bffffffffffffffffffffffffffffffffffffffffffffffffffffffff1916145b9050919050565b606060028054600181600116156101000203166002900480601f0160208091040260200160405190810160405280929190818152602001828054600181600116156101000203166002900480156109f35780601f106109c8576101008083540402835291602001916109f3565b820191906000526020600020905b8154815290600101906020018083116109d657829003601f168201915b5050505050905090565b6000610a0882611689565b610a7a576040517f08c379a00000000000000000000000000000000000000000000000000000000081526004018080602001828103825260158152602001807f546f6b656e20646f6573206e6f7420657869737421000000000000000000000081525060200191505060405180910390fd5b6008600083815260200190815260200160002060009054906101000a900473ffffffffffffffffffffffffffffffffffffffff169050919050565b610abf338261169a565b80610b035750610b026005600083815260200190815260200160002060009054906101000a900473ffffffffffffffffffffffffffffffffffffffff1633611706565b5b610b75576040517f08c379a000000000000000000000000000000000000000000000000000000000815260040180806020018281038252601e8152602001807f4e6f7420746f6b656e206f776e65722c206e6f72206f70657261746f7221000081525060200191505060405180910390fd5b610b7e8261179a565b610bf0576040517f08c379a000000000000000000000000000000000000000000000000000000000815260040180806020018281038252601f8152602001807f3020616464726573732063616e277420626520616e20617070726f766572210081525060200191505060405180910390fd5b610bfb3383836117d3565b5050565b6000600480549050905090565b6060600760003373ffffffffffffffffffffffffffffffffffffffff1673ffffffffffffffffffffffffffffffffffffffff168152602001908152602001600020805480602002602001604051908101604052809291908181526020018280548015610c9757602002820191906000526020600020905b815481526020019060010190808311610c83575b5050505050905090565b610cad33848484611885565b610d1f576040517f08c379a000000000000000000000000000000000000000000000000000000000815260040180806020018281038252601f8152602001807f4e6f20617574686f7269747920746f207472616e7366657220746f6b656e210081525060200191505060405180910390fd5b610d2a838383611a62565b505050565b610d4b3384848460405180602001604052806000815250611d9d565b505050565b6000610d5b82611689565b610dcd576040517f08c379a00000000000000000000000000000000000000000000000000000000081526004018080602001828103825260158152602001807f546f6b656e20646f6573206e6f7420657869737421000000000000000000000081525060200191505060405180910390fd5b6005600083815260200190815260200160002060009054906101000a900473ffffffffffffffffffffffffffffffffffffffff169050919050565b6000600660008373ffffffffffffffffffffffffffffffffffffffff1673ffffffffffffffffffffffffffffffffffffffff168152602001908152602001600020549050919050565b6000809054906101000a900473ffffffffffffffffffffffffffffffffffffffff1681565b606060038054600181600116156101000203166002900480601f016020809104026020016040519081016040528092919081815260200182805460018160011615610100020316600290048015610f0e5780601f10610ee357610100808354040283529160200191610f0e565b820191906000526020600020905b815481529060010190602001808311610ef157829003601f168201915b5050505050905090565b3373ffffffffffffffffffffffffffffffffffffffff168273ffffffffffffffffffffffffffffffffffffffff161415610f5157600080fd5b610f5c338383611e2e565b5050565b610f698261179a565b610fdb576040517f08c379a000000000000000000000000000000000000000000000000000000000815260040180806020018281038252601c8152602001807f526563697069656e7427732061646472657373206973207a65726f210000000081525060200191505060405180910390fd5b3073ffffffffffffffffffffffffffffffffffffffff168273ffffffffffffffffffffffffffffffffffffffff16141561107d576040517f08c379a000000000000000000000000000000000000000000000000000000000815260040180806020018281038252601e8152602001807f526563697069656e7420697320636f6e7472616374206164647265737321000081525060200191505060405180910390fd5b611087338261169a565b6110f9576040517f08c379a000000000000000000000000000000000000000000000000000000000815260040180806020018281038252601a8152602001807f53656e646572206973206e6f7420746f6b656e206f776e65722100000000000081525060200191505060405180910390fd5b611104338383611a62565b5050565b6111593386868686868080601f016020809104026020016040519081016040528093929190818152602001838380828437600081840152601f19601f82011690508083019250505050505050611d9d565b5050505050565b6000809054906101000a900473ffffffffffffffffffffffffffffffffffffffff1673ffffffffffffffffffffffffffffffffffffffff163373ffffffffffffffffffffffffffffffffffffffff16146111b957600080fd5b600a67ffffffffffffffff166001541061123b576040517f08c379a00000000000000000000000000000000000000000000000000000000081526004018080602001828103825260188152602001807f4869742047656e30206372656174696f6e206c696d697421000000000000000081525060200191505060405180910390fd5b61125060018054611f3090919063ffffffff16565b60018190555061126560008060008433611fb8565b5050565b60006112aa336005600086815260200190815260200160002060009054906101000a900473ffffffffffffffffffffffffffffffffffffffff163386611885565b61131c576040517f08c379a000000000000000000000000000000000000000000000000000000000815260040180806020018281038252601f8152602001807f4d75737420686176652061636365737320746f206d6f7468657220636174210081525060200191505060405180910390fd5b61135b336005600085815260200190815260200160002060009054906101000a900473ffffffffffffffffffffffffffffffffffffffff163385611885565b6113cd576040517f08c379a000000000000000000000000000000000000000000000000000000000815260040180806020018281038252601f8152602001807f4d75737420686176652061636365737320746f2066617468657220636174210081525060200191505060405180910390fd5b6000611415600485815481106113df57fe5b906000526020600020906002020160000154600485815481106113fe57fe5b9060005260206000209060020201600001546121d5565b905060006004858154811061142657fe5b906000526020600020906002020160010160189054906101000a900467ffffffffffffffff1667ffffffffffffffff16905060006004858154811061146757fe5b906000526020600020906002020160010160189054906101000a900467ffffffffffffffff1667ffffffffffffffff1690506000818311156114be576114b7600184611f3090919063ffffffff16565b90506114d5565b6114d2600183611f3090919063ffffffff16565b90505b60006114e48888848833611fb8565b9050809550505050505092915050565b60006115008383611706565b905092915050565b600080600080600061151986611689565b61158b576040517f08c379a00000000000000000000000000000000000000000000000000000000081526004018080602001828103825260118152602001807f4e6f2073756368206b697474792069642100000000000000000000000000000081525060200191505060405180910390fd5b6004868154811061159857fe5b906000526020600020906002020160000154600487815481106115b757fe5b906000526020600020906002020160010160009054906101000a900467ffffffffffffffff16600488815481106115ea57fe5b906000526020600020906002020160010160089054906101000a900467ffffffffffffffff166004898154811061161d57fe5b906000526020600020906002020160010160109054906101000a900467ffffffffffffffff1660048a8154811061165057fe5b906000526020600020906002020160010160189054906101000a900467ffffffffffffffff169450945094509450945091939590929450565b600060048054905082109050919050565b60008273ffffffffffffffffffffffffffffffffffffffff166005600084815260200190815260200160002060009054906101000a900473ffffffffffffffffffffffffffffffffffffffff1673ffffffffffffffffffffffffffffffffffffffff1614905092915050565b6000600960008473ffffffffffffffffffffffffffffffffffffffff1673ffffffffffffffffffffffffffffffffffffffff16815260200190815260200160002060008373ffffffffffffffffffffffffffffffffffffffff1673ffffffffffffffffffffffffffffffffffffffff16815260200190815260200160002060009054906101000a900460ff16905092915050565b60008073ffffffffffffffffffffffffffffffffffffffff168273ffffffffffffffffffffffffffffffffffffffff1614159050919050565b816008600083815260200190815260200160002060006101000a81548173ffffffffffffffffffffffffffffffffffffffff021916908373ffffffffffffffffffffffffffffffffffffffff160217905550808273ffffffffffffffffffffffffffffffffffffffff168473ffffffffffffffffffffffffffffffffffffffff167f8c5be1e5ebec7d5bd14f71427d1e84f3dd0314c0f7b2291e5b200ac8c7c3b92560405160405180910390a4505050565b600061189082611689565b611902576040517f08c379a00000000000000000000000000000000000000000000000000000000081526004018080602001828103825260148152602001807f546f6b656e20646f65736e27742065786973742100000000000000000000000081525060200191505060405180910390fd5b61190c848361169a565b61197e576040517f08c379a00000000000000000000000000000000000000000000000000000000081526004018080602001828103825260198152602001807f2766726f6d2720646f65736e2774206f776e20746f6b656e210000000000000081525060200191505060405180910390fd5b6119878361179a565b6119f9576040517f08c379a000000000000000000000000000000000000000000000000000000000815260040180806020018281038252601c8152602001807f526563697069656e7427732061646472657373206973207a65726f210000000081525060200191505060405180910390fd5b611a03858361169a565b80611a475750611a466005600084815260200190815260200160002060009054906101000a900473ffffffffffffffffffffffffffffffffffffffff1686611706565b5b80611a585750611a5785836124d3565b5b9050949350505050565b611a6b8361179a565b15611bec576008600082815260200190815260200160002060006101000a81549073ffffffffffffffffffffffffffffffffffffffff0219169055600760008473ffffffffffffffffffffffffffffffffffffffff1673ffffffffffffffffffffffffffffffffffffffff16815260200190815260200160002073__ArrayUtils____________________________6359b4521f9091836040518363ffffffff1660e01b8152600401808381526020018281526020019250505060006040518083038186803b158015611b3d57600080fd5b505af4158015611b51573d6000803e3d6000fd5b50505050611ba86001600660008673ffffffffffffffffffffffffffffffffffffffff1673ffffffffffffffffffffffffffffffffffffffff1681526020019081526020016000205461253f90919063ffffffff16565b600660008573ffffffffffffffffffffffffffffffffffffffff1673ffffffffffffffffffffffffffffffffffffffff168152602001908152602001600020819055505b600760008373ffffffffffffffffffffffffffffffffffffffff1673ffffffffffffffffffffffffffffffffffffffff168152602001908152602001600020819080600181540180825580915050906001820390600052602060002001600090919290919091505550611ca86001600660008573ffffffffffffffffffffffffffffffffffffffff1673ffffffffffffffffffffffffffffffffffffffff16815260200190815260200160002054611f3090919063ffffffff16565b600660008473ffffffffffffffffffffffffffffffffffffffff1673ffffffffffffffffffffffffffffffffffffffff16815260200190815260200160002081905550816005600083815260200190815260200160002060006101000a81548173ffffffffffffffffffffffffffffffffffffffff021916908373ffffffffffffffffffffffffffffffffffffffff160217905550808273ffffffffffffffffffffffffffffffffffffffff168473ffffffffffffffffffffffffffffffffffffffff167fddf252ad1be2c89b69c2b068fc378daa952ba7f163c4a11628f55a4df523b3ef60405160405180910390a4505050565b611da985858585611885565b611e1b576040517f08c379a000000000000000000000000000000000000000000000000000000000815260040180806020018281038252601f8152602001807f4e6f20617574686f7269747920746f207472616e7366657220746f6b656e210081525060200191505060405180910390fd5b611e2784848484612589565b5050505050565b80600960008573ffffffffffffffffffffffffffffffffffffffff1673ffffffffffffffffffffffffffffffffffffffff16815260200190815260200160002060008473ffffffffffffffffffffffffffffffffffffffff1673ffffffffffffffffffffffffffffffffffffffff16815260200190815260200160002060006101000a81548160ff0219169083151502179055508173ffffffffffffffffffffffffffffffffffffffff168373ffffffffffffffffffffffffffffffffffffffff167f17307eab39ab6107e8899845ad3d59bd9653f200f220920489ca2b5937696c3183604051808215151515815260200191505060405180910390a3505050565b600080828401905083811015611fae576040517f08c379a000000000000000000000000000000000000000000000000000000000815260040180806020018281038252601b8152602001807f536166654d6174683a206164646974696f6e206f766572666c6f77000000000081525060200191505060405180910390fd5b8091505092915050565b6000611fc26128a4565b6040518060a001604052808581526020014267ffffffffffffffff1681526020018867ffffffffffffffff1681526020018767ffffffffffffffff1681526020018667ffffffffffffffff168152509050600061211e6001600484908060018154018082558091505090600182039060005260206000209060020201600090919290919091506000820151816000015560208201518160010160006101000a81548167ffffffffffffffff021916908367ffffffffffffffff16021790555060408201518160010160086101000a81548167ffffffffffffffff021916908367ffffffffffffffff16021790555060608201518160010160106101000a81548167ffffffffffffffff021916908367ffffffffffffffff16021790555060808201518160010160186101000a81548167ffffffffffffffff021916908367ffffffffffffffff160217905550505061253f90919063ffffffff16565b90507fa2950fd8c03e7518275ee57e05ca76c671969b5445b12b1aeea4b0b30195e5df84828a8a898b604051808773ffffffffffffffffffffffffffffffffffffffff1673ffffffffffffffffffffffffffffffffffffffff168152602001868152602001858152602001848152602001838152602001828152602001965050505050505060405180910390a16121c76000858360405180602001604052806000815250612589565b809250505095945050505050565b60006121df6128fb565b60006121ea426125af565b905060006201000082816121fa57fe5b0690506000601090506000600a9050600060019050600190505b6180008111612380576001830392506001820391506000818561ffff1616146122cb57600a898161224157fe5b0661ffff1686846010811061225257fe5b6020020181815250506002600a838154811061226a57fe5b906000526020600020015414156122c657600281029050600183039250600a898161229157fe5b049850600a888161229e57fe5b049750600a89816122ab57fe5b0661ffff168684601081106122bc57fe5b6020020181815250505b61235b565b600a88816122d557fe5b0661ffff168684601081106122e657fe5b6020020181815250506002600a83815481106122fe57fe5b9060005260206000200154141561235a57600281029050600183039250600a898161232557fe5b049850600a888161233257fe5b049750600a888161233f57fe5b0661ffff1686846010811061235057fe5b6020020181815250505b5b600a898161236557fe5b049850600a888161237257fe5b049750600281029050612214565b6000821461238a57fe5b6000831461239457fe5b6010801461239e57fe5b600086600f601081106123ad57fe5b602002015190506000809050600092505b818310156123ef57600a83815481106123d357fe5b90600052602060002001548101905082806001019350506123be565b6000600a83815481106123fe57fe5b90600052602060002001549050600062010000898161241957fe5b0490506000600a828161242857fe5b069050808b856010811061243857fe5b602002018181525050600283141561247e57600a828161245457fe5b049150600a828161246157fe5b069050808b600186016010811061247457fe5b6020020181815250505b60008096505b60108710156124be578b876010811061249957fe5b602002015181019050600f87146124b157600a810290505b8680600101975050612484565b809c5050505050505050505050505092915050565b60006008600083815260200190815260200160002060009054906101000a900473ffffffffffffffffffffffffffffffffffffffff1673ffffffffffffffffffffffffffffffffffffffff168373ffffffffffffffffffffffffffffffffffffffff1614905092915050565b600061258183836040518060400160405280601e81526020017f536166654d6174683a207375627472616374696f6e206f766572666c6f7700008152506125e7565b905092915050565b612594848484611a62565b6125a0848484846126a7565b6125a957600080fd5b50505050565b60008082604051602001808281526020019150506040516020818303038152906040528051906020012090508060001c915050919050565b6000838311158290612694576040517f08c379a00000000000000000000000000000000000000000000000000000000081526004018080602001828103825283818151815260200191508051906020019080838360005b8381101561265957808201518184015260208101905061263e565b50505050905090810190601f1680156126865780820380516001836020036101000a031916815260200191505b509250505060405180910390fd5b5060008385039050809150509392505050565b60006126b28461288b565b6126bf5760019050612883565b60008473ffffffffffffffffffffffffffffffffffffffff1663150b7a02338887876040518563ffffffff1660e01b8152600401808573ffffffffffffffffffffffffffffffffffffffff1673ffffffffffffffffffffffffffffffffffffffff1681526020018473ffffffffffffffffffffffffffffffffffffffff1673ffffffffffffffffffffffffffffffffffffffff16815260200183815260200180602001828103825283818151815260200191508051906020019080838360005b8381101561279a57808201518184015260208101905061277f565b50505050905090810190601f1680156127c75780820380516001836020036101000a031916815260200191505b5095505050505050602060405180830381600087803b1580156127e957600080fd5b505af11580156127fd573d6000803e3d6000fd5b505050506040513d602081101561281357600080fd5b81019080805190602001909291905050509050604051808061291f602f9139602f01905060405180910390207bffffffffffffffffffffffffffffffffffffffffffffffffffffffff1916817bffffffffffffffffffffffffffffffffffffffffffffffffffffffff1916149150505b949350505050565b600080823b905060008163ffffffff1611915050919050565b6040518060a0016040528060008152602001600067ffffffffffffffff168152602001600067ffffffffffffffff168152602001600067ffffffffffffffff168152602001600067ffffffffffffffff1681525090565b60405180610200016040528060109060208202803883398082019150509050509056fe6f6e455243373231526563656976656428616464726573732c616464726573732c75696e743235362c627974657329a265627a7a723158206f3704f25ac20f40f257d3f4375dc8e6807a0948aef9de8b18ed7f72b55e093964736f6c634300050c0032",
  "source": "pragma solidity 0.5.12;\n\nimport \"./IERC721.sol\";\nimport \"./IERC721Receiver.sol\";\n\nimport \"./Safemath.sol\";\nimport \"./Ownable.sol\";\nimport \"./ArrayUtils.sol\";\n\ncontract KittyContract is IERC721, Ownable {\n\n    using SafeMath for uint256;\n    using ArrayUtils for uint256[];\n\n    struct Kitty {\n        uint256 genes;\n        uint64 birthTime;\n        uint64 mumId;\n        uint64 dadId;\n        uint64 generation;\n    }\n\n    bytes4 internal constant _ERC721_RECEIVED =\n        bytes4(keccak256(\"onERC721Received(address,address,uint256,bytes)\"));\n    bytes4 private constant _INTERFACE_ID_ERC721 = 0x80ac58cd;\n    bytes4 private constant _INTERFACE_ID_ERC165 = 0x01ffc9a7;\n    // Note: bytes4(keccak256('supportsInterface(bytes4) == 0x01ffc9a7'));\n\n    uint64 private constant _GEN0_LIMIT = 10;\n    uint256 private _gen0KittiesCount;\n    string private _name;\n    string private _symbol;\n\n    Kitty[] private _kitties;  \n    mapping(uint256 => address) private _kittiesOwner;\n    mapping(address => uint256) private _ownersKittyCount;\n    mapping(address => uint256[]) private _ownersKittyIds;\n\n    mapping(uint256 => address) private _kittiesApprovedOperator;\n    mapping(address => mapping(address => bool)) private _ownersApprovedOperators;\n\n    event Birth(\n        address owner,\n        uint256 kittenId,\n        uint256 mumId,\n        uint256 dadId,\n        uint256 genes,\n        uint256 generation\n    );\n\n\n// Public & external functions\n\n    constructor(string memory name, string memory symbol) public {\n        _name = name;\n        _symbol = symbol;\n    }\n\n\n    function createKittyGen0(uint256 genes) public onlyOwner {\n        require(_gen0KittiesCount < _GEN0_LIMIT, \"Hit Gen0 creation limit!\");\n        _gen0KittiesCount = _gen0KittiesCount.add(1);\n        _createKitty( 0, 0, 0, genes, msg.sender);\n    }\n\n\n    function breed(uint256 mumId, uint256 dadId) public returns (uint256)\n    {\n        // Ensure that the breeder is owner or guardian of parent cats\n        require(\n            _isOwnerOrApproved(\n                msg.sender,\n                _kittiesOwner[mumId],\n                msg.sender,\n                mumId\n            ),\n            \"Must have access to mother cat!\"\n        );\n        require(\n            _isOwnerOrApproved(\n                msg.sender,\n                _kittiesOwner[dadId],\n                msg.sender,\n                dadId\n            ),\n            \"Must have access to father cat!\"\n        );\n        // require(_isOwner(msg.sender, mumId), \"Must be owner of mother kitty!\")\n        // require(_isOwner(msg.sender, dadId), \"Must be owner of father kitty!\")\n\n        // Detrmine new kitties DNA\n        // uint256 newDna = _basicMixDna(_kitties[mumId].genes, _kitties[dadId].genes);\n        // uint256 newDna = _mixDna(_kitties[mumId].genes, _kitties[dadId].genes);\n\n        // uint256 newDna = _improvedMixDna(_kitties[mumId].genes, _kitties[dadId].genes);\n        // uint256 newDna = _completeMixDna(_kitties[mumId].genes, _kitties[dadId].genes);\n        uint256 newDna = _bestRandomMixDna(_kitties[mumId].genes, _kitties[dadId].genes);\n\n        // Calculate new kitties Generation\n        uint256 mumGen = _kitties[mumId].generation;\n        uint256 dadGen = _kitties[dadId].generation;\n        uint256 newGen;\n        if (mumGen > dadGen)\n            newGen = mumGen.add(1);\n        else newGen = dadGen.add(1);\n\n        // Create the new kitty (with breeder becoming new kitties owner)\n        uint256 newKittyId = _createKitty(\n            mumId,\n            dadId,\n            newGen,\n            newDna,\n            msg.sender\n        );\n        return newKittyId;\n    }\n\n\n    function getKitty(uint256 kittyId) external view returns (\n        uint256 genes,\n        uint64 birthTime, \n        uint64 mumId,\n        uint64 dadId,\n        uint64 generation\n    )\n    {\n        require(_isInExistance(kittyId), \"No such kitty id!\");\n        \n        return (\n            _kitties[kittyId].genes, \n            _kitties[kittyId].birthTime,\n            _kitties[kittyId].mumId, \n            _kitties[kittyId].dadId, \n            _kitties[kittyId].generation\n        );\n    }\n\n\n    function getAllYourKittyIds() external view returns(uint256[] memory) {\n        // Set pointer to owners array of kitty Ids\n        return _ownersKittyIds[msg.sender];\n    }\n\n\n    // IERC165 function implementations\n    function supportsInterface(bytes4 interfaceId) public pure returns (bool) {\n        return (\n            interfaceId == _INTERFACE_ID_ERC721 ||\n            interfaceId == _INTERFACE_ID_ERC165\n        );\n    }\n\n\n    // IERC721 function implementations\n\n    function balanceOf(address owner) external view returns (uint256 balance) {\n        return _ownersKittyCount[owner];\n    }\n\n\n    function totalSupply() external view returns (uint256 total) {\n        return _kitties.length;\n    }\n\n\n    function name() external view returns (string memory tokenName) {\n        return _name;\n    }\n\n\n    function symbol() external view returns (string memory tokenSymbol) {\n        return _symbol;\n    }\n\n\n    function ownerOf(uint256 tokenId) external view returns (address owner) {\n        require(_isInExistance(tokenId), \"Token does not exist!\");\n\n        return _kittiesOwner[tokenId];\n    }\n\n\n    function transfer(address to, uint256 tokenId) external {\n        // Checks\n        require(_isNotZero(to), \"Recipient's address is zero!\");\n        require(to != address(this), \"Recipient is contract address!\");\n        require(_isOwner(msg.sender, tokenId), \"Sender is not token owner!\");\n\n        // Effects: Transfer token\n        _transfer(msg.sender, to, tokenId);\n    }\n\n\n    function approve(address approved, uint256 tokenId) external {\n        require(\n            _isOwner(msg.sender, tokenId) ||\n            _isOperator(_kittiesOwner[tokenId], msg.sender),\n            \"Not token owner, nor operator!\"\n        );\n        require(_isNotZero(approved), \"0 address can't be an approver!\");   // Additional check\n\n        _approve(msg.sender, approved, tokenId);\n    }\n\n\n    function setApprovalForAll(address operator, bool approved) external {\n        require(operator != msg.sender);\n        _setApprovalForAll(msg.sender, operator, approved);\n    }\n\n\n    function getApproved(uint256 tokenId) external view returns (address) {\n        require(_isInExistance(tokenId), \"Token does not exist!\");\n\n        return _kittiesApprovedOperator[tokenId];\n    }\n\n\n    function isApprovedForAll(address owner, address operator)\n        external\n        view\n        returns (bool)\n    {\n        return _isOperator(owner, operator);\n    }\n\n\n    function safeTransferFrom(\n        address from, \n        address to, \n        uint256 tokenId, \n        bytes calldata data\n    )\n        external\n    {  \n        _safeTransferFrom(msg.sender, from, to, tokenId, data);\n    }\n\n\n    function safeTransferFrom(\n        address from,\n        address to,\n        uint256 tokenId\n    )\n        external\n    {\n        _safeTransferFrom(msg.sender, from, to, tokenId, \"\");\n    }\n\n\n    function transferFrom(address from, address to, uint256 tokenId) external {\n        require(\n            _isOwnerOrApproved(msg.sender, from, to, tokenId),\n            \"No authority to transfer token!\"\n        );\n        _transfer(from, to, tokenId);\n    }\n\n\n// Internal & private functions\n\n    function _isOwnerOrApproved(\n        address sender,\n        address from,\n        address to,\n        uint256 tokenId\n    )\n        internal\n        view\n        returns (bool)\n    {\n        require(_isInExistance(tokenId), \"Token doesn't exist!\");\n        require(_isOwner(from, tokenId), \"'from' doesn't own token!\");\n        require(_isNotZero(to), \"Recipient's address is zero!\");\n\n        return (\n            _isOwner(sender, tokenId) ||\n            _isOperator(_kittiesOwner[tokenId], sender) ||\n            _isApproved(sender, tokenId)\n        );\n    }\n\n\n    function _isNotZero(address candidate)\n        internal\n        pure\n        returns (bool notZero)\n    {\n        return (candidate != address(0));\n        // notZero = (candidate != address(0));     // Q. Consider my prefered 'return' method!?\n    }\n\n\n    function _isOwner(address claimer, uint256 tokenId)\n        internal\n        view\n        returns (bool owner)\n    {\n        return (_kittiesOwner[tokenId] == claimer);\n        // owner = (_kittiesOwner[tokenId] == claimer);     // Q. Consider my prefered 'return' method!?\n    }\n\n\n    function _isOperator(address owner, address candidate)\n        internal\n        view\n        returns (bool operator)\n    {\n        return _ownersApprovedOperators[owner][candidate];\n    }\n\n\n    function _isApproved(address candidate, uint256 tokenId)\n        internal\n        view\n        returns (bool approved)\n    {\n        // approved = (candidate == _kittiesApprovedOperator[tokenId]);  // Q. Consider my prefered 'return' method!?\n        return (candidate == _kittiesApprovedOperator[tokenId]);\n    }\n\n\n    function _isInExistance(uint256 tokenId)\n        internal\n        view\n        returns (bool exists)\n    {\n        return (tokenId < _kitties.length);\n    }\n\n\n    function _transfer(address from, address to, uint256 tokenId) internal {\n\n        if (_isNotZero(from)){\n            // Take kittie token from the sender\n            delete _kittiesApprovedOperator[tokenId];\n            _ownersKittyIds[from].removeFrom(tokenId);\n            _ownersKittyCount[from] = _ownersKittyCount[from].sub(1);\n        }\n\n        // Give token to the receiver\n        _ownersKittyIds[to].push(tokenId);\n        _ownersKittyCount[to] = _ownersKittyCount[to].add(1);\n        _kittiesOwner[tokenId] = to;\n\n        emit Transfer(from, to, tokenId);\n    }\n\n\n    function _safeTransferFrom(\n        address sender, \n        address from, \n        address to, \n        uint256 tokenId, \n        bytes memory data\n    )\n        internal\n    {\n        require(\n            _isOwnerOrApproved(sender, from, to, tokenId),\n            \"No authority to transfer token!\"\n        );\n        \n        _safeTransfer(from, to, tokenId, data);\n    }\n\n\n    function _safeTransfer(\n        address from, \n        address to, \n        uint256 tokenId, \n        bytes memory data\n    )\n        internal \n    {\n        _transfer(from, to, tokenId);\n        require(_checkERC721Support(from, to, tokenId, data));\n    }\n\n\n    function _approve(\n        address grantor,\n        address approved,\n        uint256 tokenId\n    )\n        internal\n    {\n        _kittiesApprovedOperator[tokenId] = approved;\n        emit Approval(grantor, approved, tokenId);\n    }\n\n\n    function _setApprovalForAll(\n        address owner,\n        address operator,\n        bool approved\n    )\n        internal\n    {\n        _ownersApprovedOperators[owner][operator] = approved;\n        emit ApprovalForAll(owner, operator, approved);\n    }\n\n\n    function _checkERC721Support(\n        address from,\n        address to,\n        uint256 tokenId,\n        bytes memory data\n    )\n        internal\n// Q.       view // Not view because it could potentailly modify state BUT HOW? (eg. if called external contract called back???)\n        returns (bool)\n    {\n        if (!_isContract(to)) return true;\n\n        // Call onERC721Received in the _to contract\n        bytes4 response = IERC721Receiver(to).onERC721Received(\n            msg.sender,\n            from,\n            tokenId,\n            data\n        );\n        return (response == _ERC721_RECEIVED);\n    }\n\n\n    function _isContract(address to) internal view returns (bool) {\n        uint32 codeSize;\n        assembly{\n            codeSize := extcodesize(to)\n        }\n        return (codeSize > 0);\n    }\n\n\n    function _createKitty(\n        uint256 mumId,\n        uint256 dadId,\n        uint256 generation,\n        uint256 genes,\n        address owner\n    ) \n        private\n        returns (uint256)\n    {\n        Kitty memory newKitty = Kitty(\n            {\n                genes: genes,\n                birthTime: uint64(now),\n                mumId: uint64(mumId),\n                dadId: uint64(dadId),\n                generation: uint64(generation)\n            }\n        );\n        uint256 newKittenId = (_kitties.push(newKitty)).sub(1);\n        emit Birth(owner, newKittenId, mumId, dadId, genes, generation);\n        _safeTransfer(address(0), owner, newKittenId, \"\");\n        // _transfer(address(0), owner, newKittenId);\n        return newKittenId;\n    }\n\n\n\n    function _mixDna(uint256 mumDna, uint256 dadDna) internal view returns (uint256) {\n        uint256[8] memory geneArray;\n        uint8 random = uint8( now % 256 ); // NB. Not 255 -'now % 256' to get numbers 0-255 !\n        uint256 i = 1;\n        uint256 index = 7; // end of array\n\n        // Create gene array (for each 2-digit pair of the 16-digit dna)\n        for (i = 1; i <=128; i= i*2 ) {\n\n            // DNA 16 digits\n            if (random & i != 0) {\n                geneArray[index] = uint8(mumDna % 100);  // %100 to take last two digits\n            } else {\n                geneArray[index] = uint8(dadDna % 100);  // %100 to take last two digits\n            }\n            // remove last two digits of the dna\n            mumDna = mumDna / 100;\n            dadDna = dadDna / 100;\n\n            index = index - 1; // move back one poistion (of 2-digits)\n        } \n\n        uint256 newGene;\n        for (i = 0; i < 8; i++) {\n            newGene = newGene + geneArray[i];  // i=0 is the 2 most significant gene digits\n            if (i != 7) newGene = newGene * 100;\n        }\n\n        return newGene;\n    }\n\n\n    function _improvedMixDna(uint256 mumDna, uint256 dadDna) internal view returns (uint256) {\n        uint256[8] memory geneArray;\n        \n//        uint8 random = uint8( now % 256 );    // Issue using now (seconds since 1970) as only least significant digits change\n        uint256 value = _getHashAsInteger(now); // Resolution: Hash now to get more randomness (assuming 1 sec has pasted since last hash)\n        uint8 random = uint8( value % 256 );    // 2^8 = 256: To take least significant 8 digits\n        \n        uint256 i = 1;\n        uint256 index = 7; // end of array\n\n        // Create gene array (for each 2-digit pair of the 16-digit dna)\n        for (i = 1; i <=128; i= i*2 ) {\n\n            // DNA 16 digits\n            if (random & i != 0) {\n                geneArray[index] = uint8(mumDna % 100);  // %100 to take last two digits\n            } else {\n                geneArray[index] = uint8(dadDna % 100);  // %100 to take last two digits\n            }\n            // remove last two digits of the dna\n            mumDna = mumDna / 100;\n            dadDna = dadDna / 100;\n\n            index = index - 1; // move back one poistion (of 2-digits)\n        } \n\n        // Construct the new (16-digit) dna number (from 8 x 2-digit genes)\n        uint256 newGene;\n        for (i = 0; i < 8; i++) {\n            newGene = newGene + geneArray[i];  // i=0 is the 2 most significant gene digits\n            if (i != 7) newGene = newGene * 100;\n        }\n\n        return newGene;\n    }    \n    \n\n    function _getHashAsInteger(uint value) internal pure returns (uint256) {\n        bytes32 hash = keccak256(abi.encodePacked(value));\n        return uint256(hash);\n    }\n\n\n    function _completeMixDna(uint256 mumDna, uint256 dadDna) internal view returns (uint256) {\n    // Mixing all digits of 16 digit dna.  Note: For two-digit trait values (eg. colour) there's \n    // a 50% chance of inheritance from either mother or father and 50% chance of another value\n    // (this other 2-digit value is composed of the most significant digit from the one parent, and\n    // the least significant digit from the other parrent - eg. mum 52, dad 93 may give 53 or 92).\n        uint256[16] memory geneArray;\n        \n        //  Replaced code below (with hash of now instead)        \n        // uint8 random = uint8( now % 256 ); \n        // Initialy with following line but then this also replaced with hash of now pseudo-random number\n        // uint16 random = uint16( now % 65536 ); // 2^16 = 65536: To take 16 least-significant digits\n\n        // Calculate pseudo-random by hashing the time now \n        uint256 value = _getHashAsInteger(now);\n        uint16 random = uint16( value % 65536 ); // 2^&16 = 65536: To take 16 least-significant digits\n        \n        uint256 i = 1;\n        uint256 index = 15; // end of array\n\n\n        // Create gene array (for each 2-digit pair of the 16-digit dna)\n        // for (i = 1; i <=128; i= i*2 ) {\n            \n        // Create gene array (for each digit of the 16-digit dna)\n            // Note: most-significant digit's value of 16-digit binary number = 2^15 = 32,768\n            //      most-significant digit's value of 8-digit binary number = 2^7 = 128\n        for (i = 1; i <=32768; i= i*2 ) {\n            \n            if (random & i != 0) {                      // Select mum's gene\n                geneArray[index] = uint16(mumDna % 10);  // Get least-significant digit\n            } else {                                    // Select dad's gene\n                geneArray[index] = uint16(dadDna % 10);  // Get least-significant digit\n            }\n            \n            // Remove the processed least-significant digit\n            mumDna = mumDna / 10;\n            dadDna = dadDna / 10;\n\n            index = index - 1; \n        } \n\n        // Construct the new (16-digit) dna number (from individual gene digits)\n        uint256 newGene;\n        for (i = 0; i < 16; i++) {\n            newGene = newGene + geneArray[i];  // i=0 is the most-significant gene digit\n            if (i != 15) newGene = newGene * 10;\n        }\n\n        return newGene;\n    }\n    \n\n// Addition state variable for function _bestRandomMixDna(...)\n    uint256[] private _dnaFormat = [2,2,2,2,1,1,2,2,1,1];\n\n    function _bestRandomMixDna(uint256 mumDna, uint256 dadDna) internal view returns (uint256) {\n    // Randomly mixing parent dna.  Accounting for two-digit each trait values (eg. head colour).\n    // After creating new DNA, one of its gene values is randomised. This target gene is specified\n    // by the last digit of the dna number.\n    // For example, if last digit is 0, randomise most-significant digits 1&2 (as 2-digit gene);\n    // if last digit is 4, randomise digit 9 (as a 1-digit gene); and\n    // if last digit is 9, randomise last (least-significant) digit.\n\n        uint256[16] memory newDna;\n\n        // Get pseudo-random 16-digit number \n        uint256 value = _getHashAsInteger(now);\n        uint16 random = uint16( value % 65536 ); // 2^&16 = 65536: To take 16 least-significant digits\n        \n        // initialise counters for processing dna\n        uint256 index = 16;         // counter for 16 digit dna digits\n        uint256 geneNumber = 10;    // counter for 10 genes in dna\n        uint256 i = 1;      \n        \n        // Mix dna of parents, from least-significant dna digit, gene by gene\n        for (i = 1; i <=32768; i= i*2 ) {\n            index = index - 1;\n            geneNumber = geneNumber - 1;\n            if (random & i != 0) {                      // Mum's gene selected\n                newDna[index] = uint16(mumDna % 10); \n                if (_dnaFormat[geneNumber] == 2) {       // Take second gene digit from mum\n                    // Move on past processed first digit (of 2-digit value)\n                    i = i * 2;\n                    index = index - 1; \n                    mumDna = mumDna / 10;\n                    dadDna = dadDna / 10;\n                    // Store second digit of mum's gene value\n                    newDna[index] = uint16(mumDna % 10);\n                }\n            } else {                                    // Dad's gene selected\n                newDna[index] = uint16(dadDna % 10);\n                if (_dnaFormat[geneNumber] == 2) {       // Also take second gene digit from daa\n                    // Move on past processed first digit (of 2-digit value)\n                    i = i * 2;\n                    index = index - 1; \n                    mumDna = mumDna / 10;\n                    dadDna = dadDna / 10;\n                    // Store second digit of dad's gene value\n                    newDna[index] = uint16(dadDna % 10);\n                }\n            }\n            \n            // Move past the last processed digit, ready for next gene value\n            mumDna = mumDna / 10;\n            dadDna = dadDna / 10;\n        }\n        assert(geneNumber == 0);        // processed all 10 genes, as counted down by geneNumber\n        assert(index == 0);             // processed all 16 digits, as counted down by index\n        assert(newDna.length == 16);    // newDna string has been constructed to correct length\n        \n        \n    // Randomise one gene value - as indicated by last (single digit) gene in dna\n        // Target gene that is to be randomised\n        uint256 targetGene = newDna[15];\n        \n        // Find this target gene in the dna\n        uint256 dnaPos = 0;\n        for (i = 0; i < targetGene; i++) {\n           dnaPos = dnaPos + _dnaFormat[i];\n        }\n        uint256 geneDigits = _dnaFormat[targetGene];\n        \n        // Remove used digits from random value\n        uint256 unusedDigits = value / 65536;  // 2^&16 = 65,536\n        uint256 randomDigit = unusedDigits % 10;\n        \n        // Randomise the digit(s) of this target gene\n        newDna[dnaPos] = randomDigit;\n        if (geneDigits == 2) { \n            unusedDigits = unusedDigits / 10;\n            randomDigit = unusedDigits % 10;\n            newDna[dnaPos+1] = randomDigit;\n        }\n    // Done remdomising single gene\n\n        // Construct the new (16-digit) dna number (from individual gene digits)\n        uint256 newGene;\n        for (i = 0; i < 16; i++) {\n            newGene = newGene + newDna[i];  // i=0 is the most-significant gene digit\n            if (i != 15) newGene = newGene * 10;\n        }\n\n        return newGene;\n    }\n\n\n\n\n    function _basicMixDna(uint256 mumDna, uint256 dadDna) internal pure returns (uint256) {\n        // Mum: 1122334455667788\n        // Dad: 8877665544332211\n        \n        uint256 firstEightDigits = mumDna.div(100000000);  // 11223344\n        uint256 lastEightDigits = dadDna % 100000000;   // 44332211\n\n        uint256 newDna = (firstEightDigits.mul(100000000)).add(lastEightDigits); // 1122334444332211\n\n        return newDna;\n    }\n\n/*  Working out basic algorithm:\n            // Decimal:       1         2,      4,       8,       16,      32,       64,      128\n            // Binary: 00000001, 00000010, 00000100, 00001000, 00010000, 001000000, 01000000, 10000000\n\n            //Eg. In binary a random number may be 11001011\n            Algorithm:\n            Check each bit in turn (starting with least-significant bit)\n            E.g for fourth bit 00001000]\n                mum: 11001011\n                        &\n                dad: 00001000 = 00001000 (result)\n\n            if (result == 0) use mum gene\n            if (result == 1) use dad gene\n*/\n\n}\n\n",
  "sourcePath": "/Users/Mark/Documents/BlockChain/IvanOnTechAcademy/Bootcamp/CryptoKitties-Clone/contracts/KittyContract.sol",
  "compiler": {
    "name": "solc",
    "version": "0.5.12+commit.7709ece9.Emscripten.clang"
  },
  "schemaVersion": "3.2.0",
  "updatedAt": "2021-03-31T01:24:53.151Z",
  "networkType": "ethereum",
  "devdoc": {
    "methods": {}
  },
  "userdoc": {
    "methods": {}
  }
}