{
  "contractName": "KittyContract",
  "abi": [
    {
      "inputs": [
        {
          "internalType": "string",
          "name": "name",
          "type": "string"
        },
        {
          "internalType": "string",
          "name": "symbol",
          "type": "string"
        }
      ],
      "payable": false,
      "stateMutability": "nonpayable",
      "type": "constructor"
    },
    {
      "anonymous": false,
      "inputs": [
        {
          "indexed": true,
          "internalType": "address",
          "name": "owner",
          "type": "address"
        },
        {
          "indexed": true,
          "internalType": "address",
          "name": "approved",
          "type": "address"
        },
        {
          "indexed": true,
          "internalType": "uint256",
          "name": "tokenId",
          "type": "uint256"
        }
      ],
      "name": "Approval",
      "type": "event"
    },
    {
      "anonymous": false,
      "inputs": [
        {
          "indexed": true,
          "internalType": "address",
          "name": "owner",
          "type": "address"
        },
        {
          "indexed": true,
          "internalType": "address",
          "name": "operator",
          "type": "address"
        },
        {
          "indexed": false,
          "internalType": "bool",
          "name": "approved",
          "type": "bool"
        }
      ],
      "name": "ApprovalForAll",
      "type": "event"
    },
    {
      "anonymous": false,
      "inputs": [
        {
          "indexed": false,
          "internalType": "address",
          "name": "owner",
          "type": "address"
        },
        {
          "indexed": false,
          "internalType": "uint256",
          "name": "kittenId",
          "type": "uint256"
        },
        {
          "indexed": false,
          "internalType": "uint256",
          "name": "mumId",
          "type": "uint256"
        },
        {
          "indexed": false,
          "internalType": "uint256",
          "name": "dadId",
          "type": "uint256"
        },
        {
          "indexed": false,
          "internalType": "uint256",
          "name": "genes",
          "type": "uint256"
        },
        {
          "indexed": false,
          "internalType": "uint256",
          "name": "generation",
          "type": "uint256"
        }
      ],
      "name": "Birth",
      "type": "event"
    },
    {
      "anonymous": false,
      "inputs": [
        {
          "indexed": true,
          "internalType": "address",
          "name": "from",
          "type": "address"
        },
        {
          "indexed": true,
          "internalType": "address",
          "name": "to",
          "type": "address"
        },
        {
          "indexed": true,
          "internalType": "uint256",
          "name": "tokenId",
          "type": "uint256"
        }
      ],
      "name": "Transfer",
      "type": "event"
    },
    {
      "constant": true,
      "inputs": [],
      "name": "getContractOwner",
      "outputs": [
        {
          "internalType": "address",
          "name": "",
          "type": "address"
        }
      ],
      "payable": false,
      "stateMutability": "view",
      "type": "function"
    },
    {
      "constant": false,
      "inputs": [
        {
          "internalType": "uint256",
          "name": "genes",
          "type": "uint256"
        }
      ],
      "name": "createKittyGen0",
      "outputs": [],
      "payable": false,
      "stateMutability": "nonpayable",
      "type": "function"
    },
    {
      "constant": false,
      "inputs": [
        {
          "internalType": "uint256",
          "name": "mumId",
          "type": "uint256"
        },
        {
          "internalType": "uint256",
          "name": "dadId",
          "type": "uint256"
        }
      ],
      "name": "breed",
      "outputs": [
        {
          "internalType": "uint256",
          "name": "",
          "type": "uint256"
        }
      ],
      "payable": false,
      "stateMutability": "nonpayable",
      "type": "function"
    },
    {
      "constant": true,
      "inputs": [
        {
          "internalType": "uint256",
          "name": "kittyId",
          "type": "uint256"
        }
      ],
      "name": "getKitty",
      "outputs": [
        {
          "internalType": "uint256",
          "name": "genes",
          "type": "uint256"
        },
        {
          "internalType": "uint64",
          "name": "birthTime",
          "type": "uint64"
        },
        {
          "internalType": "uint64",
          "name": "mumId",
          "type": "uint64"
        },
        {
          "internalType": "uint64",
          "name": "dadId",
          "type": "uint64"
        },
        {
          "internalType": "uint64",
          "name": "generation",
          "type": "uint64"
        }
      ],
      "payable": false,
      "stateMutability": "view",
      "type": "function"
    },
    {
      "constant": true,
      "inputs": [],
      "name": "getAllYourKittyIds",
      "outputs": [
        {
          "internalType": "uint256[]",
          "name": "",
          "type": "uint256[]"
        }
      ],
      "payable": false,
      "stateMutability": "view",
      "type": "function"
    },
    {
      "constant": true,
      "inputs": [
        {
          "internalType": "bytes4",
          "name": "interfaceId",
          "type": "bytes4"
        }
      ],
      "name": "supportsInterface",
      "outputs": [
        {
          "internalType": "bool",
          "name": "",
          "type": "bool"
        }
      ],
      "payable": false,
      "stateMutability": "pure",
      "type": "function"
    },
    {
      "constant": true,
      "inputs": [
        {
          "internalType": "address",
          "name": "owner",
          "type": "address"
        }
      ],
      "name": "balanceOf",
      "outputs": [
        {
          "internalType": "uint256",
          "name": "",
          "type": "uint256"
        }
      ],
      "payable": false,
      "stateMutability": "view",
      "type": "function"
    },
    {
      "constant": true,
      "inputs": [],
      "name": "totalSupply",
      "outputs": [
        {
          "internalType": "uint256",
          "name": "",
          "type": "uint256"
        }
      ],
      "payable": false,
      "stateMutability": "view",
      "type": "function"
    },
    {
      "constant": true,
      "inputs": [],
      "name": "name",
      "outputs": [
        {
          "internalType": "string",
          "name": "",
          "type": "string"
        }
      ],
      "payable": false,
      "stateMutability": "view",
      "type": "function"
    },
    {
      "constant": true,
      "inputs": [],
      "name": "symbol",
      "outputs": [
        {
          "internalType": "string",
          "name": "",
          "type": "string"
        }
      ],
      "payable": false,
      "stateMutability": "view",
      "type": "function"
    },
    {
      "constant": true,
      "inputs": [
        {
          "internalType": "uint256",
          "name": "tokenId",
          "type": "uint256"
        }
      ],
      "name": "ownerOf",
      "outputs": [
        {
          "internalType": "address",
          "name": "",
          "type": "address"
        }
      ],
      "payable": false,
      "stateMutability": "view",
      "type": "function"
    },
    {
      "constant": false,
      "inputs": [
        {
          "internalType": "address",
          "name": "to",
          "type": "address"
        },
        {
          "internalType": "uint256",
          "name": "tokenId",
          "type": "uint256"
        }
      ],
      "name": "transfer",
      "outputs": [],
      "payable": false,
      "stateMutability": "nonpayable",
      "type": "function"
    },
    {
      "constant": false,
      "inputs": [
        {
          "internalType": "address",
          "name": "approved",
          "type": "address"
        },
        {
          "internalType": "uint256",
          "name": "tokenId",
          "type": "uint256"
        }
      ],
      "name": "approve",
      "outputs": [],
      "payable": false,
      "stateMutability": "nonpayable",
      "type": "function"
    },
    {
      "constant": false,
      "inputs": [
        {
          "internalType": "address",
          "name": "operator",
          "type": "address"
        },
        {
          "internalType": "bool",
          "name": "approved",
          "type": "bool"
        }
      ],
      "name": "setApprovalForAll",
      "outputs": [],
      "payable": false,
      "stateMutability": "nonpayable",
      "type": "function"
    },
    {
      "constant": true,
      "inputs": [
        {
          "internalType": "uint256",
          "name": "tokenId",
          "type": "uint256"
        }
      ],
      "name": "getApproved",
      "outputs": [
        {
          "internalType": "address",
          "name": "",
          "type": "address"
        }
      ],
      "payable": false,
      "stateMutability": "view",
      "type": "function"
    },
    {
      "constant": true,
      "inputs": [
        {
          "internalType": "address",
          "name": "owner",
          "type": "address"
        },
        {
          "internalType": "address",
          "name": "operator",
          "type": "address"
        }
      ],
      "name": "isApprovedForAll",
      "outputs": [
        {
          "internalType": "bool",
          "name": "",
          "type": "bool"
        }
      ],
      "payable": false,
      "stateMutability": "view",
      "type": "function"
    },
    {
      "constant": false,
      "inputs": [
        {
          "internalType": "address",
          "name": "from",
          "type": "address"
        },
        {
          "internalType": "address",
          "name": "to",
          "type": "address"
        },
        {
          "internalType": "uint256",
          "name": "tokenId",
          "type": "uint256"
        }
      ],
      "name": "safeTransferFrom",
      "outputs": [],
      "payable": false,
      "stateMutability": "nonpayable",
      "type": "function"
    },
    {
      "constant": false,
      "inputs": [
        {
          "internalType": "address",
          "name": "from",
          "type": "address"
        },
        {
          "internalType": "address",
          "name": "to",
          "type": "address"
        },
        {
          "internalType": "uint256",
          "name": "tokenId",
          "type": "uint256"
        },
        {
          "internalType": "bytes",
          "name": "data",
          "type": "bytes"
        }
      ],
      "name": "safeTransferFrom",
      "outputs": [],
      "payable": false,
      "stateMutability": "nonpayable",
      "type": "function"
    },
    {
      "constant": false,
      "inputs": [
        {
          "internalType": "address",
          "name": "from",
          "type": "address"
        },
        {
          "internalType": "address",
          "name": "to",
          "type": "address"
        },
        {
          "internalType": "uint256",
          "name": "tokenId",
          "type": "uint256"
        }
      ],
      "name": "transferFrom",
      "outputs": [],
      "payable": false,
      "stateMutability": "nonpayable",
      "type": "function"
    }
  ],
  "bytecode": "0x6080604052604051806101400160405280600260ff168152602001600260ff168152602001600260ff168152602001600260ff168152602001600160ff168152602001600160ff168152602001600260ff168152602001600260ff168152602001600160ff168152602001600160ff16815250600190600a62000084929190620002b0565b503480156200009257600080fd5b50604051620031373803806200313783398181016040526040811015620000b857600080fd5b8101908080516040519392919084640100000000821115620000d957600080fd5b83820191506020820185811115620000f057600080fd5b82518660018202830111640100000000821117156200010e57600080fd5b8083526020830192505050908051906020019080838360005b838110156200014457808201518184015260208101905062000127565b50505050905090810190601f168015620001725780820380516001836020036101000a031916815260200191505b50604052602001805160405193929190846401000000008211156200019657600080fd5b83820191506020820185811115620001ad57600080fd5b8251866001820283011164010000000082111715620001cb57600080fd5b8083526020830192505050908051906020019080838360005b8381101562000201578082015181840152602081019050620001e4565b50505050905090810190601f1680156200022f5780820380516001836020036101000a031916815260200191505b50604052505050336000806101000a81548173ffffffffffffffffffffffffffffffffffffffff021916908373ffffffffffffffffffffffffffffffffffffffff16021790555081600390805190602001906200028e92919062000307565b508060049080519060200190620002a792919062000307565b505050620003b6565b828054828255906000526020600020908101928215620002f4579160200282015b82811115620002f3578251829060ff16905591602001919060010190620002d1565b5b5090506200030391906200038e565b5090565b828054600181600116156101000203166002900490600052602060002090601f016020900481019282601f106200034a57805160ff19168380011785556200037b565b828001600101855582156200037b579182015b828111156200037a5782518255916020019190600101906200035d565b5b5090506200038a91906200038e565b5090565b620003b391905b80821115620003af57600081600090555060010162000395565b5090565b90565b612d7180620003c66000396000f3fe608060405234801561001057600080fd5b50600436106101215760003560e01c80636352211e116100ad578063b88d4fde11610071578063b88d4fde14610654578063d5a776ca14610717578063d9ecad7b14610745578063e985e9c514610791578063e98b7f4d1461080d57610121565b80636352211e1461046d57806370a08231146104db57806395d89b4114610533578063a22cb465146105b6578063a9059cbb1461060657610121565b806318160ddd116100f457806318160ddd146102ca5780631d526e18146102e857806323b872dd1461034757806342842e0e146103b5578063442890d51461042357610121565b806301ffc9a71461012657806306fdde031461018b578063081812fc1461020e578063095ea7b31461027c575b600080fd5b6101716004803603602081101561013c57600080fd5b8101908080357bffffffffffffffffffffffffffffffffffffffffffffffffffffffff191690602001909291905050506108bb565b604051808215151515815260200191505060405180910390f35b61019361095b565b6040518080602001828103825283818151815260200191508051906020019080838360005b838110156101d35780820151818401526020810190506101b8565b50505050905090810190601f1680156102005780820380516001836020036101000a031916815260200191505b509250505060405180910390f35b61023a6004803603602081101561022457600080fd5b81019080803590602001909291905050506109fd565b604051808273ffffffffffffffffffffffffffffffffffffffff1673ffffffffffffffffffffffffffffffffffffffff16815260200191505060405180910390f35b6102c86004803603604081101561029257600080fd5b81019080803573ffffffffffffffffffffffffffffffffffffffff16906020019092919080359060200190929190505050610ab5565b005b6102d2610bff565b6040518082815260200191505060405180910390f35b6102f0610c0c565b6040518080602001828103825283818151815260200191508051906020019060200280838360005b83811015610333578082015181840152602081019050610318565b505050509050019250505060405180910390f35b6103b36004803603606081101561035d57600080fd5b81019080803573ffffffffffffffffffffffffffffffffffffffff169060200190929190803573ffffffffffffffffffffffffffffffffffffffff16906020019092919080359060200190929190505050610ca1565b005b610421600480360360608110156103cb57600080fd5b81019080803573ffffffffffffffffffffffffffffffffffffffff169060200190929190803573ffffffffffffffffffffffffffffffffffffffff16906020019092919080359060200190929190505050610d2f565b005b61042b610d50565b604051808273ffffffffffffffffffffffffffffffffffffffff1673ffffffffffffffffffffffffffffffffffffffff16815260200191505060405180910390f35b6104996004803603602081101561048357600080fd5b8101908080359060200190929190505050610d79565b604051808273ffffffffffffffffffffffffffffffffffffffff1673ffffffffffffffffffffffffffffffffffffffff16815260200191505060405180910390f35b61051d600480360360208110156104f157600080fd5b81019080803573ffffffffffffffffffffffffffffffffffffffff169060200190929190505050610e31565b6040518082815260200191505060405180910390f35b61053b610e7a565b6040518080602001828103825283818151815260200191508051906020019080838360005b8381101561057b578082015181840152602081019050610560565b50505050905090810190601f1680156105a85780820380516001836020036101000a031916815260200191505b509250505060405180910390f35b610604600480360360408110156105cc57600080fd5b81019080803573ffffffffffffffffffffffffffffffffffffffff169060200190929190803515159060200190929190505050610f1c565b005b6106526004803603604081101561061c57600080fd5b81019080803573ffffffffffffffffffffffffffffffffffffffff16906020019092919080359060200190929190505050610f64565b005b6107156004803603608081101561066a57600080fd5b81019080803573ffffffffffffffffffffffffffffffffffffffff169060200190929190803573ffffffffffffffffffffffffffffffffffffffff16906020019092919080359060200190929190803590602001906401000000008111156106d157600080fd5b8201836020820111156106e357600080fd5b8035906020019184600183028401116401000000008311171561070557600080fd5b909192939192939050505061110c565b005b6107436004803603602081101561072d57600080fd5b8101908080359060200190929190505050611164565b005b61077b6004803603604081101561075b57600080fd5b81019080803590602001909291908035906020019092919050505061126e565b6040518082815260200191505060405180910390f35b6107f3600480360360408110156107a757600080fd5b81019080803573ffffffffffffffffffffffffffffffffffffffff169060200190929190803573ffffffffffffffffffffffffffffffffffffffff1690602001909291905050506114fa565b604051808215151515815260200191505060405180910390f35b6108396004803603602081101561082357600080fd5b810190808035906020019092919050505061150e565b604051808681526020018567ffffffffffffffff1667ffffffffffffffff1681526020018467ffffffffffffffff1667ffffffffffffffff1681526020018367ffffffffffffffff1667ffffffffffffffff1681526020018267ffffffffffffffff1667ffffffffffffffff1681526020019550505050505060405180910390f35b60006380ac58cd60e01b7bffffffffffffffffffffffffffffffffffffffffffffffffffffffff1916827bffffffffffffffffffffffffffffffffffffffffffffffffffffffff1916148061095457506301ffc9a760e01b7bffffffffffffffffffffffffffffffffffffffffffffffffffffffff1916827bffffffffffffffffffffffffffffffffffffffffffffffffffffffff1916145b9050919050565b606060038054600181600116156101000203166002900480601f0160208091040260200160405190810160405280929190818152602001828054600181600116156101000203166002900480156109f35780601f106109c8576101008083540402835291602001916109f3565b820191906000526020600020905b8154815290600101906020018083116109d657829003601f168201915b5050505050905090565b6000610a088261168f565b610a7a576040517f08c379a00000000000000000000000000000000000000000000000000000000081526004018080602001828103825260158152602001807f546f6b656e20646f6573206e6f7420657869737421000000000000000000000081525060200191505060405180910390fd5b6009600083815260200190815260200160002060009054906101000a900473ffffffffffffffffffffffffffffffffffffffff169050919050565b610abf33826116a0565b80610b035750610b026006600083815260200190815260200160002060009054906101000a900473ffffffffffffffffffffffffffffffffffffffff163361170c565b5b610b75576040517f08c379a000000000000000000000000000000000000000000000000000000000815260040180806020018281038252601e8152602001807f4e6f7420746f6b656e206f776e65722c206e6f72206f70657261746f7221000081525060200191505060405180910390fd5b610b7e826117a0565b610bf0576040517f08c379a000000000000000000000000000000000000000000000000000000000815260040180806020018281038252601f8152602001807f3020616464726573732063616e277420626520616e20617070726f766572210081525060200191505060405180910390fd5b610bfb3383836117d9565b5050565b6000600580549050905090565b6060600860003373ffffffffffffffffffffffffffffffffffffffff1673ffffffffffffffffffffffffffffffffffffffff168152602001908152602001600020805480602002602001604051908101604052809291908181526020018280548015610c9757602002820191906000526020600020905b815481526020019060010190808311610c83575b5050505050905090565b610cad3384848461188b565b610d1f576040517f08c379a000000000000000000000000000000000000000000000000000000000815260040180806020018281038252601f8152602001807f4e6f20617574686f7269747920746f207472616e7366657220746f6b656e210081525060200191505060405180910390fd5b610d2a838383611a68565b505050565b610d4b3384848460405180602001604052806000815250611da3565b505050565b60008060009054906101000a900473ffffffffffffffffffffffffffffffffffffffff16905090565b6000610d848261168f565b610df6576040517f08c379a00000000000000000000000000000000000000000000000000000000081526004018080602001828103825260158152602001807f546f6b656e20646f6573206e6f7420657869737421000000000000000000000081525060200191505060405180910390fd5b6006600083815260200190815260200160002060009054906101000a900473ffffffffffffffffffffffffffffffffffffffff169050919050565b6000600760008373ffffffffffffffffffffffffffffffffffffffff1673ffffffffffffffffffffffffffffffffffffffff168152602001908152602001600020549050919050565b606060048054600181600116156101000203166002900480601f016020809104026020016040519081016040528092919081815260200182805460018160011615610100020316600290048015610f125780601f10610ee757610100808354040283529160200191610f12565b820191906000526020600020905b815481529060010190602001808311610ef557829003601f168201915b5050505050905090565b3373ffffffffffffffffffffffffffffffffffffffff168273ffffffffffffffffffffffffffffffffffffffff161415610f5557600080fd5b610f60338383611e34565b5050565b610f6d826117a0565b610fdf576040517f08c379a000000000000000000000000000000000000000000000000000000000815260040180806020018281038252601c8152602001807f526563697069656e7427732061646472657373206973207a65726f210000000081525060200191505060405180910390fd5b3073ffffffffffffffffffffffffffffffffffffffff168273ffffffffffffffffffffffffffffffffffffffff161415611081576040517f08c379a000000000000000000000000000000000000000000000000000000000815260040180806020018281038252601e8152602001807f526563697069656e7420697320636f6e7472616374206164647265737321000081525060200191505060405180910390fd5b61108b33826116a0565b6110fd576040517f08c379a000000000000000000000000000000000000000000000000000000000815260040180806020018281038252601a8152602001807f53656e646572206973206e6f7420746f6b656e206f776e65722100000000000081525060200191505060405180910390fd5b611108338383611a68565b5050565b61115d3386868686868080601f016020809104026020016040519081016040528093929190818152602001838380828437600081840152601f19601f82011690508083019250505050505050611da3565b5050505050565b6000809054906101000a900473ffffffffffffffffffffffffffffffffffffffff1673ffffffffffffffffffffffffffffffffffffffff163373ffffffffffffffffffffffffffffffffffffffff16146111bd57600080fd5b600a67ffffffffffffffff166002541061123f576040517f08c379a00000000000000000000000000000000000000000000000000000000081526004018080602001828103825260188152602001807f4869742047656e30206372656174696f6e206c696d697421000000000000000081525060200191505060405180910390fd5b6112556001600254611f3690919063ffffffff16565b60028190555061126a60008060008433611fbe565b5050565b60006112af336006600086815260200190815260200160002060009054906101000a900473ffffffffffffffffffffffffffffffffffffffff16338661188b565b611321576040517f08c379a000000000000000000000000000000000000000000000000000000000815260040180806020018281038252601f8152602001807f4d75737420686176652061636365737320746f206d6f7468657220636174210081525060200191505060405180910390fd5b611360336006600085815260200190815260200160002060009054906101000a900473ffffffffffffffffffffffffffffffffffffffff16338561188b565b6113d2576040517f08c379a000000000000000000000000000000000000000000000000000000000815260040180806020018281038252601f8152602001807f4d75737420686176652061636365737320746f2066617468657220636174210081525060200191505060405180910390fd5b600061141a600585815481106113e457fe5b9060005260206000209060020201600001546005858154811061140357fe5b9060005260206000209060020201600001546121db565b905060006005858154811061142b57fe5b906000526020600020906002020160010160189054906101000a900467ffffffffffffffff1667ffffffffffffffff16905060006005858154811061146c57fe5b906000526020600020906002020160010160189054906101000a900467ffffffffffffffff1667ffffffffffffffff16905060006114d960016114cb60026114bd8688611f3690919063ffffffff16565b61260090919063ffffffff16565b611f3690919063ffffffff16565b905060006114ea8888848833611fbe565b9050809550505050505092915050565b6000611506838361170c565b905092915050565b600080600080600061151f8661168f565b611591576040517f08c379a00000000000000000000000000000000000000000000000000000000081526004018080602001828103825260118152602001807f4e6f2073756368206b697474792069642100000000000000000000000000000081525060200191505060405180910390fd5b6005868154811061159e57fe5b906000526020600020906002020160000154600587815481106115bd57fe5b906000526020600020906002020160010160009054906101000a900467ffffffffffffffff16600588815481106115f057fe5b906000526020600020906002020160010160089054906101000a900467ffffffffffffffff166005898154811061162357fe5b906000526020600020906002020160010160109054906101000a900467ffffffffffffffff1660058a8154811061165657fe5b906000526020600020906002020160010160189054906101000a900467ffffffffffffffff169450945094509450945091939590929450565b600060058054905082109050919050565b60008273ffffffffffffffffffffffffffffffffffffffff166006600084815260200190815260200160002060009054906101000a900473ffffffffffffffffffffffffffffffffffffffff1673ffffffffffffffffffffffffffffffffffffffff1614905092915050565b6000600a60008473ffffffffffffffffffffffffffffffffffffffff1673ffffffffffffffffffffffffffffffffffffffff16815260200190815260200160002060008373ffffffffffffffffffffffffffffffffffffffff1673ffffffffffffffffffffffffffffffffffffffff16815260200190815260200160002060009054906101000a900460ff16905092915050565b60008073ffffffffffffffffffffffffffffffffffffffff168273ffffffffffffffffffffffffffffffffffffffff1614159050919050565b816009600083815260200190815260200160002060006101000a81548173ffffffffffffffffffffffffffffffffffffffff021916908373ffffffffffffffffffffffffffffffffffffffff160217905550808273ffffffffffffffffffffffffffffffffffffffff168473ffffffffffffffffffffffffffffffffffffffff167f8c5be1e5ebec7d5bd14f71427d1e84f3dd0314c0f7b2291e5b200ac8c7c3b92560405160405180910390a4505050565b60006118968261168f565b611908576040517f08c379a00000000000000000000000000000000000000000000000000000000081526004018080602001828103825260148152602001807f546f6b656e20646f65736e27742065786973742100000000000000000000000081525060200191505060405180910390fd5b61191284836116a0565b611984576040517f08c379a00000000000000000000000000000000000000000000000000000000081526004018080602001828103825260198152602001807f2766726f6d2720646f65736e2774206f776e20746f6b656e210000000000000081525060200191505060405180910390fd5b61198d836117a0565b6119ff576040517f08c379a000000000000000000000000000000000000000000000000000000000815260040180806020018281038252601c8152602001807f526563697069656e7427732061646472657373206973207a65726f210000000081525060200191505060405180910390fd5b611a0985836116a0565b80611a4d5750611a4c6006600084815260200190815260200160002060009054906101000a900473ffffffffffffffffffffffffffffffffffffffff168661170c565b5b80611a5e5750611a5d858361264a565b5b9050949350505050565b611a71836117a0565b15611bf2576009600082815260200190815260200160002060006101000a81549073ffffffffffffffffffffffffffffffffffffffff0219169055600860008473ffffffffffffffffffffffffffffffffffffffff1673ffffffffffffffffffffffffffffffffffffffff16815260200190815260200160002073__ArrayUtils____________________________6359b4521f9091836040518363ffffffff1660e01b8152600401808381526020018281526020019250505060006040518083038186803b158015611b4357600080fd5b505af4158015611b57573d6000803e3d6000fd5b50505050611bae6001600760008673ffffffffffffffffffffffffffffffffffffffff1673ffffffffffffffffffffffffffffffffffffffff168152602001908152602001600020546126b690919063ffffffff16565b600760008573ffffffffffffffffffffffffffffffffffffffff1673ffffffffffffffffffffffffffffffffffffffff168152602001908152602001600020819055505b600860008373ffffffffffffffffffffffffffffffffffffffff1673ffffffffffffffffffffffffffffffffffffffff168152602001908152602001600020819080600181540180825580915050906001820390600052602060002001600090919290919091505550611cae6001600760008573ffffffffffffffffffffffffffffffffffffffff1673ffffffffffffffffffffffffffffffffffffffff16815260200190815260200160002054611f3690919063ffffffff16565b600760008473ffffffffffffffffffffffffffffffffffffffff1673ffffffffffffffffffffffffffffffffffffffff16815260200190815260200160002081905550816006600083815260200190815260200160002060006101000a81548173ffffffffffffffffffffffffffffffffffffffff021916908373ffffffffffffffffffffffffffffffffffffffff160217905550808273ffffffffffffffffffffffffffffffffffffffff168473ffffffffffffffffffffffffffffffffffffffff167fddf252ad1be2c89b69c2b068fc378daa952ba7f163c4a11628f55a4df523b3ef60405160405180910390a4505050565b611daf8585858561188b565b611e21576040517f08c379a000000000000000000000000000000000000000000000000000000000815260040180806020018281038252601f8152602001807f4e6f20617574686f7269747920746f207472616e7366657220746f6b656e210081525060200191505060405180910390fd5b611e2d84848484612700565b5050505050565b80600a60008573ffffffffffffffffffffffffffffffffffffffff1673ffffffffffffffffffffffffffffffffffffffff16815260200190815260200160002060008473ffffffffffffffffffffffffffffffffffffffff1673ffffffffffffffffffffffffffffffffffffffff16815260200190815260200160002060006101000a81548160ff0219169083151502179055508173ffffffffffffffffffffffffffffffffffffffff168373ffffffffffffffffffffffffffffffffffffffff167f17307eab39ab6107e8899845ad3d59bd9653f200f220920489ca2b5937696c3183604051808215151515815260200191505060405180910390a3505050565b600080828401905083811015611fb4576040517f08c379a000000000000000000000000000000000000000000000000000000000815260040180806020018281038252601b8152602001807f536166654d6174683a206164646974696f6e206f766572666c6f77000000000081525060200191505060405180910390fd5b8091505092915050565b6000611fc8612c72565b6040518060a001604052808581526020014267ffffffffffffffff1681526020018867ffffffffffffffff1681526020018767ffffffffffffffff1681526020018667ffffffffffffffff16815250905060006121246001600584908060018154018082558091505090600182039060005260206000209060020201600090919290919091506000820151816000015560208201518160010160006101000a81548167ffffffffffffffff021916908367ffffffffffffffff16021790555060408201518160010160086101000a81548167ffffffffffffffff021916908367ffffffffffffffff16021790555060608201518160010160106101000a81548167ffffffffffffffff021916908367ffffffffffffffff16021790555060808201518160010160186101000a81548167ffffffffffffffff021916908367ffffffffffffffff16021790555050506126b690919063ffffffff16565b90507fa2950fd8c03e7518275ee57e05ca76c671969b5445b12b1aeea4b0b30195e5df84828a8a898b604051808773ffffffffffffffffffffffffffffffffffffffff1673ffffffffffffffffffffffffffffffffffffffff168152602001868152602001858152602001848152602001838152602001828152602001965050505050505060405180910390a16121cd6000858360405180602001604052806000815250612700565b809250505095945050505050565b60006121e5612cc9565b60006121f042612726565b9050600061220a620100008361275e90919063ffffffff16565b90506000601090506000600a9050600060019050600190505b6180008111612459576122406001846126b690919063ffffffff16565b92506122566001836126b690919063ffffffff16565b91506000818561ffff16161461233e5761227a600a8a61275e90919063ffffffff16565b61ffff1686846010811061228a57fe5b6020020181815250506002600183815481106122a257fe5b90600052602060002001541415612339576122c76002826127a890919063ffffffff16565b90506122dd6001846126b690919063ffffffff16565b92506122f3600a8a61260090919063ffffffff16565b9850612309600a8961260090919063ffffffff16565b975061231f600a8a61275e90919063ffffffff16565b61ffff1686846010811061232f57fe5b6020020181815250505b612412565b612352600a8961275e90919063ffffffff16565b61ffff1686846010811061236257fe5b60200201818152505060026001838154811061237a57fe5b906000526020600020015414156124115761239f6002826127a890919063ffffffff16565b90506123b56001846126b690919063ffffffff16565b92506123cb600a8a61260090919063ffffffff16565b98506123e1600a8961260090919063ffffffff16565b97506123f7600a8961275e90919063ffffffff16565b61ffff1686846010811061240757fe5b6020020181815250505b5b612426600a8a61260090919063ffffffff16565b985061243c600a8961260090919063ffffffff16565b97506124526002826127a890919063ffffffff16565b9050612223565b6000821461246357fe5b6000831461246d57fe5b6010801461247757fe5b600086600f6010811061248657fe5b602002015190506000809050600092505b818310156124d8576124c9600184815481106124af57fe5b906000526020600020015482611f3690919063ffffffff16565b90508280600101935050612497565b6000600183815481106124e757fe5b90600052602060002001549050600061250c620100008a61260090919063ffffffff16565b90506000612524600a8361275e90919063ffffffff16565b9050808b856010811061253357fe5b602002018181525050600283141561258b57612559600a8361260090919063ffffffff16565b915061256f600a8361275e90919063ffffffff16565b9050808b600186016010811061258157fe5b6020020181815250505b60008096505b60108710156125eb576125bd8c88601081106125a957fe5b602002015182611f3690919063ffffffff16565b9050600f87146125de576125db600a826127a890919063ffffffff16565b90505b8680600101975050612591565b809c5050505050505050505050505092915050565b600061264283836040518060400160405280601a81526020017f536166654d6174683a206469766973696f6e206279207a65726f00000000000081525061282e565b905092915050565b60006009600083815260200190815260200160002060009054906101000a900473ffffffffffffffffffffffffffffffffffffffff1673ffffffffffffffffffffffffffffffffffffffff168373ffffffffffffffffffffffffffffffffffffffff1614905092915050565b60006126f883836040518060400160405280601e81526020017f536166654d6174683a207375627472616374696f6e206f766572666c6f7700008152506128f4565b905092915050565b61270b848484611a68565b612717848484846129b4565b61272057600080fd5b50505050565b60008082604051602001808281526020019150506040516020818303038152906040528051906020012090508060001c915050919050565b60006127a083836040518060400160405280601881526020017f536166654d6174683a206d6f64756c6f206279207a65726f0000000000000000815250612b98565b905092915050565b6000808314156127bb5760009050612828565b60008284029050828482816127cc57fe5b0414612823576040517f08c379a0000000000000000000000000000000000000000000000000000000008152600401808060200182810382526021815260200180612d1c6021913960400191505060405180910390fd5b809150505b92915050565b600080831182906128da576040517f08c379a00000000000000000000000000000000000000000000000000000000081526004018080602001828103825283818151815260200191508051906020019080838360005b8381101561289f578082015181840152602081019050612884565b50505050905090810190601f1680156128cc5780820380516001836020036101000a031916815260200191505b509250505060405180910390fd5b5060008385816128e657fe5b049050809150509392505050565b60008383111582906129a1576040517f08c379a00000000000000000000000000000000000000000000000000000000081526004018080602001828103825283818151815260200191508051906020019080838360005b8381101561296657808201518184015260208101905061294b565b50505050905090810190601f1680156129935780820380516001836020036101000a031916815260200191505b509250505060405180910390fd5b5060008385039050809150509392505050565b60006129bf84612c59565b6129cc5760019050612b90565b60008473ffffffffffffffffffffffffffffffffffffffff1663150b7a02338887876040518563ffffffff1660e01b8152600401808573ffffffffffffffffffffffffffffffffffffffff1673ffffffffffffffffffffffffffffffffffffffff1681526020018473ffffffffffffffffffffffffffffffffffffffff1673ffffffffffffffffffffffffffffffffffffffff16815260200183815260200180602001828103825283818151815260200191508051906020019080838360005b83811015612aa7578082015181840152602081019050612a8c565b50505050905090810190601f168015612ad45780820380516001836020036101000a031916815260200191505b5095505050505050602060405180830381600087803b158015612af657600080fd5b505af1158015612b0a573d6000803e3d6000fd5b505050506040513d6020811015612b2057600080fd5b810190808051906020019092919050505090506040518080612ced602f9139602f01905060405180910390207bffffffffffffffffffffffffffffffffffffffffffffffffffffffff1916817bffffffffffffffffffffffffffffffffffffffffffffffffffffffff1916149150505b949350505050565b6000808314158290612c45576040517f08c379a00000000000000000000000000000000000000000000000000000000081526004018080602001828103825283818151815260200191508051906020019080838360005b83811015612c0a578082015181840152602081019050612bef565b50505050905090810190601f168015612c375780820380516001836020036101000a031916815260200191505b509250505060405180910390fd5b50828481612c4f57fe5b0690509392505050565b600080823b905060008163ffffffff1611915050919050565b6040518060a0016040528060008152602001600067ffffffffffffffff168152602001600067ffffffffffffffff168152602001600067ffffffffffffffff168152602001600067ffffffffffffffff1681525090565b60405180610200016040528060109060208202803883398082019150509050509056fe6f6e455243373231526563656976656428616464726573732c616464726573732c75696e743235362c627974657329536166654d6174683a206d756c7469706c69636174696f6e206f766572666c6f77a265627a7a723158208bcef8c54820b9d84746bc7cc5ec2306474c48c2adedc5ee4d005d7a15a9a37664736f6c634300050c0032",
  "source": "pragma solidity 0.5.12;\n\nimport \"./IERC721.sol\";\nimport \"./IERC721Receiver.sol\";\n\nimport \"./Safemath.sol\";\nimport \"./Ownable.sol\";\nimport \"./ArrayUtils.sol\";\n\ncontract KittyContract is IERC721, Ownable {\n\n    using SafeMath for uint256;\n    using ArrayUtils for uint256[];\n\n    struct Kitty {\n        uint256 genes;\n        uint64 birthTime;\n        uint64 mumId;\n        uint64 dadId;\n        uint64 generation;\n    }\n\n    bytes4 internal constant _ERC721_RECEIVED =\n        bytes4(keccak256(\"onERC721Received(address,address,uint256,bytes)\"));\n    bytes4 private constant _INTERFACE_ID_ERC721 = 0x80ac58cd;\n    bytes4 private constant _INTERFACE_ID_ERC165 = 0x01ffc9a7;\n    // Note: bytes4(keccak256('supportsInterface(bytes4) == 0x01ffc9a7'));\n\n    uint64 private constant _GEN0_LIMIT = 10;\n    uint256[] private _dnaFormat = [2,2,2,2,1,1,2,2,1,1];   //Used by _exactRandomMixDna()\n\n    uint256 private _gen0KittiesCount;\n    string private _name;\n    string private _symbol;\n\n    Kitty[] private _kitties;  \n    mapping(uint256 => address) private _kittiesOwner;\n    mapping(address => uint256) private _ownersKittyCount;\n    mapping(address => uint256[]) private _ownersKittyIds;\n\n    mapping(uint256 => address) private _kittiesApprovedOperator;\n    mapping(address => mapping(address => bool)) private _ownersApprovedOperators;\n\n    event Birth(\n        address owner,\n        uint256 kittenId,\n        uint256 mumId,\n        uint256 dadId,\n        uint256 genes,\n        uint256 generation\n    );\n\n\n// Public & external functions\n\n    constructor(string memory name, string memory symbol) public {\n        _name = name;\n        _symbol = symbol;\n    }\n\n\n    function createKittyGen0(uint256 genes) public onlyOwner {\n        require(_gen0KittiesCount < _GEN0_LIMIT, \"Hit Gen0 creation limit!\");\n        _gen0KittiesCount = _gen0KittiesCount.add(1);\n        _createKitty( 0, 0, 0, genes, msg.sender);\n    }\n\n\n    function breed(uint256 mumId, uint256 dadId) public returns (uint256)\n    {\n        // Ensure that the breeder is owner or guardian of parent cats\n        require(\n            _isOwnerOrApproved(\n                msg.sender,\n                _kittiesOwner[mumId],\n                msg.sender,\n                mumId\n            ),\n            \"Must have access to mother cat!\"\n        );\n        require(\n            _isOwnerOrApproved(\n                msg.sender,\n                _kittiesOwner[dadId],\n                msg.sender,\n                dadId\n            ),\n            \"Must have access to father cat!\"\n        );\n\n        // Determine new kitty's DNA\n        // (Alternative dna mixing functions commented out below)\n        // uint256 newDna = _basicMixDna(_kitties[mumId].genes, _kitties[dadId].genes);\n        // uint256 newDna = _mixDna(_kitties[mumId].genes, _kitties[dadId].genes);\n        // uint256 newDna = _improvedMixDna(_kitties[mumId].genes, _kitties[dadId].genes);\n        // uint256 newDna = _completeMixDna(_kitties[mumId].genes, _kitties[dadId].genes);\n        uint256 newDna = _exactRandomMixDna(_kitties[mumId].genes, _kitties[dadId].genes);\n\n        // Calculate new kitties Generation\n        uint256 mumGen = _kitties[mumId].generation;\n        uint256 dadGen = _kitties[dadId].generation;\n        uint256 newGen = mumGen.add(dadGen).div(2).add(1);\n\n        // Create the new kitty (with breeder becoming new kitties owner)\n        uint256 newKittyId = _createKitty(\n            mumId,\n            dadId,\n            newGen,\n            newDna,\n            msg.sender\n        );\n        return newKittyId;\n    }\n\n\n    function getKitty(uint256 kittyId) external view returns (\n        uint256 genes,\n        uint64 birthTime, \n        uint64 mumId,\n        uint64 dadId,\n        uint64 generation\n    )\n    {\n        require(_isInExistance(kittyId), \"No such kitty id!\");\n        \n        return (\n            _kitties[kittyId].genes, \n            _kitties[kittyId].birthTime,\n            _kitties[kittyId].mumId, \n            _kitties[kittyId].dadId, \n            _kitties[kittyId].generation\n        );\n    }\n\n\n    function getAllYourKittyIds() external view returns(uint256[] memory) {\n        // Set pointer to owners array of kitty Ids\n        return _ownersKittyIds[msg.sender];\n    }\n\n\n    // IERC165 function implementations\n    function supportsInterface(bytes4 interfaceId) public pure returns (bool) {\n        return (\n            interfaceId == _INTERFACE_ID_ERC721 ||\n            interfaceId == _INTERFACE_ID_ERC165\n        );\n    }\n\n\n    // IERC721 function implementations\n\n    function balanceOf(address owner) external view returns (uint256) {\n        return _ownersKittyCount[owner];\n    }\n\n\n    function totalSupply() external view returns (uint256) {\n        return _kitties.length;\n    }\n\n\n    function name() external view returns (string memory) {\n        return _name;\n    }\n\n\n    function symbol() external view returns (string memory) {\n        return _symbol;\n    }\n\n\n    function ownerOf(uint256 tokenId) external view returns (address) {\n        require(_isInExistance(tokenId), \"Token does not exist!\");\n\n        return _kittiesOwner[tokenId];\n    }\n\n\n    function transfer(address to, uint256 tokenId) external {\n        // Checks\n        require(_isNotZero(to), \"Recipient's address is zero!\");\n        require(to != address(this), \"Recipient is contract address!\");\n        require(_isOwner(msg.sender, tokenId), \"Sender is not token owner!\");\n\n        // Effects: Transfer token\n        _transfer(msg.sender, to, tokenId);\n    }\n\n\n    function approve(address approved, uint256 tokenId) external {\n        require(\n            _isOwner(msg.sender, tokenId) ||\n            _isOperator(_kittiesOwner[tokenId], msg.sender),\n            \"Not token owner, nor operator!\"\n        );\n        require(_isNotZero(approved), \"0 address can't be an approver!\");   // Additional check\n\n        _approve(msg.sender, approved, tokenId);\n    }\n\n\n    function setApprovalForAll(address operator, bool approved) external {\n        require(operator != msg.sender);\n        _setApprovalForAll(msg.sender, operator, approved);\n    }\n\n\n    function getApproved(uint256 tokenId) external view returns (address) {\n        require(_isInExistance(tokenId), \"Token does not exist!\");\n\n        return _kittiesApprovedOperator[tokenId];\n    }\n\n\n    function isApprovedForAll(address owner, address operator)\n        external\n        view\n        returns (bool)\n    {\n        return _isOperator(owner, operator);\n    }\n\n\n    function safeTransferFrom(\n        address from, \n        address to, \n        uint256 tokenId, \n        bytes calldata data\n    )\n        external\n    {  \n        _safeTransferFrom(msg.sender, from, to, tokenId, data);\n    }\n\n\n    function safeTransferFrom(\n        address from,\n        address to,\n        uint256 tokenId\n    )\n        external\n    {\n        _safeTransferFrom(msg.sender, from, to, tokenId, \"\");\n    }\n\n\n    function transferFrom(address from, address to, uint256 tokenId) external {\n        require(\n            _isOwnerOrApproved(msg.sender, from, to, tokenId),\n            \"No authority to transfer token!\"\n        );\n        _transfer(from, to, tokenId);\n    }\n\n\n// Internal & private functions\n\n    function _isOwnerOrApproved(\n        address sender,\n        address from,\n        address to,\n        uint256 tokenId\n    )\n        internal\n        view\n        returns (bool)\n    {\n        require(_isInExistance(tokenId), \"Token doesn't exist!\");\n        require(_isOwner(from, tokenId), \"'from' doesn't own token!\");\n        require(_isNotZero(to), \"Recipient's address is zero!\");\n\n        return (\n            _isOwner(sender, tokenId) ||\n            _isOperator(_kittiesOwner[tokenId], sender) ||\n            _isApproved(sender, tokenId)\n        );\n    }\n\n\n    function _isNotZero(address candidate)\n        internal\n        pure\n        returns (bool)\n    {\n        return (candidate != address(0));\n    }\n\n\n    function _isOwner(address claimer, uint256 tokenId)\n        internal\n        view\n        returns (bool)\n    {\n        return (_kittiesOwner[tokenId] == claimer);\n    }\n\n\n    function _isOperator(address owner, address candidate)\n        internal\n        view\n        returns (bool)\n    {\n        return _ownersApprovedOperators[owner][candidate];\n    }\n\n\n    function _isApproved(address candidate, uint256 tokenId)\n        internal\n        view\n        returns (bool)\n    {\n        return (candidate == _kittiesApprovedOperator[tokenId]);\n    }\n\n\n    function _isInExistance(uint256 tokenId)\n        internal\n        view\n        returns (bool)\n    {\n        return (tokenId < _kitties.length);\n    }\n\n\n    function _transfer(address from, address to, uint256 tokenId) internal {\n\n        if (_isNotZero(from)){\n            // Remove kittie token from the sender\n            delete _kittiesApprovedOperator[tokenId];\n            _ownersKittyIds[from].removeFrom(tokenId);\n            _ownersKittyCount[from] = _ownersKittyCount[from].sub(1);\n        }\n\n        // Give token to the receiver\n        _ownersKittyIds[to].push(tokenId);\n        _ownersKittyCount[to] = _ownersKittyCount[to].add(1);\n        _kittiesOwner[tokenId] = to;\n\n        emit Transfer(from, to, tokenId);\n    }\n\n\n    function _safeTransferFrom(\n        address sender, \n        address from, \n        address to, \n        uint256 tokenId, \n        bytes memory data\n    )\n        internal\n    {\n        require(\n            _isOwnerOrApproved(sender, from, to, tokenId),\n            \"No authority to transfer token!\"\n        );\n        \n        _safeTransfer(from, to, tokenId, data);\n    }\n\n\n    function _safeTransfer(\n        address from, \n        address to, \n        uint256 tokenId, \n        bytes memory data\n    )\n        internal \n    {\n        _transfer(from, to, tokenId);\n        require(_checkERC721Support(from, to, tokenId, data));\n    }\n\n\n    function _approve(\n        address grantor,\n        address approved,\n        uint256 tokenId\n    )\n        internal\n    {\n        _kittiesApprovedOperator[tokenId] = approved;\n        emit Approval(grantor, approved, tokenId);\n    }\n\n\n    function _setApprovalForAll(\n        address owner,\n        address operator,\n        bool approved\n    )\n        internal\n    {\n        _ownersApprovedOperators[owner][operator] = approved;\n        emit ApprovalForAll(owner, operator, approved);\n    }\n\n\n    function _checkERC721Support(\n        address from,\n        address to,\n        uint256 tokenId,\n        bytes memory data\n    )\n        internal\n        returns (bool)\n    {\n        if (!_isContract(to)) return true;\n\n        // Call onERC721Received in the _to contract\n        bytes4 response = IERC721Receiver(to).onERC721Received(\n            msg.sender,\n            from,\n            tokenId,\n            data\n        );\n        return (response == _ERC721_RECEIVED);\n    }\n\n\n    function _isContract(address to) internal view returns (bool) {\n        uint32 codeSize;\n        assembly{\n            codeSize := extcodesize(to)\n        }\n        return (codeSize > 0);\n    }\n\n\n    function _createKitty(\n        uint256 mumId,\n        uint256 dadId,\n        uint256 generation,\n        uint256 genes,\n        address owner\n    ) \n        private\n        returns (uint256)\n    {\n        Kitty memory newKitty = Kitty(\n            {\n                genes: genes,\n                birthTime: uint64(now),\n                mumId: uint64(mumId),\n                dadId: uint64(dadId),\n                generation: uint64(generation)\n            }\n        );\n        uint256 newKittenId = (_kitties.push(newKitty)).sub(1);\n        emit Birth(owner, newKittenId, mumId, dadId, genes, generation);\n        _safeTransfer(address(0), owner, newKittenId, \"\");\n        return newKittenId;\n    }\n\n\n\n    function _mixDna(uint256 mumDna, uint256 dadDna)\n        internal\n        view\n        returns (uint256)\n    {\n        uint256[8] memory newGenes;\n        uint8 random = uint8(now.mod(256));\n        uint256 index = 8; // counter for 8 x 2-digit pairs (that make up dna)\n\n        // Create gene array (for each 2-digit pair of the 16-digit dna)\n        uint256 i;\n        for (i = 1; i <= 128; i= i.mul(2) ) {\n            index = index.sub(1); // move back one 2-digit pair\n            // DNA 16 digits\n            if (random & i != 0) {\n                newGenes[index] = uint8(mumDna.mod(100));  // get last 2 digits\n            } else {\n                newGenes[index] = uint8(dadDna.mod(100));  \n            }\n            // remove last two digits of the dna\n            mumDna = mumDna.div(100);\n            dadDna = dadDna.div(100);\n        } \n        assert(index == 0);            // processed all 8 dna digit-pairs\n        assert(newGenes.length == 8);  // correct number of new dna digit-pairs\n\n        uint256 dnaSequence;\n        for (i = 0; i < 8; i++) {   // i==0 gives the 2 most-sig gene digits\n            dnaSequence = dnaSequence.add(newGenes[i]);  \n            if (i != 7) dnaSequence = dnaSequence.mul(100);\n        }\n\n        return dnaSequence;\n    }\n\n\n    function _improvedMixDna(uint256 mumDna, uint256 dadDna)\n        internal\n        view\n        returns (uint256)\n    {\n    // Mix 16 digits of parent's dna, 2-digits at a time, to make new dna.\n    // Note: This doesn't cause any gene mutation, each gene value will always \n    // come from either the mum or dad.  However, single-digit adjacent genes\n    // (ie. genes 5&6 and 9&10) will always come from only one parent.\n        uint256[8] memory newGenes;\n        \n        // Get 8-digit pseudo-random integer (assumes 1+ secs since last get)\n        uint256 value = _getHashAsInteger(now); \n        uint8 random = uint8(value.mod(256));  //8 least-sig digits (2^8 = 256)\n        \n        uint256 index = 8; // counter for 8 x 2-digit pairs (that make up dna)\n\n        // Create gene array (for each 2-digit pair of the 16-digit dna)\n        uint256 i;\n        for (i = 1; i <= 128; i = i.mul(2)) {\n            index = index.sub(1);  // move back one 2-digit pair\n            if (random & i != 0) {\n                newGenes[index] = uint8(mumDna.mod(100));  // Take last 2 digits\n            } else {\n                newGenes[index] = uint8(dadDna.mod(100));  \n            }\n            // remove last two digits of the dna\n            mumDna = mumDna.div(100);\n            dadDna = dadDna.div(100);\n        } \n        assert(index == 0);            // processed all 8 dna digit-pairs\n        assert(newGenes.length == 8);  // correct number of new dna digit-pairs\n\n        // Construct the new (16-digit) dna number (from 8 x 2-digit genes)\n        uint256 dnaSequence;\n        for (i = 0; i < 8; i++) {   // i==0 gives the 2 most-sig gene digits\n            dnaSequence = dnaSequence.add(newGenes[i]);  \n            if (i != 7) dnaSequence = dnaSequence.mul(100);\n        }\n\n        return dnaSequence;\n    }    \n    \n\n    function _getHashAsInteger(uint value) internal pure returns (uint256) {\n        bytes32 hash = keccak256(abi.encodePacked(value));\n        return uint256(hash);\n    }\n\n\n    function _completeMixDna(uint256 mumDna, uint256 dadDna)\n        internal\n        view\n        returns (uint256)\n    {\n    // Mixes all 16 digit dna, digit-by-digit (irrespective of gene size).\n    // Note: For two-digit gene values (eg. colour) there's a 50% chance of\n    // inheritance from either mother or father and 50% chance of a mutated \n    // 2-digit value. This mutated 2-digit value is composed of the most-sig \n    // digit from the one parent's 2-digit gene, and the least-sig digit from\n    // the other parent's 2-digit gene - eg. mum 52, dad 93 may give 53 or 92).\n        uint256[16] memory newGenes;\n\n        // Get 16-digit pseudo-random number (assumes 1+ secs since last get)\n        uint256 value = _getHashAsInteger(now);\n        uint16 random = uint16(value.mod(65536)); //Last 16 digits (2^&16==65536)\n        \n        uint256 index = 16; // counter for 16 digit dna digits\n\n        // Determine which genes comes from each parent (for each of 16-digits)\n        // Note: most-sig digit's value of 16-digit binary num = 2^15 = 32,768\n        //      (most-sign digit's value of 8-digit binary number = 2^7 = 128)\n        uint256 i;\n        for (i = 1; i <= 32768; i= i.mul(2)) {\n            index = index.sub(1);\n            if (random & i != 0) {                   // Select mum's dna digit\n                newGenes[index] = uint16(mumDna.mod(10)); \n            } else {                                 // Select dad's dna digit\n                newGenes[index] = uint16(dadDna.mod(10)); \n            }\n            \n            // Remove the processed least-sig digit\n            mumDna = mumDna.div(10);\n            dadDna = dadDna.div(10);\n        } \n        assert(index == 0);            // processed all 16 dna digits\n        assert(newGenes.length == 16); // correct number of new dna digits\n\n        // Construct the (16-digit) dna number (from gene digits)\n        uint256 dnaSequence;\n        for (i = 0; i < 16; i++) {\n            dnaSequence = dnaSequence.add(newGenes[i]); // i==0 is most-sig gene digit\n            if (i != 15) dnaSequence = dnaSequence.mul(10);\n        }\n\n        return dnaSequence;\n    }\n    \n\n    function _exactRandomMixDna(uint256 mumDna, uint256 dadDna)\n        internal\n        view\n        returns (uint256)\n    {\n    // Randomy mix parent dna, gene-by-gene, with a one random gene value.\n    // This accounts for two-digit gene values (eg. head colour).\n    // After creating new DNA, a single 'target' gene value is randomised.\n    // This 'target' gene is specified by the last gene (single digit of dna).\n    // Eg. If last dna digit==0, randomise most-sig digits 1&2 (2-digit gene);\n    // If last digit is 4, randomise digit 9 (as it's a 1-digit gene); and\n    // If last digit is 9, randomise last (least-sig) digit (also 1-digit gene).\n\n        uint256[16] memory newGenes;\n\n        // Get pseudo-random 16-digit number \n        uint256 value = _getHashAsInteger(now);\n        uint16 random = uint16(value.mod(65536)); //Last 16 digits (2^&16==65536)\n        \n        // initialise counters for processing dna\n        uint256 index = 16;         // counter for 16 digit dna digits\n        uint256 geneNumber = 10;    // counter for 10 genes in dna\n        \n        // Mix dna of parents, from least-significant dna digit, gene by gene\n        uint256 i = 1;      \n        for (i = 1; i <= 32768; i= i.mul(2)) {\n            index = index.sub(1);\n            geneNumber = geneNumber.sub(1);\n            if (random & i != 0) {                    // Select mum's dna gene\n                newGenes[index] = uint16(mumDna.mod(10)); \n                if (_dnaFormat[geneNumber] == 2) {    // Process 2nd gene digit\n                    // Move on past processed first digit (of 2-digit value)\n                    i = i.mul(2);\n                    index = index.sub(1); \n                    mumDna = mumDna.div(10);\n                    dadDna = dadDna.div(10);\n                    // Store second digit of mum's gene value\n                    newGenes[index] = uint16(mumDna.mod(10));\n                }\n            } else {                                   // Select dad's dna gene\n                newGenes[index] = uint16(dadDna.mod(10));\n                if (_dnaFormat[geneNumber] == 2) {     // Process 2nd gene digit\n                    // Move on past processed first digit (of 2-digit value)\n                    i = i.mul(2);\n                    index = index.sub(1); \n                    mumDna = mumDna.div(10);\n                    dadDna = dadDna.div(10);\n                    // Store second digit of dad's gene value\n                    newGenes[index] = uint16(dadDna.mod(10));\n                }\n            }\n            \n            // Move past the last processed digit, ready for next gene value\n            mumDna = mumDna.div(10);\n            dadDna = dadDna.div(10);\n        }\n        assert(geneNumber == 0);       // processed all 10 dna genes\n        assert(index == 0);            // processed all 16 dna digits\n        assert(newGenes.length == 16); // correct number of new dna digits\n        \n        \n        // Randomise one 'target' gene - as specified by last gene (single digit)\n        uint256 targetGene = newGenes[15];\n        \n        // Find this 'target' gene in the dna\n        uint256 dnaPos = 0;\n        for (i = 0; i < targetGene; i++) {\n           dnaPos = dnaPos.add(_dnaFormat[i]);\n        }\n        uint256 geneDigits = _dnaFormat[targetGene];\n        \n        // Get next random digit (discarding previously used 16 random digits)\n        uint256 unusedDigits = value.div(65536);       // 2^&16 = 65,536\n        uint256 randomDigit = unusedDigits.mod(10);\n        \n        // Randomise the digit(s) of this target gene\n        newGenes[dnaPos] = randomDigit;\n        if (geneDigits == 2) { \n            unusedDigits = unusedDigits.div(10);\n            randomDigit = unusedDigits.mod(10);\n            newGenes[dnaPos+1] = randomDigit;\n        }\n\n        // Construct new (16-digit) dna (from individual gene digits)\n        uint256 dnaSequence;\n        for (i = 0; i < 16; i++) {\n            dnaSequence = dnaSequence.add(newGenes[i]);  // i==0 is most-sig gene digit\n            if (i != 15) dnaSequence = dnaSequence.mul(10);\n        }\n\n        return dnaSequence;\n    }\n\n\n    function _basicMixDna(uint256 mumDna, uint256 dadDna)\n        internal\n        pure\n        returns (uint256)\n    {\n    // Create new dna from first half of mum's dna and second half of dad's dna      \n        uint256 firstEightDigits = mumDna.div(100000000);\n        uint256 lastEightDigits = dadDna.mod(100000000);\n        uint256 newDna = (firstEightDigits.mul(100000000)).add(lastEightDigits);\n        return newDna;\n    }\n}\n\n",
  "sourcePath": "/Users/Mark/Documents/BlockChain/IvanOnTechAcademy/Bootcamp/CryptoKitties-Clone/contracts/KittyContract.sol",
  "compiler": {
    "name": "solc",
    "version": "0.5.12+commit.7709ece9.Emscripten.clang"
  },
  "schemaVersion": "3.2.0",
  "updatedAt": "2021-04-19T18:04:57.419Z",
  "networkType": "ethereum",
  "devdoc": {
    "methods": {}
  },
  "userdoc": {
    "methods": {}
  }
}